{
  "_format": "hh-sol-artifact-1",
  "contractName": "TextResolver",
  "sourceName": "contracts/resolvers/profiles/TextResolver.sol",
  "abi": [
    {
      "inputs": [
        {
          "internalType": "contract ResolverController",
          "name": "_rc",
          "type": "address"
        }
      ],
      "stateMutability": "nonpayable",
      "type": "constructor"
    },
    {
      "anonymous": false,
      "inputs": [
        {
          "indexed": true,
          "internalType": "address",
          "name": "previousOwner",
          "type": "address"
        },
        {
          "indexed": true,
          "internalType": "address",
          "name": "newOwner",
          "type": "address"
        }
      ],
      "name": "OwnershipTransferred",
      "type": "event"
    },
    {
      "anonymous": false,
      "inputs": [
        {
          "indexed": true,
          "internalType": "uint256",
          "name": "tokenId",
          "type": "uint256"
        },
        {
          "indexed": true,
          "internalType": "string",
          "name": "indexedKey",
          "type": "string"
        },
        {
          "indexed": false,
          "internalType": "string",
          "name": "key",
          "type": "string"
        }
      ],
      "name": "TextChanged",
      "type": "event"
    },
    {
      "inputs": [
        {
          "internalType": "address",
          "name": "controller",
          "type": "address"
        }
      ],
      "name": "addController",
      "outputs": [],
      "stateMutability": "nonpayable",
      "type": "function"
    },
    {
      "inputs": [
        {
          "internalType": "address",
          "name": "",
          "type": "address"
        }
      ],
      "name": "controllers",
      "outputs": [
        {
          "internalType": "bool",
          "name": "",
          "type": "bool"
        }
      ],
      "stateMutability": "view",
      "type": "function"
    },
    {
      "inputs": [],
      "name": "owner",
      "outputs": [
        {
          "internalType": "address",
          "name": "",
          "type": "address"
        }
      ],
      "stateMutability": "view",
      "type": "function"
    },
    {
      "inputs": [
        {
          "internalType": "address",
          "name": "controller",
          "type": "address"
        }
      ],
      "name": "removeController",
      "outputs": [],
      "stateMutability": "nonpayable",
      "type": "function"
    },
    {
      "inputs": [],
      "name": "renounceOwnership",
      "outputs": [],
      "stateMutability": "nonpayable",
      "type": "function"
    },
    {
      "inputs": [
        {
          "internalType": "uint256",
          "name": "tokenId",
          "type": "uint256"
        },
        {
          "internalType": "string",
          "name": "key",
          "type": "string"
        },
        {
          "internalType": "string",
          "name": "value",
          "type": "string"
        }
      ],
      "name": "setText",
      "outputs": [],
      "stateMutability": "nonpayable",
      "type": "function"
    },
    {
      "inputs": [
        {
          "internalType": "uint256",
          "name": "tokenId",
          "type": "uint256"
        },
        {
          "internalType": "string",
          "name": "key",
          "type": "string"
        }
      ],
      "name": "text",
      "outputs": [
        {
          "internalType": "string",
          "name": "",
          "type": "string"
        }
      ],
      "stateMutability": "view",
      "type": "function"
    },
    {
      "inputs": [
        {
          "internalType": "address",
          "name": "newOwner",
          "type": "address"
        }
      ],
      "name": "transferOwnership",
      "outputs": [],
      "stateMutability": "nonpayable",
      "type": "function"
    }
  ],
  "bytecode": "0x60806040523480156200001157600080fd5b5060405162001366380380620013668339818101604052810190620000379190620002d2565b620000576200004b620000b060201b60201c565b620000b860201b60201c565b62000068336200017c60201b60201c565b80600360006101000a81548173ffffffffffffffffffffffffffffffffffffffff021916908373ffffffffffffffffffffffffffffffffffffffff160217905550506200047b565b600033905090565b60008060009054906101000a900473ffffffffffffffffffffffffffffffffffffffff169050816000806101000a81548173ffffffffffffffffffffffffffffffffffffffff021916908373ffffffffffffffffffffffffffffffffffffffff1602179055508173ffffffffffffffffffffffffffffffffffffffff168173ffffffffffffffffffffffffffffffffffffffff167f8be0079c531659141344cd1fd0a4f28419497f9722a3daafe3b4186f6b6457e060405160405180910390a35050565b6200018c620000b060201b60201c565b73ffffffffffffffffffffffffffffffffffffffff16620001b26200029260201b60201c565b73ffffffffffffffffffffffffffffffffffffffff16146200020b576040517f08c379a000000000000000000000000000000000000000000000000000000000815260040162000202906200036e565b60405180910390fd5b600073ffffffffffffffffffffffffffffffffffffffff168173ffffffffffffffffffffffffffffffffffffffff1614156200027e576040517f08c379a000000000000000000000000000000000000000000000000000000000815260040162000275906200034c565b60405180910390fd5b6200028f81620000b860201b60201c565b50565b60008060009054906101000a900473ffffffffffffffffffffffffffffffffffffffff16905090565b600081519050620002cc8162000461565b92915050565b600060208284031215620002e557600080fd5b6000620002f584828501620002bb565b91505092915050565b60006200030d60268362000390565b91506200031a82620003e9565b604082019050919050565b60006200033460208362000390565b9150620003418262000438565b602082019050919050565b600060208201905081810360008301526200036781620002fe565b9050919050565b60006020820190508181036000830152620003898162000325565b9050919050565b600082825260208201905092915050565b6000620003ae82620003c9565b9050919050565b6000620003c282620003a1565b9050919050565b600073ffffffffffffffffffffffffffffffffffffffff82169050919050565b7f4f776e61626c653a206e6577206f776e657220697320746865207a65726f206160008201527f6464726573730000000000000000000000000000000000000000000000000000602082015250565b7f4f776e61626c653a2063616c6c6572206973206e6f7420746865206f776e6572600082015250565b6200046c81620003b5565b81146200047857600080fd5b50565b610edb806200048b6000396000f3fe608060405234801561001057600080fd5b50600436106100885760003560e01c8063a7fc7a071161005b578063a7fc7a0714610101578063da8c229e1461011d578063f2fde38b1461014d578063f6a74ed71461016957610088565b8063308e33861461008d5780633fb24782146100bd578063715018a6146100d95780638da5cb5b146100e3575b600080fd5b6100a760048036038101906100a2919061098e565b610185565b6040516100b49190610bf4565b60405180910390f35b6100d760048036038101906100d291906109e6565b61024a565b005b6100e16103ce565b005b6100eb610456565b6040516100f89190610b9a565b60405180910390f35b61011b6004803603810190610116919061093c565b61047f565b005b6101376004803603810190610132919061093c565b610555565b6040516101449190610bb5565b60405180910390f35b6101676004803603810190610162919061093c565b610575565b005b610183600480360381019061017e919061093c565b61066d565b005b60606002600085815260200190815260200160002083836040516101aa929190610b81565b908152602001604051809103902080546101c390610d27565b80601f01602080910402602001604051908101604052809291908181526020018280546101ef90610d27565b801561023c5780601f106102115761010080835404028352916020019161023c565b820191906000526020600020905b81548152906001019060200180831161021f57829003601f168201915b505050505090509392505050565b600360009054906101000a900473ffffffffffffffffffffffffffffffffffffffff1673ffffffffffffffffffffffffffffffffffffffff1663da8c229e336040518263ffffffff1660e01b81526004016102a59190610b9a565b60206040518083038186803b1580156102bd57600080fd5b505afa1580156102d1573d6000803e3d6000fd5b505050506040513d601f19601f820116820180604052508101906102f59190610965565b610334576040517f08c379a000000000000000000000000000000000000000000000000000000000815260040161032b90610c16565b60405180910390fd5b8181600260008881526020019081526020016000208686604051610359929190610b81565b90815260200160405180910390209190610374929190610810565b508383604051610385929190610b81565b6040518091039020857f7121d1b42aabab02ef111a84b9dc36375a901fd0635378f23df84878362f96c786866040516103bf929190610bd0565b60405180910390a35050505050565b6103d6610744565b73ffffffffffffffffffffffffffffffffffffffff166103f4610456565b73ffffffffffffffffffffffffffffffffffffffff161461044a576040517f08c379a000000000000000000000000000000000000000000000000000000000815260040161044190610c56565b60405180910390fd5b610454600061074c565b565b60008060009054906101000a900473ffffffffffffffffffffffffffffffffffffffff16905090565b610487610744565b73ffffffffffffffffffffffffffffffffffffffff166104a5610456565b73ffffffffffffffffffffffffffffffffffffffff16146104fb576040517f08c379a00000000000000000000000000000000000000000000000000000000081526004016104f290610c56565b60405180910390fd5b60018060008373ffffffffffffffffffffffffffffffffffffffff1673ffffffffffffffffffffffffffffffffffffffff16815260200190815260200160002060006101000a81548160ff02191690831515021790555050565b60016020528060005260406000206000915054906101000a900460ff1681565b61057d610744565b73ffffffffffffffffffffffffffffffffffffffff1661059b610456565b73ffffffffffffffffffffffffffffffffffffffff16146105f1576040517f08c379a00000000000000000000000000000000000000000000000000000000081526004016105e890610c56565b60405180910390fd5b600073ffffffffffffffffffffffffffffffffffffffff168173ffffffffffffffffffffffffffffffffffffffff161415610661576040517f08c379a000000000000000000000000000000000000000000000000000000000815260040161065890610c36565b60405180910390fd5b61066a8161074c565b50565b610675610744565b73ffffffffffffffffffffffffffffffffffffffff16610693610456565b73ffffffffffffffffffffffffffffffffffffffff16146106e9576040517f08c379a00000000000000000000000000000000000000000000000000000000081526004016106e090610c56565b60405180910390fd5b6000600160008373ffffffffffffffffffffffffffffffffffffffff1673ffffffffffffffffffffffffffffffffffffffff16815260200190815260200160002060006101000a81548160ff02191690831515021790555050565b600033905090565b60008060009054906101000a900473ffffffffffffffffffffffffffffffffffffffff169050816000806101000a81548173ffffffffffffffffffffffffffffffffffffffff021916908373ffffffffffffffffffffffffffffffffffffffff1602179055508173ffffffffffffffffffffffffffffffffffffffff168173ffffffffffffffffffffffffffffffffffffffff167f8be0079c531659141344cd1fd0a4f28419497f9722a3daafe3b4186f6b6457e060405160405180910390a35050565b82805461081c90610d27565b90600052602060002090601f01602090048101928261083e5760008555610885565b82601f1061085757803560ff1916838001178555610885565b82800160010185558215610885579182015b82811115610884578235825591602001919060010190610869565b5b5090506108929190610896565b5090565b5b808211156108af576000816000905550600101610897565b5090565b6000813590506108c281610e60565b92915050565b6000815190506108d781610e77565b92915050565b60008083601f8401126108ef57600080fd5b8235905067ffffffffffffffff81111561090857600080fd5b60208301915083600182028301111561092057600080fd5b9250929050565b60008135905061093681610e8e565b92915050565b60006020828403121561094e57600080fd5b600061095c848285016108b3565b91505092915050565b60006020828403121561097757600080fd5b6000610985848285016108c8565b91505092915050565b6000806000604084860312156109a357600080fd5b60006109b186828701610927565b935050602084013567ffffffffffffffff8111156109ce57600080fd5b6109da868287016108dd565b92509250509250925092565b6000806000806000606086880312156109fe57600080fd5b6000610a0c88828901610927565b955050602086013567ffffffffffffffff811115610a2957600080fd5b610a35888289016108dd565b9450945050604086013567ffffffffffffffff811115610a5457600080fd5b610a60888289016108dd565b92509250509295509295909350565b610a7881610c9d565b82525050565b610a8781610caf565b82525050565b6000610a998385610c81565b9350610aa6838584610ce5565b610aaf83610d88565b840190509392505050565b6000610ac68385610c92565b9350610ad3838584610ce5565b82840190509392505050565b6000610aea82610c76565b610af48185610c81565b9350610b04818560208601610cf4565b610b0d81610d88565b840191505092915050565b6000610b25602883610c81565b9150610b3082610d99565b604082019050919050565b6000610b48602683610c81565b9150610b5382610de8565b604082019050919050565b6000610b6b602083610c81565b9150610b7682610e37565b602082019050919050565b6000610b8e828486610aba565b91508190509392505050565b6000602082019050610baf6000830184610a6f565b92915050565b6000602082019050610bca6000830184610a7e565b92915050565b60006020820190508181036000830152610beb818486610a8d565b90509392505050565b60006020820190508181036000830152610c0e8184610adf565b905092915050565b60006020820190508181036000830152610c2f81610b18565b9050919050565b60006020820190508181036000830152610c4f81610b3b565b9050919050565b60006020820190508181036000830152610c6f81610b5e565b9050919050565b600081519050919050565b600082825260208201905092915050565b600081905092915050565b6000610ca882610cbb565b9050919050565b60008115159050919050565b600073ffffffffffffffffffffffffffffffffffffffff82169050919050565b6000819050919050565b82818337600083830152505050565b60005b83811015610d12578082015181840152602081019050610cf7565b83811115610d21576000848401525b50505050565b60006002820490506001821680610d3f57607f821691505b60208210811415610d5357610d52610d59565b5b50919050565b7f4e487b7100000000000000000000000000000000000000000000000000000000600052602260045260246000fd5b6000601f19601f8301169050919050565b7f4f4e53204e46545f5265736f6c7665723a20594f555f484156455f4e4f5f505260008201527f4f4d4f54494f4e53000000000000000000000000000000000000000000000000602082015250565b7f4f776e61626c653a206e6577206f776e657220697320746865207a65726f206160008201527f6464726573730000000000000000000000000000000000000000000000000000602082015250565b7f4f776e61626c653a2063616c6c6572206973206e6f7420746865206f776e6572600082015250565b610e6981610c9d565b8114610e7457600080fd5b50565b610e8081610caf565b8114610e8b57600080fd5b50565b610e9781610cdb565b8114610ea257600080fd5b5056fea26469706673582212207c27213fc0fea54d94de580c0cf75ee6c5e761752dad034a56bfe853e6cd8edd64736f6c63430008040033",
  "linkReferences": {},
  "deployedLinkReferences": {}
}