{
  "_format": "hh-sol-artifact-1",
  "contractName": "NFTResolver",
  "sourceName": "contracts/resolvers/profiles/NFTResolver.sol",
  "abi": [
    {
      "inputs": [
        {
          "internalType": "contract ONSRegister",
          "name": "_ons",
          "type": "address"
        },
        {
          "internalType": "contract ResolverController",
          "name": "_rc",
          "type": "address"
        }
      ],
      "stateMutability": "nonpayable",
      "type": "constructor"
    },
    {
      "anonymous": false,
      "inputs": [
        {
          "indexed": true,
          "internalType": "uint256",
          "name": "tokenId",
          "type": "uint256"
        },
        {
          "indexed": false,
          "internalType": "contract ABIHelper",
          "name": "contractAddress",
          "type": "address"
        },
        {
          "indexed": false,
          "internalType": "uint256",
          "name": "NFTId",
          "type": "uint256"
        }
      ],
      "name": "NFTChanged",
      "type": "event"
    },
    {
      "anonymous": false,
      "inputs": [
        {
          "indexed": true,
          "internalType": "address",
          "name": "previousOwner",
          "type": "address"
        },
        {
          "indexed": true,
          "internalType": "address",
          "name": "newOwner",
          "type": "address"
        }
      ],
      "name": "OwnershipTransferred",
      "type": "event"
    },
    {
      "inputs": [
        {
          "internalType": "uint256",
          "name": "tokenId",
          "type": "uint256"
        }
      ],
      "name": "NFT",
      "outputs": [
        {
          "components": [
            {
              "internalType": "contract ABIHelper",
              "name": "contractAddress",
              "type": "address"
            },
            {
              "internalType": "uint256",
              "name": "tokenID",
              "type": "uint256"
            }
          ],
          "internalType": "struct NFTResolver.NFTDetails",
          "name": "",
          "type": "tuple"
        }
      ],
      "stateMutability": "view",
      "type": "function"
    },
    {
      "inputs": [
        {
          "internalType": "address",
          "name": "controller",
          "type": "address"
        }
      ],
      "name": "addController",
      "outputs": [],
      "stateMutability": "nonpayable",
      "type": "function"
    },
    {
      "inputs": [
        {
          "internalType": "address",
          "name": "",
          "type": "address"
        }
      ],
      "name": "controllers",
      "outputs": [
        {
          "internalType": "bool",
          "name": "",
          "type": "bool"
        }
      ],
      "stateMutability": "view",
      "type": "function"
    },
    {
      "inputs": [
        {
          "internalType": "uint256",
          "name": "tokenId",
          "type": "uint256"
        }
      ],
      "name": "getTokenURI",
      "outputs": [
        {
          "internalType": "string",
          "name": "",
          "type": "string"
        }
      ],
      "stateMutability": "view",
      "type": "function"
    },
    {
      "inputs": [],
      "name": "owner",
      "outputs": [
        {
          "internalType": "address",
          "name": "",
          "type": "address"
        }
      ],
      "stateMutability": "view",
      "type": "function"
    },
    {
      "inputs": [
        {
          "internalType": "address",
          "name": "controller",
          "type": "address"
        }
      ],
      "name": "removeController",
      "outputs": [],
      "stateMutability": "nonpayable",
      "type": "function"
    },
    {
      "inputs": [],
      "name": "renounceOwnership",
      "outputs": [],
      "stateMutability": "nonpayable",
      "type": "function"
    },
    {
      "inputs": [
        {
          "internalType": "uint256",
          "name": "tokenId",
          "type": "uint256"
        },
        {
          "internalType": "contract ABIHelper",
          "name": "_contract",
          "type": "address"
        },
        {
          "internalType": "uint256",
          "name": "_NFTId",
          "type": "uint256"
        },
        {
          "internalType": "address",
          "name": "_caller",
          "type": "address"
        }
      ],
      "name": "setNFT",
      "outputs": [],
      "stateMutability": "nonpayable",
      "type": "function"
    },
    {
      "inputs": [
        {
          "internalType": "address",
          "name": "newOwner",
          "type": "address"
        }
      ],
      "name": "transferOwnership",
      "outputs": [],
      "stateMutability": "nonpayable",
      "type": "function"
    }
  ],
  "bytecode": "0x60806040523480156200001157600080fd5b5060405162001b0f38038062001b0f83398181016040528101906200003791906200032b565b620000576200004b620000f260201b60201c565b620000fa60201b60201c565b6200006833620001be60201b60201c565b80600360006101000a81548173ffffffffffffffffffffffffffffffffffffffff021916908373ffffffffffffffffffffffffffffffffffffffff16021790555081600460006101000a81548173ffffffffffffffffffffffffffffffffffffffff021916908373ffffffffffffffffffffffffffffffffffffffff160217905550505062000517565b600033905090565b60008060009054906101000a900473ffffffffffffffffffffffffffffffffffffffff169050816000806101000a81548173ffffffffffffffffffffffffffffffffffffffff021916908373ffffffffffffffffffffffffffffffffffffffff1602179055508173ffffffffffffffffffffffffffffffffffffffff168173ffffffffffffffffffffffffffffffffffffffff167f8be0079c531659141344cd1fd0a4f28419497f9722a3daafe3b4186f6b6457e060405160405180910390a35050565b620001ce620000f260201b60201c565b73ffffffffffffffffffffffffffffffffffffffff16620001f4620002d460201b60201c565b73ffffffffffffffffffffffffffffffffffffffff16146200024d576040517f08c379a00000000000000000000000000000000000000000000000000000000081526004016200024490620003dc565b60405180910390fd5b600073ffffffffffffffffffffffffffffffffffffffff168173ffffffffffffffffffffffffffffffffffffffff161415620002c0576040517f08c379a0000000000000000000000000000000000000000000000000000000008152600401620002b790620003ba565b60405180910390fd5b620002d181620000fa60201b60201c565b50565b60008060009054906101000a900473ffffffffffffffffffffffffffffffffffffffff16905090565b6000815190506200030e81620004e3565b92915050565b6000815190506200032581620004fd565b92915050565b600080604083850312156200033f57600080fd5b60006200034f85828601620002fd565b9250506020620003628582860162000314565b9150509250929050565b60006200037b602683620003fe565b915062000388826200046b565b604082019050919050565b6000620003a2602083620003fe565b9150620003af82620004ba565b602082019050919050565b60006020820190508181036000830152620003d5816200036c565b9050919050565b60006020820190508181036000830152620003f78162000393565b9050919050565b600082825260208201905092915050565b60006200041c826200044b565b9050919050565b600062000430826200040f565b9050919050565b600062000444826200040f565b9050919050565b600073ffffffffffffffffffffffffffffffffffffffff82169050919050565b7f4f776e61626c653a206e6577206f776e657220697320746865207a65726f206160008201527f6464726573730000000000000000000000000000000000000000000000000000602082015250565b7f4f776e61626c653a2063616c6c6572206973206e6f7420746865206f776e6572600082015250565b620004ee8162000423565b8114620004fa57600080fd5b50565b620005088162000437565b81146200051457600080fd5b50565b6115e880620005276000396000f3fe608060405234801561001057600080fd5b50600436106100935760003560e01c80638da5cb5b116100665780638da5cb5b1461011e578063a7fc7a071461013c578063da8c229e14610158578063f2fde38b14610188578063f6a74ed7146101a457610093565b8063288e356c1461009857806333f418b8146100b45780633bb3a24d146100e4578063715018a614610114575b600080fd5b6100b260048036038101906100ad9190610f09565b6101c0565b005b6100ce60048036038101906100c99190610eb7565b610398565b6040516100db9190611227565b60405180910390f35b6100fe60048036038101906100f99190610eb7565b61054d565b60405161010b9190611165565b60405180910390f35b61011c61074c565b005b6101266107d4565b60405161013391906110dd565b60405180910390f35b61015660048036038101906101519190610dfb565b6107fd565b005b610172600480360381019061016d9190610dfb565b6108d3565b60405161017f9190611121565b60405180910390f35b6101a2600480360381019061019d9190610dfb565b6108f3565b005b6101be60048036038101906101b99190610dfb565b6109eb565b005b600360009054906101000a900473ffffffffffffffffffffffffffffffffffffffff1673ffffffffffffffffffffffffffffffffffffffff1663da8c229e336040518263ffffffff1660e01b815260040161021b91906110dd565b60206040518083038186803b15801561023357600080fd5b505afa158015610247573d6000803e3d6000fd5b505050506040513d601f19601f8201168201806040525081019061026b9190610e4d565b6102aa576040517f08c379a00000000000000000000000000000000000000000000000000000000081526004016102a190611187565b60405180910390fd5b6102b5818484610ac2565b6102f4576040517f08c379a00000000000000000000000000000000000000000000000000000000081526004016102eb90611207565b60405180910390fd5b6000600260008681526020019081526020016000209050828160010181905550838160000160006101000a81548173ffffffffffffffffffffffffffffffffffffffff021916908373ffffffffffffffffffffffffffffffffffffffff160217905550847f564f8d6ddcac411e5e07e7fe65019618573ce74c88fbddf45d858b2b3a110a98858560405161038992919061113c565b60405180910390a25050505050565b6103a0610ce5565b6000600460009054906101000a900473ffffffffffffffffffffffffffffffffffffffff1673ffffffffffffffffffffffffffffffffffffffff16636352211e846040518263ffffffff1660e01b81526004016103fd9190611242565b60206040518083038186803b15801561041557600080fd5b505afa158015610429573d6000803e3d6000fd5b505050506040513d601f19601f8201168201806040525081019061044d9190610e24565b90506000600260008581526020019081526020016000209050610499828260000160009054906101000a900473ffffffffffffffffffffffffffffffffffffffff168360010154610ac2565b6104d8576040517f08c379a00000000000000000000000000000000000000000000000000000000081526004016104cf906111e7565b60405180910390fd5b806040518060400160405290816000820160009054906101000a900473ffffffffffffffffffffffffffffffffffffffff1673ffffffffffffffffffffffffffffffffffffffff1673ffffffffffffffffffffffffffffffffffffffff16815260200160018201548152505092505050919050565b60606000600460009054906101000a900473ffffffffffffffffffffffffffffffffffffffff1673ffffffffffffffffffffffffffffffffffffffff16636352211e846040518263ffffffff1660e01b81526004016105ac9190611242565b60206040518083038186803b1580156105c457600080fd5b505afa1580156105d8573d6000803e3d6000fd5b505050506040513d601f19601f820116820180604052508101906105fc9190610e24565b90506000600260008581526020019081526020016000209050610648828260000160009054906101000a900473ffffffffffffffffffffffffffffffffffffffff168360010154610ac2565b610687576040517f08c379a000000000000000000000000000000000000000000000000000000000815260040161067e906111e7565b60405180910390fd5b60008160000160009054906101000a900473ffffffffffffffffffffffffffffffffffffffff1673ffffffffffffffffffffffffffffffffffffffff1663c87b56dd83600101546040518263ffffffff1660e01b81526004016106ea9190611242565b60006040518083038186803b15801561070257600080fd5b505afa158015610716573d6000803e3d6000fd5b505050506040513d6000823e3d601f19601f8201168201806040525081019061073f9190610e76565b9050809350505050919050565b610754610c19565b73ffffffffffffffffffffffffffffffffffffffff166107726107d4565b73ffffffffffffffffffffffffffffffffffffffff16146107c8576040517f08c379a00000000000000000000000000000000000000000000000000000000081526004016107bf906111c7565b60405180910390fd5b6107d26000610c21565b565b60008060009054906101000a900473ffffffffffffffffffffffffffffffffffffffff16905090565b610805610c19565b73ffffffffffffffffffffffffffffffffffffffff166108236107d4565b73ffffffffffffffffffffffffffffffffffffffff1614610879576040517f08c379a0000000000000000000000000000000000000000000000000000000008152600401610870906111c7565b60405180910390fd5b60018060008373ffffffffffffffffffffffffffffffffffffffff1673ffffffffffffffffffffffffffffffffffffffff16815260200190815260200160002060006101000a81548160ff02191690831515021790555050565b60016020528060005260406000206000915054906101000a900460ff1681565b6108fb610c19565b73ffffffffffffffffffffffffffffffffffffffff166109196107d4565b73ffffffffffffffffffffffffffffffffffffffff161461096f576040517f08c379a0000000000000000000000000000000000000000000000000000000008152600401610966906111c7565b60405180910390fd5b600073ffffffffffffffffffffffffffffffffffffffff168173ffffffffffffffffffffffffffffffffffffffff1614156109df576040517f08c379a00000000000000000000000000000000000000000000000000000000081526004016109d6906111a7565b60405180910390fd5b6109e881610c21565b50565b6109f3610c19565b73ffffffffffffffffffffffffffffffffffffffff16610a116107d4565b73ffffffffffffffffffffffffffffffffffffffff1614610a67576040517f08c379a0000000000000000000000000000000000000000000000000000000008152600401610a5e906111c7565b60405180910390fd5b6000600160008373ffffffffffffffffffffffffffffffffffffffff1673ffffffffffffffffffffffffffffffffffffffff16815260200190815260200160002060006101000a81548160ff02191690831515021790555050565b60008373ffffffffffffffffffffffffffffffffffffffff168373ffffffffffffffffffffffffffffffffffffffff16636352211e846040518263ffffffff1660e01b8152600401610b149190611242565b60206040518083038186803b158015610b2c57600080fd5b505afa158015610b40573d6000803e3d6000fd5b505050506040513d601f19601f82011682018060405250810190610b649190610e24565b73ffffffffffffffffffffffffffffffffffffffff161480610c10575060008373ffffffffffffffffffffffffffffffffffffffff1662fdd58e86856040518363ffffffff1660e01b8152600401610bbd9291906110f8565b60206040518083038186803b158015610bd557600080fd5b505afa158015610be9573d6000803e3d6000fd5b505050506040513d601f19601f82011682018060405250810190610c0d9190610ee0565b14155b90509392505050565b600033905090565b60008060009054906101000a900473ffffffffffffffffffffffffffffffffffffffff169050816000806101000a81548173ffffffffffffffffffffffffffffffffffffffff021916908373ffffffffffffffffffffffffffffffffffffffff1602179055508173ffffffffffffffffffffffffffffffffffffffff168173ffffffffffffffffffffffffffffffffffffffff167f8be0079c531659141344cd1fd0a4f28419497f9722a3daafe3b4186f6b6457e060405160405180910390a35050565b6040518060400160405280600073ffffffffffffffffffffffffffffffffffffffff168152602001600081525090565b6000610d28610d2384611282565b61125d565b905082815260208101848484011115610d4057600080fd5b610d4b84828561134d565b509392505050565b600081359050610d6281611556565b92915050565b600081519050610d7781611556565b92915050565b600081519050610d8c8161156d565b92915050565b600081359050610da181611584565b92915050565b600082601f830112610db857600080fd5b8151610dc8848260208601610d15565b91505092915050565b600081359050610de08161159b565b92915050565b600081519050610df58161159b565b92915050565b600060208284031215610e0d57600080fd5b6000610e1b84828501610d53565b91505092915050565b600060208284031215610e3657600080fd5b6000610e4484828501610d68565b91505092915050565b600060208284031215610e5f57600080fd5b6000610e6d84828501610d7d565b91505092915050565b600060208284031215610e8857600080fd5b600082015167ffffffffffffffff811115610ea257600080fd5b610eae84828501610da7565b91505092915050565b600060208284031215610ec957600080fd5b6000610ed784828501610dd1565b91505092915050565b600060208284031215610ef257600080fd5b6000610f0084828501610de6565b91505092915050565b60008060008060808587031215610f1f57600080fd5b6000610f2d87828801610dd1565b9450506020610f3e87828801610d92565b9350506040610f4f87828801610dd1565b9250506060610f6087828801610d53565b91505092959194509250565b610f75816112cf565b82525050565b610f84816112e1565b82525050565b610f9381611329565b82525050565b610fa281611329565b82525050565b6000610fb3826112b3565b610fbd81856112be565b9350610fcd81856020860161134d565b610fd6816113e0565b840191505092915050565b6000610fee6028836112be565b9150610ff9826113f1565b604082019050919050565b60006110116026836112be565b915061101c82611440565b604082019050919050565b60006110346020836112be565b915061103f8261148f565b602082019050919050565b6000611057603d836112be565b9150611062826114b8565b604082019050919050565b600061107a6033836112be565b915061108582611507565b604082019050919050565b6040820160008201516110a66000850182610f8a565b5060208201516110b960208501826110bf565b50505050565b6110c88161131f565b82525050565b6110d78161131f565b82525050565b60006020820190506110f26000830184610f6c565b92915050565b600060408201905061110d6000830185610f6c565b61111a60208301846110ce565b9392505050565b60006020820190506111366000830184610f7b565b92915050565b60006040820190506111516000830185610f99565b61115e60208301846110ce565b9392505050565b6000602082019050818103600083015261117f8184610fa8565b905092915050565b600060208201905081810360008301526111a081610fe1565b9050919050565b600060208201905081810360008301526111c081611004565b9050919050565b600060208201905081810360008301526111e081611027565b9050919050565b600060208201905081810360008301526112008161104a565b9050919050565b600060208201905081810360008301526112208161106d565b9050919050565b600060408201905061123c6000830184611090565b92915050565b600060208201905061125760008301846110ce565b92915050565b6000611267611278565b90506112738282611380565b919050565b6000604051905090565b600067ffffffffffffffff82111561129d5761129c6113b1565b5b6112a6826113e0565b9050602081019050919050565b600081519050919050565b600082825260208201905092915050565b60006112da826112ff565b9050919050565b60008115159050919050565b60006112f8826112cf565b9050919050565b600073ffffffffffffffffffffffffffffffffffffffff82169050919050565b6000819050919050565b60006113348261133b565b9050919050565b6000611346826112ff565b9050919050565b60005b8381101561136b578082015181840152602081019050611350565b8381111561137a576000848401525b50505050565b611389826113e0565b810181811067ffffffffffffffff821117156113a8576113a76113b1565b5b80604052505050565b7f4e487b7100000000000000000000000000000000000000000000000000000000600052604160045260246000fd5b6000601f19601f8301169050919050565b7f4f4e53204e46545f5265736f6c7665723a20594f555f484156455f4e4f5f505260008201527f4f4d4f54494f4e53000000000000000000000000000000000000000000000000602082015250565b7f4f776e61626c653a206e6577206f776e657220697320746865207a65726f206160008201527f6464726573730000000000000000000000000000000000000000000000000000602082015250565b7f4f776e61626c653a2063616c6c6572206973206e6f7420746865206f776e6572600082015250565b7f4f4e53204e46545f5265736f6c7665723a20544849535f4e46545f49535f4e4f60008201527f545f414e594d4f52455f56414c49445f464f525f544849535f4e414d45000000602082015250565b7f4f4e53204e46545f5265736f6c7665723a20594f555f4152455f4e4f545f544860008201527f455f4f574e45525f4f465f544849535f4e465400000000000000000000000000602082015250565b61155f816112cf565b811461156a57600080fd5b50565b611576816112e1565b811461158157600080fd5b50565b61158d816112ed565b811461159857600080fd5b50565b6115a48161131f565b81146115af57600080fd5b5056fea2646970667358221220748b4e90d5a5b035b29214c411c39404d4fae2eaaf3c832fc7a2c38e9fd86df764736f6c63430008040033",
  "linkReferences": {},
  "deployedLinkReferences": {}
}