{
  "_format": "hh-sol-artifact-1",
  "contractName": "TextFilters",
  "sourceName": "contracts/resolvers/helper/TextFilters.sol",
  "abi": [
    {
      "inputs": [],
      "stateMutability": "nonpayable",
      "type": "constructor"
    },
    {
      "anonymous": false,
      "inputs": [
        {
          "indexed": true,
          "internalType": "address",
          "name": "previousOwner",
          "type": "address"
        },
        {
          "indexed": true,
          "internalType": "address",
          "name": "newOwner",
          "type": "address"
        }
      ],
      "name": "OwnershipTransferred",
      "type": "event"
    },
    {
      "inputs": [],
      "name": "owner",
      "outputs": [
        {
          "internalType": "address",
          "name": "",
          "type": "address"
        }
      ],
      "stateMutability": "view",
      "type": "function"
    },
    {
      "inputs": [
        {
          "internalType": "string",
          "name": "_text",
          "type": "string"
        }
      ],
      "name": "permittingText",
      "outputs": [],
      "stateMutability": "nonpayable",
      "type": "function"
    },
    {
      "inputs": [],
      "name": "renounceOwnership",
      "outputs": [],
      "stateMutability": "nonpayable",
      "type": "function"
    },
    {
      "inputs": [
        {
          "internalType": "string",
          "name": "",
          "type": "string"
        }
      ],
      "name": "textFilterList",
      "outputs": [
        {
          "internalType": "bool",
          "name": "",
          "type": "bool"
        }
      ],
      "stateMutability": "view",
      "type": "function"
    },
    {
      "inputs": [
        {
          "internalType": "address",
          "name": "newOwner",
          "type": "address"
        }
      ],
      "name": "transferOwnership",
      "outputs": [],
      "stateMutability": "nonpayable",
      "type": "function"
    },
    {
      "inputs": [
        {
          "internalType": "string",
          "name": "_text",
          "type": "string"
        }
      ],
      "name": "unpermittingText",
      "outputs": [],
      "stateMutability": "nonpayable",
      "type": "function"
    }
  ],
  "bytecode": "0x60806040523480156200001157600080fd5b5062000032620000266200004960201b60201c565b6200005160201b60201c565b62000043336200011560201b60201c565b6200036f565b600033905090565b60008060009054906101000a900473ffffffffffffffffffffffffffffffffffffffff169050816000806101000a81548173ffffffffffffffffffffffffffffffffffffffff021916908373ffffffffffffffffffffffffffffffffffffffff1602179055508173ffffffffffffffffffffffffffffffffffffffff168173ffffffffffffffffffffffffffffffffffffffff167f8be0079c531659141344cd1fd0a4f28419497f9722a3daafe3b4186f6b6457e060405160405180910390a35050565b620001256200004960201b60201c565b73ffffffffffffffffffffffffffffffffffffffff166200014b6200022b60201b60201c565b73ffffffffffffffffffffffffffffffffffffffff1614620001a4576040517f08c379a00000000000000000000000000000000000000000000000000000000081526004016200019b90620002c4565b60405180910390fd5b600073ffffffffffffffffffffffffffffffffffffffff168173ffffffffffffffffffffffffffffffffffffffff16141562000217576040517f08c379a00000000000000000000000000000000000000000000000000000000081526004016200020e90620002a2565b60405180910390fd5b62000228816200005160201b60201c565b50565b60008060009054906101000a900473ffffffffffffffffffffffffffffffffffffffff16905090565b600062000263602683620002e6565b91506200027082620002f7565b604082019050919050565b60006200028a602083620002e6565b9150620002978262000346565b602082019050919050565b60006020820190508181036000830152620002bd8162000254565b9050919050565b60006020820190508181036000830152620002df816200027b565b9050919050565b600082825260208201905092915050565b7f4f776e61626c653a206e6577206f776e657220697320746865207a65726f206160008201527f6464726573730000000000000000000000000000000000000000000000000000602082015250565b7f4f776e61626c653a2063616c6c6572206973206e6f7420746865206f776e6572600082015250565b610965806200037f6000396000f3fe608060405234801561001057600080fd5b50600436106100625760003560e01c80631f6de741146100675780634349843714610097578063715018a6146100b35780638da5cb5b146100bd578063945ebef9146100db578063f2fde38b146100f7575b600080fd5b610081600480360381019061007c91906105cf565b610113565b60405161008e91906106d7565b60405180910390f35b6100b160048036038101906100ac91906105cf565b610149565b005b6100bb6101fe565b005b6100c5610286565b6040516100d291906106bc565b60405180910390f35b6100f560048036038101906100f091906105cf565b6102af565b005b610111600480360381019061010c91906105a6565b610365565b005b6001818051602081018201805184825260208301602085012081835280955050505050506000915054906101000a900460ff1681565b61015161045d565b73ffffffffffffffffffffffffffffffffffffffff1661016f610286565b73ffffffffffffffffffffffffffffffffffffffff16146101c5576040517f08c379a00000000000000000000000000000000000000000000000000000000081526004016101bc90610712565b60405180910390fd5b600180826040516101d691906106a5565b908152602001604051809103902060006101000a81548160ff02191690831515021790555050565b61020661045d565b73ffffffffffffffffffffffffffffffffffffffff16610224610286565b73ffffffffffffffffffffffffffffffffffffffff161461027a576040517f08c379a000000000000000000000000000000000000000000000000000000000815260040161027190610712565b60405180910390fd5b6102846000610465565b565b60008060009054906101000a900473ffffffffffffffffffffffffffffffffffffffff16905090565b6102b761045d565b73ffffffffffffffffffffffffffffffffffffffff166102d5610286565b73ffffffffffffffffffffffffffffffffffffffff161461032b576040517f08c379a000000000000000000000000000000000000000000000000000000000815260040161032290610712565b60405180910390fd5b600060018260405161033d91906106a5565b908152602001604051809103902060006101000a81548160ff02191690831515021790555050565b61036d61045d565b73ffffffffffffffffffffffffffffffffffffffff1661038b610286565b73ffffffffffffffffffffffffffffffffffffffff16146103e1576040517f08c379a00000000000000000000000000000000000000000000000000000000081526004016103d890610712565b60405180910390fd5b600073ffffffffffffffffffffffffffffffffffffffff168173ffffffffffffffffffffffffffffffffffffffff161415610451576040517f08c379a0000000000000000000000000000000000000000000000000000000008152600401610448906106f2565b60405180910390fd5b61045a81610465565b50565b600033905090565b60008060009054906101000a900473ffffffffffffffffffffffffffffffffffffffff169050816000806101000a81548173ffffffffffffffffffffffffffffffffffffffff021916908373ffffffffffffffffffffffffffffffffffffffff1602179055508173ffffffffffffffffffffffffffffffffffffffff168173ffffffffffffffffffffffffffffffffffffffff167f8be0079c531659141344cd1fd0a4f28419497f9722a3daafe3b4186f6b6457e060405160405180910390a35050565b600061053c61053784610757565b610732565b90508281526020810184848401111561055457600080fd5b61055f8482856107ed565b509392505050565b60008135905061057681610918565b92915050565b600082601f83011261058d57600080fd5b813561059d848260208601610529565b91505092915050565b6000602082840312156105b857600080fd5b60006105c684828501610567565b91505092915050565b6000602082840312156105e157600080fd5b600082013567ffffffffffffffff8111156105fb57600080fd5b6106078482850161057c565b91505092915050565b610619816107af565b82525050565b610628816107c1565b82525050565b600061063982610788565b61064381856107a4565b93506106538185602086016107fc565b80840191505092915050565b600061066c602683610793565b9150610677826108a0565b604082019050919050565b600061068f602083610793565b915061069a826108ef565b602082019050919050565b60006106b1828461062e565b915081905092915050565b60006020820190506106d16000830184610610565b92915050565b60006020820190506106ec600083018461061f565b92915050565b6000602082019050818103600083015261070b8161065f565b9050919050565b6000602082019050818103600083015261072b81610682565b9050919050565b600061073c61074d565b9050610748828261082f565b919050565b6000604051905090565b600067ffffffffffffffff82111561077257610771610860565b5b61077b8261088f565b9050602081019050919050565b600081519050919050565b600082825260208201905092915050565b600081905092915050565b60006107ba826107cd565b9050919050565b60008115159050919050565b600073ffffffffffffffffffffffffffffffffffffffff82169050919050565b82818337600083830152505050565b60005b8381101561081a5780820151818401526020810190506107ff565b83811115610829576000848401525b50505050565b6108388261088f565b810181811067ffffffffffffffff8211171561085757610856610860565b5b80604052505050565b7f4e487b7100000000000000000000000000000000000000000000000000000000600052604160045260246000fd5b6000601f19601f8301169050919050565b7f4f776e61626c653a206e6577206f776e657220697320746865207a65726f206160008201527f6464726573730000000000000000000000000000000000000000000000000000602082015250565b7f4f776e61626c653a2063616c6c6572206973206e6f7420746865206f776e6572600082015250565b610921816107af565b811461092c57600080fd5b5056fea26469706673582212206fa81fdf8ab30b13283d7677ccd2f63e55ad08b851b56517903aa69ce57c58aa64736f6c63430008040033",
  "linkReferences": {},
  "deployedLinkReferences": {}
}