{
  "_format": "hh-sol-artifact-1",
  "contractName": "PublicResolver",
  "sourceName": "contracts/resolvers/PublicResolver.sol",
  "abi": [
    {
      "inputs": [
        {
          "internalType": "contract ONSRegister",
          "name": "_ons",
          "type": "address"
        },
        {
          "internalType": "contract TextResolver",
          "name": "_textResolver",
          "type": "address"
        },
        {
          "internalType": "contract NFTResolver",
          "name": "_nftResolver",
          "type": "address"
        },
        {
          "internalType": "contract VerifyResolver",
          "name": "_verifyResolver",
          "type": "address"
        },
        {
          "internalType": "contract TextFilters",
          "name": "_textFilters",
          "type": "address"
        }
      ],
      "stateMutability": "nonpayable",
      "type": "constructor"
    },
    {
      "anonymous": false,
      "inputs": [
        {
          "indexed": true,
          "internalType": "address",
          "name": "previousOwner",
          "type": "address"
        },
        {
          "indexed": true,
          "internalType": "address",
          "name": "newOwner",
          "type": "address"
        }
      ],
      "name": "OwnershipTransferred",
      "type": "event"
    },
    {
      "inputs": [
        {
          "internalType": "uint256",
          "name": "tokenId",
          "type": "uint256"
        },
        {
          "internalType": "contract ABIHelper",
          "name": "contractAddress",
          "type": "address"
        },
        {
          "internalType": "uint256",
          "name": "NFTId",
          "type": "uint256"
        }
      ],
      "name": "editNFT",
      "outputs": [],
      "stateMutability": "nonpayable",
      "type": "function"
    },
    {
      "inputs": [
        {
          "internalType": "uint256",
          "name": "tokenId",
          "type": "uint256"
        },
        {
          "internalType": "string",
          "name": "key",
          "type": "string"
        },
        {
          "internalType": "string",
          "name": "value",
          "type": "string"
        }
      ],
      "name": "editText",
      "outputs": [],
      "stateMutability": "nonpayable",
      "type": "function"
    },
    {
      "inputs": [
        {
          "internalType": "uint256",
          "name": "tokenId",
          "type": "uint256"
        },
        {
          "internalType": "bool",
          "name": "status",
          "type": "bool"
        }
      ],
      "name": "editVerifyStatus",
      "outputs": [],
      "stateMutability": "nonpayable",
      "type": "function"
    },
    {
      "inputs": [],
      "name": "owner",
      "outputs": [
        {
          "internalType": "address",
          "name": "",
          "type": "address"
        }
      ],
      "stateMutability": "view",
      "type": "function"
    },
    {
      "inputs": [],
      "name": "renounceOwnership",
      "outputs": [],
      "stateMutability": "nonpayable",
      "type": "function"
    },
    {
      "inputs": [
        {
          "internalType": "address",
          "name": "newOwner",
          "type": "address"
        }
      ],
      "name": "transferOwnership",
      "outputs": [],
      "stateMutability": "nonpayable",
      "type": "function"
    }
  ],
  "bytecode": "0x60806040523480156200001157600080fd5b506040516200171838038062001718833981810160405281019062000037919062000436565b620000576200004b620001b860201b60201c565b620001c060201b60201c565b62000068336200028460201b60201c565b84600160006101000a81548173ffffffffffffffffffffffffffffffffffffffff021916908373ffffffffffffffffffffffffffffffffffffffff16021790555083600260006101000a81548173ffffffffffffffffffffffffffffffffffffffff021916908373ffffffffffffffffffffffffffffffffffffffff16021790555082600360006101000a81548173ffffffffffffffffffffffffffffffffffffffff021916908373ffffffffffffffffffffffffffffffffffffffff16021790555081600460006101000a81548173ffffffffffffffffffffffffffffffffffffffff021916908373ffffffffffffffffffffffffffffffffffffffff16021790555080600560006101000a81548173ffffffffffffffffffffffffffffffffffffffff021916908373ffffffffffffffffffffffffffffffffffffffff1602179055505050505050620006ed565b600033905090565b60008060009054906101000a900473ffffffffffffffffffffffffffffffffffffffff169050816000806101000a81548173ffffffffffffffffffffffffffffffffffffffff021916908373ffffffffffffffffffffffffffffffffffffffff1602179055508173ffffffffffffffffffffffffffffffffffffffff168173ffffffffffffffffffffffffffffffffffffffff167f8be0079c531659141344cd1fd0a4f28419497f9722a3daafe3b4186f6b6457e060405160405180910390a35050565b62000294620001b860201b60201c565b73ffffffffffffffffffffffffffffffffffffffff16620002ba6200039a60201b60201c565b73ffffffffffffffffffffffffffffffffffffffff161462000313576040517f08c379a00000000000000000000000000000000000000000000000000000000081526004016200030a9062000528565b60405180910390fd5b600073ffffffffffffffffffffffffffffffffffffffff168173ffffffffffffffffffffffffffffffffffffffff16141562000386576040517f08c379a00000000000000000000000000000000000000000000000000000000081526004016200037d9062000506565b60405180910390fd5b6200039781620001c060201b60201c565b50565b60008060009054906101000a900473ffffffffffffffffffffffffffffffffffffffff16905090565b600081519050620003d4816200066b565b92915050565b600081519050620003eb8162000685565b92915050565b60008151905062000402816200069f565b92915050565b6000815190506200041981620006b9565b92915050565b6000815190506200043081620006d3565b92915050565b600080600080600060a086880312156200044f57600080fd5b60006200045f88828901620003da565b9550506020620004728882890162000408565b94505060406200048588828901620003c3565b935050606062000498888289016200041f565b9250506080620004ab88828901620003f1565b9150509295509295909350565b6000620004c76026836200054a565b9150620004d482620005f3565b604082019050919050565b6000620004ee6020836200054a565b9150620004fb8262000642565b602082019050919050565b600060208201905081810360008301526200052181620004b8565b9050919050565b600060208201905081810360008301526200054381620004df565b9050919050565b600082825260208201905092915050565b60006200056882620005d3565b9050919050565b60006200057c826200055b565b9050919050565b600062000590826200055b565b9050919050565b6000620005a4826200055b565b9050919050565b6000620005b8826200055b565b9050919050565b6000620005cc826200055b565b9050919050565b600073ffffffffffffffffffffffffffffffffffffffff82169050919050565b7f4f776e61626c653a206e6577206f776e657220697320746865207a65726f206160008201527f6464726573730000000000000000000000000000000000000000000000000000602082015250565b7f4f776e61626c653a2063616c6c6572206973206e6f7420746865206f776e6572600082015250565b62000676816200056f565b81146200068257600080fd5b50565b620006908162000583565b81146200069c57600080fd5b50565b620006aa8162000597565b8114620006b657600080fd5b50565b620006c481620005ab565b8114620006d057600080fd5b50565b620006de81620005bf565b8114620006ea57600080fd5b50565b61101b80620006fd6000396000f3fe608060405234801561001057600080fd5b50600436106100625760003560e01c8063715018a61461006757806383363b4c146100715780638da5cb5b1461008d578063b354d0a9146100ab578063f2fde38b146100c7578063f8c07eed146100e3575b600080fd5b61006f6100ff565b005b61008b60048036038101906100869190610a09565b610187565b005b610095610267565b6040516100a29190610c0f565b60405180910390f35b6100c560048036038101906100c091906109cd565b610290565b005b6100e160048036038101906100dc9190610952565b6103a9565b005b6100fd60048036038101906100f89190610a58565b6104a1565b005b610107610611565b73ffffffffffffffffffffffffffffffffffffffff16610125610267565b73ffffffffffffffffffffffffffffffffffffffff161461017b576040517f08c379a000000000000000000000000000000000000000000000000000000000815260040161017290610c8c565b60405180910390fd5b6101856000610619565b565b610190836106dd565b6101cf576040517f08c379a00000000000000000000000000000000000000000000000000000000081526004016101c690610cac565b60405180910390fd5b600360009054906101000a900473ffffffffffffffffffffffffffffffffffffffff1673ffffffffffffffffffffffffffffffffffffffff1663288e356c848484336040518563ffffffff1660e01b81526004016102309493929190610d1e565b600060405180830381600087803b15801561024a57600080fd5b505af115801561025e573d6000803e3d6000fd5b50505050505050565b60008060009054906101000a900473ffffffffffffffffffffffffffffffffffffffff16905090565b610298610611565b73ffffffffffffffffffffffffffffffffffffffff166102b6610267565b73ffffffffffffffffffffffffffffffffffffffff161461030c576040517f08c379a000000000000000000000000000000000000000000000000000000000815260040161030390610c8c565b60405180910390fd5b600460009054906101000a900473ffffffffffffffffffffffffffffffffffffffff1673ffffffffffffffffffffffffffffffffffffffff1663d8ab62b483836103558661071d565b6040518463ffffffff1660e01b815260040161037393929190610ce7565b600060405180830381600087803b15801561038d57600080fd5b505af11580156103a1573d6000803e3d6000fd5b505050505050565b6103b1610611565b73ffffffffffffffffffffffffffffffffffffffff166103cf610267565b73ffffffffffffffffffffffffffffffffffffffff1614610425576040517f08c379a000000000000000000000000000000000000000000000000000000000815260040161041c90610c8c565b60405180910390fd5b600073ffffffffffffffffffffffffffffffffffffffff168173ffffffffffffffffffffffffffffffffffffffff161415610495576040517f08c379a000000000000000000000000000000000000000000000000000000000815260040161048c90610c4c565b60405180910390fd5b61049e81610619565b50565b6104aa856106dd565b6104e9576040517f08c379a00000000000000000000000000000000000000000000000000000000081526004016104e090610cac565b60405180910390fd5b61053684848080601f016020809104026020016040519081016040528093929190818152602001838380828437600081840152601f19601f820116905080830192505050505050506107d6565b610575576040517f08c379a000000000000000000000000000000000000000000000000000000000815260040161056c90610c6c565b60405180910390fd5b600260009054906101000a900473ffffffffffffffffffffffffffffffffffffffff1673ffffffffffffffffffffffffffffffffffffffff16633fb2478286868686866040518663ffffffff1660e01b81526004016105d8959493929190610d63565b600060405180830381600087803b1580156105f257600080fd5b505af1158015610606573d6000803e3d6000fd5b505050505050505050565b600033905090565b60008060009054906101000a900473ffffffffffffffffffffffffffffffffffffffff169050816000806101000a81548173ffffffffffffffffffffffffffffffffffffffff021916908373ffffffffffffffffffffffffffffffffffffffff1602179055508173ffffffffffffffffffffffffffffffffffffffff168173ffffffffffffffffffffffffffffffffffffffff167f8be0079c531659141344cd1fd0a4f28419497f9722a3daafe3b4186f6b6457e060405160405180910390a35050565b60003373ffffffffffffffffffffffffffffffffffffffff166106ff8361071d565b73ffffffffffffffffffffffffffffffffffffffff16149050919050565b600080600160009054906101000a900473ffffffffffffffffffffffffffffffffffffffff1673ffffffffffffffffffffffffffffffffffffffff16636352211e846040518263ffffffff1660e01b815260040161077b9190610ccc565b60206040518083038186803b15801561079357600080fd5b505afa1580156107a7573d6000803e3d6000fd5b505050506040513d601f19601f820116820180604052508101906107cb919061097b565b905080915050919050565b6000600560009054906101000a900473ffffffffffffffffffffffffffffffffffffffff1673ffffffffffffffffffffffffffffffffffffffff16631f6de741836040518263ffffffff1660e01b81526004016108339190610c2a565b60206040518083038186803b15801561084b57600080fd5b505afa15801561085f573d6000803e3d6000fd5b505050506040513d601f19601f8201168201806040525081019061088391906109a4565b9050919050565b60008135905061089981610f89565b92915050565b6000815190506108ae81610f89565b92915050565b6000813590506108c381610fa0565b92915050565b6000815190506108d881610fa0565b92915050565b6000813590506108ed81610fb7565b92915050565b60008083601f84011261090557600080fd5b8235905067ffffffffffffffff81111561091e57600080fd5b60208301915083600182028301111561093657600080fd5b9250929050565b60008135905061094c81610fce565b92915050565b60006020828403121561096457600080fd5b60006109728482850161088a565b91505092915050565b60006020828403121561098d57600080fd5b600061099b8482850161089f565b91505092915050565b6000602082840312156109b657600080fd5b60006109c4848285016108c9565b91505092915050565b600080604083850312156109e057600080fd5b60006109ee8582860161093d565b92505060206109ff858286016108b4565b9150509250929050565b600080600060608486031215610a1e57600080fd5b6000610a2c8682870161093d565b9350506020610a3d868287016108de565b9250506040610a4e8682870161093d565b9150509250925092565b600080600080600060608688031215610a7057600080fd5b6000610a7e8882890161093d565b955050602086013567ffffffffffffffff811115610a9b57600080fd5b610aa7888289016108f3565b9450945050604086013567ffffffffffffffff811115610ac657600080fd5b610ad2888289016108f3565b92509250509295509295909350565b610aea81610dc8565b82525050565b610af981610dda565b82525050565b610b0881610e22565b82525050565b6000610b1a8385610db7565b9350610b27838584610e46565b610b3083610e88565b840190509392505050565b6000610b4682610dac565b610b508185610db7565b9350610b60818560208601610e55565b610b6981610e88565b840191505092915050565b6000610b81602683610db7565b9150610b8c82610e99565b604082019050919050565b6000610ba4601c83610db7565b9150610baf82610ee8565b602082019050919050565b6000610bc7602083610db7565b9150610bd282610f11565b602082019050919050565b6000610bea602a83610db7565b9150610bf582610f3a565b604082019050919050565b610c0981610e18565b82525050565b6000602082019050610c246000830184610ae1565b92915050565b60006020820190508181036000830152610c448184610b3b565b905092915050565b60006020820190508181036000830152610c6581610b74565b9050919050565b60006020820190508181036000830152610c8581610b97565b9050919050565b60006020820190508181036000830152610ca581610bba565b9050919050565b60006020820190508181036000830152610cc581610bdd565b9050919050565b6000602082019050610ce16000830184610c00565b92915050565b6000606082019050610cfc6000830186610c00565b610d096020830185610af0565b610d166040830184610ae1565b949350505050565b6000608082019050610d336000830187610c00565b610d406020830186610aff565b610d4d6040830185610c00565b610d5a6060830184610ae1565b95945050505050565b6000606082019050610d786000830188610c00565b8181036020830152610d8b818688610b0e565b90508181036040830152610da0818486610b0e565b90509695505050505050565b600081519050919050565b600082825260208201905092915050565b6000610dd382610df8565b9050919050565b60008115159050919050565b6000610df182610dc8565b9050919050565b600073ffffffffffffffffffffffffffffffffffffffff82169050919050565b6000819050919050565b6000610e2d82610e34565b9050919050565b6000610e3f82610df8565b9050919050565b82818337600083830152505050565b60005b83811015610e73578082015181840152602081019050610e58565b83811115610e82576000848401525b50505050565b6000601f19601f8301169050919050565b7f4f776e61626c653a206e6577206f776e657220697320746865207a65726f206160008201527f6464726573730000000000000000000000000000000000000000000000000000602082015250565b7f4f4e535f52433a20495f444f4e545f4b4e4f575f544849535f4b455900000000600082015250565b7f4f776e61626c653a2063616c6c6572206973206e6f7420746865206f776e6572600082015250565b7f4f4e535f52433a20594f555f4152455f4e4f545f5448455f4f574e45525f4f4660008201527f5f544849535f4e414d4500000000000000000000000000000000000000000000602082015250565b610f9281610dc8565b8114610f9d57600080fd5b50565b610fa981610dda565b8114610fb457600080fd5b50565b610fc081610de6565b8114610fcb57600080fd5b50565b610fd781610e18565b8114610fe257600080fd5b5056fea2646970667358221220fac97f0a547c833928b2cdd0f4cb83992663c0068f38b5dda4cb72a1498fe0a764736f6c63430008040033",
  "linkReferences": {},
  "deployedLinkReferences": {}
}