{
  "_format": "hh-sol-artifact-1",
  "contractName": "DummyERC721",
  "sourceName": "contracts/resolvers/helper/DummyERC721.sol",
  "abi": [
    {
      "inputs": [
        {
          "internalType": "string",
          "name": "_baseURI",
          "type": "string"
        }
      ],
      "stateMutability": "nonpayable",
      "type": "constructor"
    },
    {
      "anonymous": false,
      "inputs": [
        {
          "indexed": true,
          "internalType": "address",
          "name": "owner",
          "type": "address"
        },
        {
          "indexed": true,
          "internalType": "address",
          "name": "approved",
          "type": "address"
        },
        {
          "indexed": true,
          "internalType": "uint256",
          "name": "tokenId",
          "type": "uint256"
        }
      ],
      "name": "Approval",
      "type": "event"
    },
    {
      "anonymous": false,
      "inputs": [
        {
          "indexed": true,
          "internalType": "address",
          "name": "owner",
          "type": "address"
        },
        {
          "indexed": true,
          "internalType": "address",
          "name": "operator",
          "type": "address"
        },
        {
          "indexed": false,
          "internalType": "bool",
          "name": "approved",
          "type": "bool"
        }
      ],
      "name": "ApprovalForAll",
      "type": "event"
    },
    {
      "anonymous": false,
      "inputs": [
        {
          "indexed": true,
          "internalType": "address",
          "name": "from",
          "type": "address"
        },
        {
          "indexed": true,
          "internalType": "address",
          "name": "to",
          "type": "address"
        },
        {
          "indexed": true,
          "internalType": "uint256",
          "name": "tokenId",
          "type": "uint256"
        }
      ],
      "name": "Transfer",
      "type": "event"
    },
    {
      "inputs": [
        {
          "internalType": "address",
          "name": "to",
          "type": "address"
        },
        {
          "internalType": "uint256",
          "name": "tokenId",
          "type": "uint256"
        }
      ],
      "name": "approve",
      "outputs": [],
      "stateMutability": "nonpayable",
      "type": "function"
    },
    {
      "inputs": [
        {
          "internalType": "address",
          "name": "owner",
          "type": "address"
        }
      ],
      "name": "balanceOf",
      "outputs": [
        {
          "internalType": "uint256",
          "name": "",
          "type": "uint256"
        }
      ],
      "stateMutability": "view",
      "type": "function"
    },
    {
      "inputs": [],
      "name": "baseURI",
      "outputs": [
        {
          "internalType": "string",
          "name": "",
          "type": "string"
        }
      ],
      "stateMutability": "view",
      "type": "function"
    },
    {
      "inputs": [
        {
          "internalType": "uint256",
          "name": "tokenId",
          "type": "uint256"
        }
      ],
      "name": "getApproved",
      "outputs": [
        {
          "internalType": "address",
          "name": "",
          "type": "address"
        }
      ],
      "stateMutability": "view",
      "type": "function"
    },
    {
      "inputs": [
        {
          "internalType": "address",
          "name": "owner",
          "type": "address"
        },
        {
          "internalType": "address",
          "name": "operator",
          "type": "address"
        }
      ],
      "name": "isApprovedForAll",
      "outputs": [
        {
          "internalType": "bool",
          "name": "",
          "type": "bool"
        }
      ],
      "stateMutability": "view",
      "type": "function"
    },
    {
      "inputs": [
        {
          "internalType": "uint256",
          "name": "amount",
          "type": "uint256"
        }
      ],
      "name": "mint",
      "outputs": [],
      "stateMutability": "nonpayable",
      "type": "function"
    },
    {
      "inputs": [],
      "name": "name",
      "outputs": [
        {
          "internalType": "string",
          "name": "",
          "type": "string"
        }
      ],
      "stateMutability": "view",
      "type": "function"
    },
    {
      "inputs": [
        {
          "internalType": "uint256",
          "name": "tokenId",
          "type": "uint256"
        }
      ],
      "name": "ownerOf",
      "outputs": [
        {
          "internalType": "address",
          "name": "",
          "type": "address"
        }
      ],
      "stateMutability": "view",
      "type": "function"
    },
    {
      "inputs": [
        {
          "internalType": "address",
          "name": "from",
          "type": "address"
        },
        {
          "internalType": "address",
          "name": "to",
          "type": "address"
        },
        {
          "internalType": "uint256",
          "name": "tokenId",
          "type": "uint256"
        }
      ],
      "name": "safeTransferFrom",
      "outputs": [],
      "stateMutability": "nonpayable",
      "type": "function"
    },
    {
      "inputs": [
        {
          "internalType": "address",
          "name": "from",
          "type": "address"
        },
        {
          "internalType": "address",
          "name": "to",
          "type": "address"
        },
        {
          "internalType": "uint256",
          "name": "tokenId",
          "type": "uint256"
        },
        {
          "internalType": "bytes",
          "name": "_data",
          "type": "bytes"
        }
      ],
      "name": "safeTransferFrom",
      "outputs": [],
      "stateMutability": "nonpayable",
      "type": "function"
    },
    {
      "inputs": [
        {
          "internalType": "address",
          "name": "operator",
          "type": "address"
        },
        {
          "internalType": "bool",
          "name": "approved",
          "type": "bool"
        }
      ],
      "name": "setApprovalForAll",
      "outputs": [],
      "stateMutability": "nonpayable",
      "type": "function"
    },
    {
      "inputs": [
        {
          "internalType": "bytes4",
          "name": "interfaceId",
          "type": "bytes4"
        }
      ],
      "name": "supportsInterface",
      "outputs": [
        {
          "internalType": "bool",
          "name": "",
          "type": "bool"
        }
      ],
      "stateMutability": "view",
      "type": "function"
    },
    {
      "inputs": [],
      "name": "symbol",
      "outputs": [
        {
          "internalType": "string",
          "name": "",
          "type": "string"
        }
      ],
      "stateMutability": "view",
      "type": "function"
    },
    {
      "inputs": [
        {
          "internalType": "uint256",
          "name": "index",
          "type": "uint256"
        }
      ],
      "name": "tokenByIndex",
      "outputs": [
        {
          "internalType": "uint256",
          "name": "",
          "type": "uint256"
        }
      ],
      "stateMutability": "view",
      "type": "function"
    },
    {
      "inputs": [
        {
          "internalType": "address",
          "name": "owner",
          "type": "address"
        },
        {
          "internalType": "uint256",
          "name": "index",
          "type": "uint256"
        }
      ],
      "name": "tokenOfOwnerByIndex",
      "outputs": [
        {
          "internalType": "uint256",
          "name": "",
          "type": "uint256"
        }
      ],
      "stateMutability": "view",
      "type": "function"
    },
    {
      "inputs": [
        {
          "internalType": "uint256",
          "name": "tokenId",
          "type": "uint256"
        }
      ],
      "name": "tokenURI",
      "outputs": [
        {
          "internalType": "string",
          "name": "",
          "type": "string"
        }
      ],
      "stateMutability": "view",
      "type": "function"
    },
    {
      "inputs": [],
      "name": "totalSupply",
      "outputs": [
        {
          "internalType": "uint256",
          "name": "",
          "type": "uint256"
        }
      ],
      "stateMutability": "view",
      "type": "function"
    },
    {
      "inputs": [
        {
          "internalType": "address",
          "name": "from",
          "type": "address"
        },
        {
          "internalType": "address",
          "name": "to",
          "type": "address"
        },
        {
          "internalType": "uint256",
          "name": "tokenId",
          "type": "uint256"
        }
      ],
      "name": "transferFrom",
      "outputs": [],
      "stateMutability": "nonpayable",
      "type": "function"
    }
  ],
  "bytecode": "0x60806040523480156200001157600080fd5b50604051620033a3380380620033a3833981810160405281019062000037919062000219565b6040518060400160405280600581526020017f64756d6d790000000000000000000000000000000000000000000000000000008152506040518060400160405280600281526020017f444d0000000000000000000000000000000000000000000000000000000000008152508160009080519060200190620000bb929190620000f7565b508060019080519060200190620000d4929190620000f7565b50505080600a9080519060200190620000ef929190620000f7565b5050620003ce565b8280546200010590620002f3565b90600052602060002090601f01602090048101928262000129576000855562000175565b82601f106200014457805160ff191683800117855562000175565b8280016001018555821562000175579182015b828111156200017457825182559160200191906001019062000157565b5b50905062000184919062000188565b5090565b5b80821115620001a357600081600090555060010162000189565b5090565b6000620001be620001b88462000287565b6200025e565b905082815260208101848484011115620001d757600080fd5b620001e4848285620002bd565b509392505050565b600082601f830112620001fe57600080fd5b815162000210848260208601620001a7565b91505092915050565b6000602082840312156200022c57600080fd5b600082015167ffffffffffffffff8111156200024757600080fd5b6200025584828501620001ec565b91505092915050565b60006200026a6200027d565b905062000278828262000329565b919050565b6000604051905090565b600067ffffffffffffffff821115620002a557620002a46200038e565b5b620002b082620003bd565b9050602081019050919050565b60005b83811015620002dd578082015181840152602081019050620002c0565b83811115620002ed576000848401525b50505050565b600060028204905060018216806200030c57607f821691505b602082108114156200032357620003226200035f565b5b50919050565b6200033482620003bd565b810181811067ffffffffffffffff821117156200035657620003556200038e565b5b80604052505050565b7f4e487b7100000000000000000000000000000000000000000000000000000000600052602260045260246000fd5b7f4e487b7100000000000000000000000000000000000000000000000000000000600052604160045260246000fd5b6000601f19601f8301169050919050565b612fc580620003de6000396000f3fe608060405234801561001057600080fd5b50600436106101165760003560e01c80636352211e116100a2578063a0712d6811610071578063a0712d6814610307578063a22cb46514610323578063b88d4fde1461033f578063c87b56dd1461035b578063e985e9c51461038b57610116565b80636352211e1461026b5780636c0360eb1461029b57806370a08231146102b957806395d89b41146102e957610116565b806318160ddd116100e957806318160ddd146101b557806323b872dd146101d35780632f745c59146101ef57806342842e0e1461021f5780634f6ccce71461023b57610116565b806301ffc9a71461011b57806306fdde031461014b578063081812fc14610169578063095ea7b314610199575b600080fd5b61013560048036038101906101309190612135565b6103bb565b6040516101429190612518565b60405180910390f35b610153610435565b6040516101609190612533565b60405180910390f35b610183600480360381019061017e9190612187565b6104c7565b60405161019091906124b1565b60405180910390f35b6101b360048036038101906101ae91906120f9565b61054c565b005b6101bd610664565b6040516101ca9190612735565b60405180910390f35b6101ed60048036038101906101e89190611ff3565b610671565b005b610209600480360381019061020491906120f9565b6106d1565b6040516102169190612735565b60405180910390f35b61023960048036038101906102349190611ff3565b610776565b005b61025560048036038101906102509190612187565b610796565b6040516102629190612735565b60405180910390f35b61028560048036038101906102809190612187565b61082d565b60405161029291906124b1565b60405180910390f35b6102a36108df565b6040516102b09190612533565b60405180910390f35b6102d360048036038101906102ce9190611f8e565b61096d565b6040516102e09190612735565b60405180910390f35b6102f1610a25565b6040516102fe9190612533565b60405180910390f35b610321600480360381019061031c9190612187565b610ab7565b005b61033d600480360381019061033891906120bd565b610af8565b005b61035960048036038101906103549190612042565b610b0e565b005b61037560048036038101906103709190612187565b610b70565b6040516103829190612533565b60405180910390f35b6103a560048036038101906103a09190611fb7565b610c52565b6040516103b29190612518565b60405180910390f35b60007f780e9d63000000000000000000000000000000000000000000000000000000007bffffffffffffffffffffffffffffffffffffffffffffffffffffffff1916827bffffffffffffffffffffffffffffffffffffffffffffffffffffffff1916148061042e575061042d82610ce6565b5b9050919050565b6060600080546104449061295a565b80601f01602080910402602001604051908101604052809291908181526020018280546104709061295a565b80156104bd5780601f10610492576101008083540402835291602001916104bd565b820191906000526020600020905b8154815290600101906020018083116104a057829003601f168201915b5050505050905090565b60006104d282610dc8565b610511576040517f08c379a0000000000000000000000000000000000000000000000000000000008152600401610508906126b5565b60405180910390fd5b6004600083815260200190815260200160002060009054906101000a900473ffffffffffffffffffffffffffffffffffffffff169050919050565b60006105578261082d565b90508073ffffffffffffffffffffffffffffffffffffffff168373ffffffffffffffffffffffffffffffffffffffff1614156105c8576040517f08c379a00000000000000000000000000000000000000000000000000000000081526004016105bf906126d5565b60405180910390fd5b8073ffffffffffffffffffffffffffffffffffffffff166105e7610e34565b73ffffffffffffffffffffffffffffffffffffffff161480610616575061061581610610610e34565b610c52565b5b610655576040517f08c379a000000000000000000000000000000000000000000000000000000000815260040161064c90612635565b60405180910390fd5b61065f8383610e3c565b505050565b6000600880549050905090565b61068261067c610e34565b82610ef5565b6106c1576040517f08c379a00000000000000000000000000000000000000000000000000000000081526004016106b8906126f5565b60405180910390fd5b6106cc838383610fd3565b505050565b60006106dc8361096d565b821061071d576040517f08c379a000000000000000000000000000000000000000000000000000000000815260040161071490612555565b60405180910390fd5b600660008473ffffffffffffffffffffffffffffffffffffffff1673ffffffffffffffffffffffffffffffffffffffff168152602001908152602001600020600083815260200190815260200160002054905092915050565b61079183838360405180602001604052806000815250610b0e565b505050565b60006107a0610664565b82106107e1576040517f08c379a00000000000000000000000000000000000000000000000000000000081526004016107d890612715565b60405180910390fd5b6008828154811061081b577f4e487b7100000000000000000000000000000000000000000000000000000000600052603260045260246000fd5b90600052602060002001549050919050565b6000806002600084815260200190815260200160002060009054906101000a900473ffffffffffffffffffffffffffffffffffffffff169050600073ffffffffffffffffffffffffffffffffffffffff168173ffffffffffffffffffffffffffffffffffffffff1614156108d6576040517f08c379a00000000000000000000000000000000000000000000000000000000081526004016108cd90612675565b60405180910390fd5b80915050919050565b600a80546108ec9061295a565b80601f01602080910402602001604051908101604052809291908181526020018280546109189061295a565b80156109655780601f1061093a57610100808354040283529160200191610965565b820191906000526020600020905b81548152906001019060200180831161094857829003601f168201915b505050505081565b60008073ffffffffffffffffffffffffffffffffffffffff168273ffffffffffffffffffffffffffffffffffffffff1614156109de576040517f08c379a00000000000000000000000000000000000000000000000000000000081526004016109d590612655565b60405180910390fd5b600360008373ffffffffffffffffffffffffffffffffffffffff1673ffffffffffffffffffffffffffffffffffffffff168152602001908152602001600020549050919050565b606060018054610a349061295a565b80601f0160208091040260200160405190810160405280929190818152602001828054610a609061295a565b8015610aad5780601f10610a8257610100808354040283529160200191610aad565b820191906000526020600020905b815481529060010190602001808311610a9057829003601f168201915b5050505050905090565b6000600190505b818111610af457610ae13382610ad2610664565b610adc91906127e9565b61123a565b8080610aec906129bd565b915050610abe565b5050565b610b0a610b03610e34565b8383611258565b5050565b610b1f610b19610e34565b83610ef5565b610b5e576040517f08c379a0000000000000000000000000000000000000000000000000000000008152600401610b55906126f5565b60405180910390fd5b610b6a848484846113c5565b50505050565b60606000600a8054610b819061295a565b80601f0160208091040260200160405190810160405280929190818152602001828054610bad9061295a565b8015610bfa5780601f10610bcf57610100808354040283529160200191610bfa565b820191906000526020600020905b815481529060010190602001808311610bdd57829003601f168201915b505050505090506000815111610c1f5760405180602001604052806000815250610c4a565b80610c2984611421565b604051602001610c3a92919061248d565b6040516020818303038152906040525b915050919050565b6000600560008473ffffffffffffffffffffffffffffffffffffffff1673ffffffffffffffffffffffffffffffffffffffff16815260200190815260200160002060008373ffffffffffffffffffffffffffffffffffffffff1673ffffffffffffffffffffffffffffffffffffffff16815260200190815260200160002060009054906101000a900460ff16905092915050565b60007f80ac58cd000000000000000000000000000000000000000000000000000000007bffffffffffffffffffffffffffffffffffffffffffffffffffffffff1916827bffffffffffffffffffffffffffffffffffffffffffffffffffffffff19161480610db157507f5b5e139f000000000000000000000000000000000000000000000000000000007bffffffffffffffffffffffffffffffffffffffffffffffffffffffff1916827bffffffffffffffffffffffffffffffffffffffffffffffffffffffff1916145b80610dc15750610dc0826115ce565b5b9050919050565b60008073ffffffffffffffffffffffffffffffffffffffff166002600084815260200190815260200160002060009054906101000a900473ffffffffffffffffffffffffffffffffffffffff1673ffffffffffffffffffffffffffffffffffffffff1614159050919050565b600033905090565b816004600083815260200190815260200160002060006101000a81548173ffffffffffffffffffffffffffffffffffffffff021916908373ffffffffffffffffffffffffffffffffffffffff160217905550808273ffffffffffffffffffffffffffffffffffffffff16610eaf8361082d565b73ffffffffffffffffffffffffffffffffffffffff167f8c5be1e5ebec7d5bd14f71427d1e84f3dd0314c0f7b2291e5b200ac8c7c3b92560405160405180910390a45050565b6000610f0082610dc8565b610f3f576040517f08c379a0000000000000000000000000000000000000000000000000000000008152600401610f3690612615565b60405180910390fd5b6000610f4a8361082d565b90508073ffffffffffffffffffffffffffffffffffffffff168473ffffffffffffffffffffffffffffffffffffffff161480610fb957508373ffffffffffffffffffffffffffffffffffffffff16610fa1846104c7565b73ffffffffffffffffffffffffffffffffffffffff16145b80610fca5750610fc98185610c52565b5b91505092915050565b8273ffffffffffffffffffffffffffffffffffffffff16610ff38261082d565b73ffffffffffffffffffffffffffffffffffffffff1614611049576040517f08c379a000000000000000000000000000000000000000000000000000000000815260040161104090612595565b60405180910390fd5b600073ffffffffffffffffffffffffffffffffffffffff168273ffffffffffffffffffffffffffffffffffffffff1614156110b9576040517f08c379a00000000000000000000000000000000000000000000000000000000081526004016110b0906125d5565b60405180910390fd5b6110c4838383611638565b6110cf600082610e3c565b6001600360008573ffffffffffffffffffffffffffffffffffffffff1673ffffffffffffffffffffffffffffffffffffffff168152602001908152602001600020600082825461111f9190612870565b925050819055506001600360008473ffffffffffffffffffffffffffffffffffffffff1673ffffffffffffffffffffffffffffffffffffffff168152602001908152602001600020600082825461117691906127e9565b92505081905550816002600083815260200190815260200160002060006101000a81548173ffffffffffffffffffffffffffffffffffffffff021916908373ffffffffffffffffffffffffffffffffffffffff160217905550808273ffffffffffffffffffffffffffffffffffffffff168473ffffffffffffffffffffffffffffffffffffffff167fddf252ad1be2c89b69c2b068fc378daa952ba7f163c4a11628f55a4df523b3ef60405160405180910390a461123583838361174c565b505050565b611254828260405180602001604052806000815250611751565b5050565b8173ffffffffffffffffffffffffffffffffffffffff168373ffffffffffffffffffffffffffffffffffffffff1614156112c7576040517f08c379a00000000000000000000000000000000000000000000000000000000081526004016112be906125f5565b60405180910390fd5b80600560008573ffffffffffffffffffffffffffffffffffffffff1673ffffffffffffffffffffffffffffffffffffffff16815260200190815260200160002060008473ffffffffffffffffffffffffffffffffffffffff1673ffffffffffffffffffffffffffffffffffffffff16815260200190815260200160002060006101000a81548160ff0219169083151502179055508173ffffffffffffffffffffffffffffffffffffffff168373ffffffffffffffffffffffffffffffffffffffff167f17307eab39ab6107e8899845ad3d59bd9653f200f220920489ca2b5937696c31836040516113b89190612518565b60405180910390a3505050565b6113d0848484610fd3565b6113dc848484846117ac565b61141b576040517f08c379a000000000000000000000000000000000000000000000000000000000815260040161141290612575565b60405180910390fd5b50505050565b60606000821415611469576040518060400160405280600181526020017f300000000000000000000000000000000000000000000000000000000000000081525090506115c9565b600082905060005b6000821461149b578080611484906129bd565b915050600a82611494919061283f565b9150611471565b60008167ffffffffffffffff8111156114dd577f4e487b7100000000000000000000000000000000000000000000000000000000600052604160045260246000fd5b6040519080825280601f01601f19166020018201604052801561150f5781602001600182028036833780820191505090505b5090505b600085146115c2576001826115289190612870565b9150600a856115379190612a06565b603061154391906127e9565b60f81b81838151811061157f577f4e487b7100000000000000000000000000000000000000000000000000000000600052603260045260246000fd5b60200101907effffffffffffffffffffffffffffffffffffffffffffffffffffffffffffff1916908160001a905350600a856115bb919061283f565b9450611513565b8093505050505b919050565b60007f01ffc9a7000000000000000000000000000000000000000000000000000000007bffffffffffffffffffffffffffffffffffffffffffffffffffffffff1916827bffffffffffffffffffffffffffffffffffffffffffffffffffffffff1916149050919050565b611643838383611943565b600073ffffffffffffffffffffffffffffffffffffffff168373ffffffffffffffffffffffffffffffffffffffff1614156116865761168181611948565b6116c5565b8173ffffffffffffffffffffffffffffffffffffffff168373ffffffffffffffffffffffffffffffffffffffff16146116c4576116c38382611991565b5b5b600073ffffffffffffffffffffffffffffffffffffffff168273ffffffffffffffffffffffffffffffffffffffff1614156117085761170381611afe565b611747565b8273ffffffffffffffffffffffffffffffffffffffff168273ffffffffffffffffffffffffffffffffffffffff1614611746576117458282611c41565b5b5b505050565b505050565b61175b8383611cc0565b61176860008484846117ac565b6117a7576040517f08c379a000000000000000000000000000000000000000000000000000000000815260040161179e90612575565b60405180910390fd5b505050565b60006117cd8473ffffffffffffffffffffffffffffffffffffffff16611e9a565b15611936578373ffffffffffffffffffffffffffffffffffffffff1663150b7a026117f6610e34565b8786866040518563ffffffff1660e01b815260040161181894939291906124cc565b602060405180830381600087803b15801561183257600080fd5b505af192505050801561186357506040513d601f19601f82011682018060405250810190611860919061215e565b60015b6118e6573d8060008114611893576040519150601f19603f3d011682016040523d82523d6000602084013e611898565b606091505b506000815114156118de576040517f08c379a00000000000000000000000000000000000000000000000000000000081526004016118d590612575565b60405180910390fd5b805181602001fd5b63150b7a0260e01b7bffffffffffffffffffffffffffffffffffffffffffffffffffffffff1916817bffffffffffffffffffffffffffffffffffffffffffffffffffffffff19161491505061193b565b600190505b949350505050565b505050565b6008805490506009600083815260200190815260200160002081905550600881908060018154018082558091505060019003906000526020600020016000909190919091505550565b6000600161199e8461096d565b6119a89190612870565b9050600060076000848152602001908152602001600020549050818114611a8d576000600660008673ffffffffffffffffffffffffffffffffffffffff1673ffffffffffffffffffffffffffffffffffffffff168152602001908152602001600020600084815260200190815260200160002054905080600660008773ffffffffffffffffffffffffffffffffffffffff1673ffffffffffffffffffffffffffffffffffffffff168152602001908152602001600020600084815260200190815260200160002081905550816007600083815260200190815260200160002081905550505b6007600084815260200190815260200160002060009055600660008573ffffffffffffffffffffffffffffffffffffffff1673ffffffffffffffffffffffffffffffffffffffff16815260200190815260200160002060008381526020019081526020016000206000905550505050565b60006001600880549050611b129190612870565b9050600060096000848152602001908152602001600020549050600060088381548110611b68577f4e487b7100000000000000000000000000000000000000000000000000000000600052603260045260246000fd5b906000526020600020015490508060088381548110611bb0577f4e487b7100000000000000000000000000000000000000000000000000000000600052603260045260246000fd5b906000526020600020018190555081600960008381526020019081526020016000208190555060096000858152602001908152602001600020600090556008805480611c25577f4e487b7100000000000000000000000000000000000000000000000000000000600052603160045260246000fd5b6001900381819060005260206000200160009055905550505050565b6000611c4c8361096d565b905081600660008573ffffffffffffffffffffffffffffffffffffffff1673ffffffffffffffffffffffffffffffffffffffff168152602001908152602001600020600083815260200190815260200160002081905550806007600084815260200190815260200160002081905550505050565b600073ffffffffffffffffffffffffffffffffffffffff168273ffffffffffffffffffffffffffffffffffffffff161415611d30576040517f08c379a0000000000000000000000000000000000000000000000000000000008152600401611d2790612695565b60405180910390fd5b611d3981610dc8565b15611d79576040517f08c379a0000000000000000000000000000000000000000000000000000000008152600401611d70906125b5565b60405180910390fd5b611d8560008383611638565b6001600360008473ffffffffffffffffffffffffffffffffffffffff1673ffffffffffffffffffffffffffffffffffffffff1681526020019081526020016000206000828254611dd591906127e9565b92505081905550816002600083815260200190815260200160002060006101000a81548173ffffffffffffffffffffffffffffffffffffffff021916908373ffffffffffffffffffffffffffffffffffffffff160217905550808273ffffffffffffffffffffffffffffffffffffffff16600073ffffffffffffffffffffffffffffffffffffffff167fddf252ad1be2c89b69c2b068fc378daa952ba7f163c4a11628f55a4df523b3ef60405160405180910390a4611e966000838361174c565b5050565b6000808273ffffffffffffffffffffffffffffffffffffffff163b119050919050565b6000611ed0611ecb84612775565b612750565b905082815260208101848484011115611ee857600080fd5b611ef3848285612918565b509392505050565b600081359050611f0a81612f33565b92915050565b600081359050611f1f81612f4a565b92915050565b600081359050611f3481612f61565b92915050565b600081519050611f4981612f61565b92915050565b600082601f830112611f6057600080fd5b8135611f70848260208601611ebd565b91505092915050565b600081359050611f8881612f78565b92915050565b600060208284031215611fa057600080fd5b6000611fae84828501611efb565b91505092915050565b60008060408385031215611fca57600080fd5b6000611fd885828601611efb565b9250506020611fe985828601611efb565b9150509250929050565b60008060006060848603121561200857600080fd5b600061201686828701611efb565b935050602061202786828701611efb565b925050604061203886828701611f79565b9150509250925092565b6000806000806080858703121561205857600080fd5b600061206687828801611efb565b945050602061207787828801611efb565b935050604061208887828801611f79565b925050606085013567ffffffffffffffff8111156120a557600080fd5b6120b187828801611f4f565b91505092959194509250565b600080604083850312156120d057600080fd5b60006120de85828601611efb565b92505060206120ef85828601611f10565b9150509250929050565b6000806040838503121561210c57600080fd5b600061211a85828601611efb565b925050602061212b85828601611f79565b9150509250929050565b60006020828403121561214757600080fd5b600061215584828501611f25565b91505092915050565b60006020828403121561217057600080fd5b600061217e84828501611f3a565b91505092915050565b60006020828403121561219957600080fd5b60006121a784828501611f79565b91505092915050565b6121b9816128a4565b82525050565b6121c8816128b6565b82525050565b60006121d9826127a6565b6121e381856127bc565b93506121f3818560208601612927565b6121fc81612af3565b840191505092915050565b6000612212826127b1565b61221c81856127cd565b935061222c818560208601612927565b61223581612af3565b840191505092915050565b600061224b826127b1565b61225581856127de565b9350612265818560208601612927565b80840191505092915050565b600061227e602b836127cd565b915061228982612b04565b604082019050919050565b60006122a16032836127cd565b91506122ac82612b53565b604082019050919050565b60006122c46025836127cd565b91506122cf82612ba2565b604082019050919050565b60006122e7601c836127cd565b91506122f282612bf1565b602082019050919050565b600061230a6024836127cd565b915061231582612c1a565b604082019050919050565b600061232d6019836127cd565b915061233882612c69565b602082019050919050565b6000612350602c836127cd565b915061235b82612c92565b604082019050919050565b60006123736038836127cd565b915061237e82612ce1565b604082019050919050565b6000612396602a836127cd565b91506123a182612d30565b604082019050919050565b60006123b96029836127cd565b91506123c482612d7f565b604082019050919050565b60006123dc6020836127cd565b91506123e782612dce565b602082019050919050565b60006123ff602c836127cd565b915061240a82612df7565b604082019050919050565b60006124226021836127cd565b915061242d82612e46565b604082019050919050565b60006124456031836127cd565b915061245082612e95565b604082019050919050565b6000612468602c836127cd565b915061247382612ee4565b604082019050919050565b6124878161290e565b82525050565b60006124998285612240565b91506124a58284612240565b91508190509392505050565b60006020820190506124c660008301846121b0565b92915050565b60006080820190506124e160008301876121b0565b6124ee60208301866121b0565b6124fb604083018561247e565b818103606083015261250d81846121ce565b905095945050505050565b600060208201905061252d60008301846121bf565b92915050565b6000602082019050818103600083015261254d8184612207565b905092915050565b6000602082019050818103600083015261256e81612271565b9050919050565b6000602082019050818103600083015261258e81612294565b9050919050565b600060208201905081810360008301526125ae816122b7565b9050919050565b600060208201905081810360008301526125ce816122da565b9050919050565b600060208201905081810360008301526125ee816122fd565b9050919050565b6000602082019050818103600083015261260e81612320565b9050919050565b6000602082019050818103600083015261262e81612343565b9050919050565b6000602082019050818103600083015261264e81612366565b9050919050565b6000602082019050818103600083015261266e81612389565b9050919050565b6000602082019050818103600083015261268e816123ac565b9050919050565b600060208201905081810360008301526126ae816123cf565b9050919050565b600060208201905081810360008301526126ce816123f2565b9050919050565b600060208201905081810360008301526126ee81612415565b9050919050565b6000602082019050818103600083015261270e81612438565b9050919050565b6000602082019050818103600083015261272e8161245b565b9050919050565b600060208201905061274a600083018461247e565b92915050565b600061275a61276b565b9050612766828261298c565b919050565b6000604051905090565b600067ffffffffffffffff8211156127905761278f612ac4565b5b61279982612af3565b9050602081019050919050565b600081519050919050565b600081519050919050565b600082825260208201905092915050565b600082825260208201905092915050565b600081905092915050565b60006127f48261290e565b91506127ff8361290e565b9250827fffffffffffffffffffffffffffffffffffffffffffffffffffffffffffffffff0382111561283457612833612a37565b5b828201905092915050565b600061284a8261290e565b91506128558361290e565b92508261286557612864612a66565b5b828204905092915050565b600061287b8261290e565b91506128868361290e565b92508282101561289957612898612a37565b5b828203905092915050565b60006128af826128ee565b9050919050565b60008115159050919050565b60007fffffffff0000000000000000000000000000000000000000000000000000000082169050919050565b600073ffffffffffffffffffffffffffffffffffffffff82169050919050565b6000819050919050565b82818337600083830152505050565b60005b8381101561294557808201518184015260208101905061292a565b83811115612954576000848401525b50505050565b6000600282049050600182168061297257607f821691505b6020821081141561298657612985612a95565b5b50919050565b61299582612af3565b810181811067ffffffffffffffff821117156129b4576129b3612ac4565b5b80604052505050565b60006129c88261290e565b91507fffffffffffffffffffffffffffffffffffffffffffffffffffffffffffffffff8214156129fb576129fa612a37565b5b600182019050919050565b6000612a118261290e565b9150612a1c8361290e565b925082612a2c57612a2b612a66565b5b828206905092915050565b7f4e487b7100000000000000000000000000000000000000000000000000000000600052601160045260246000fd5b7f4e487b7100000000000000000000000000000000000000000000000000000000600052601260045260246000fd5b7f4e487b7100000000000000000000000000000000000000000000000000000000600052602260045260246000fd5b7f4e487b7100000000000000000000000000000000000000000000000000000000600052604160045260246000fd5b6000601f19601f8301169050919050565b7f455243373231456e756d657261626c653a206f776e657220696e646578206f7560008201527f74206f6620626f756e6473000000000000000000000000000000000000000000602082015250565b7f4552433732313a207472616e7366657220746f206e6f6e20455243373231526560008201527f63656976657220696d706c656d656e7465720000000000000000000000000000602082015250565b7f4552433732313a207472616e736665722066726f6d20696e636f72726563742060008201527f6f776e6572000000000000000000000000000000000000000000000000000000602082015250565b7f4552433732313a20746f6b656e20616c7265616479206d696e74656400000000600082015250565b7f4552433732313a207472616e7366657220746f20746865207a65726f2061646460008201527f7265737300000000000000000000000000000000000000000000000000000000602082015250565b7f4552433732313a20617070726f766520746f2063616c6c657200000000000000600082015250565b7f4552433732313a206f70657261746f7220717565727920666f72206e6f6e657860008201527f697374656e7420746f6b656e0000000000000000000000000000000000000000602082015250565b7f4552433732313a20617070726f76652063616c6c6572206973206e6f74206f7760008201527f6e6572206e6f7220617070726f76656420666f7220616c6c0000000000000000602082015250565b7f4552433732313a2062616c616e636520717565727920666f7220746865207a6560008201527f726f206164647265737300000000000000000000000000000000000000000000602082015250565b7f4552433732313a206f776e657220717565727920666f72206e6f6e657869737460008201527f656e7420746f6b656e0000000000000000000000000000000000000000000000602082015250565b7f4552433732313a206d696e7420746f20746865207a65726f2061646472657373600082015250565b7f4552433732313a20617070726f76656420717565727920666f72206e6f6e657860008201527f697374656e7420746f6b656e0000000000000000000000000000000000000000602082015250565b7f4552433732313a20617070726f76616c20746f2063757272656e74206f776e6560008201527f7200000000000000000000000000000000000000000000000000000000000000602082015250565b7f4552433732313a207472616e736665722063616c6c6572206973206e6f74206f60008201527f776e6572206e6f7220617070726f766564000000000000000000000000000000602082015250565b7f455243373231456e756d657261626c653a20676c6f62616c20696e646578206f60008201527f7574206f6620626f756e64730000000000000000000000000000000000000000602082015250565b612f3c816128a4565b8114612f4757600080fd5b50565b612f53816128b6565b8114612f5e57600080fd5b50565b612f6a816128c2565b8114612f7557600080fd5b50565b612f818161290e565b8114612f8c57600080fd5b5056fea26469706673582212203827e9d6f95d736d510e42a6ea6cb1d25f61bc933f27c8076152396aa418e66d64736f6c63430008040033",
  "linkReferences": {},
  "deployedLinkReferences": {}
}