{
  "_format": "hh-sol-artifact-1",
  "contractName": "ListsController",
  "sourceName": "contracts/helper/ListsController.sol",
  "abi": [
    {
      "inputs": [
        {
          "internalType": "contract AdminController",
          "name": "_adminController",
          "type": "address"
        }
      ],
      "stateMutability": "nonpayable",
      "type": "constructor"
    },
    {
      "anonymous": false,
      "inputs": [
        {
          "indexed": true,
          "internalType": "address",
          "name": "previousOwner",
          "type": "address"
        },
        {
          "indexed": true,
          "internalType": "address",
          "name": "newOwner",
          "type": "address"
        }
      ],
      "name": "OwnershipTransferred",
      "type": "event"
    },
    {
      "inputs": [
        {
          "internalType": "address",
          "name": "_controller",
          "type": "address"
        }
      ],
      "name": "addController",
      "outputs": [],
      "stateMutability": "nonpayable",
      "type": "function"
    },
    {
      "inputs": [
        {
          "internalType": "address",
          "name": "",
          "type": "address"
        }
      ],
      "name": "adminControllers",
      "outputs": [
        {
          "internalType": "bool",
          "name": "",
          "type": "bool"
        }
      ],
      "stateMutability": "view",
      "type": "function"
    },
    {
      "inputs": [
        {
          "internalType": "uint256",
          "name": "_domainID",
          "type": "uint256"
        },
        {
          "internalType": "uint256",
          "name": "_chalength",
          "type": "uint256"
        }
      ],
      "name": "getDiscountPrice",
      "outputs": [
        {
          "internalType": "uint256",
          "name": "",
          "type": "uint256"
        }
      ],
      "stateMutability": "view",
      "type": "function"
    },
    {
      "inputs": [
        {
          "internalType": "uint256",
          "name": "_domainID",
          "type": "uint256"
        },
        {
          "internalType": "uint256",
          "name": "_chalength",
          "type": "uint256"
        }
      ],
      "name": "getDomainPrice",
      "outputs": [
        {
          "internalType": "uint256",
          "name": "",
          "type": "uint256"
        }
      ],
      "stateMutability": "view",
      "type": "function"
    },
    {
      "inputs": [],
      "name": "owner",
      "outputs": [
        {
          "internalType": "address",
          "name": "",
          "type": "address"
        }
      ],
      "stateMutability": "view",
      "type": "function"
    },
    {
      "inputs": [
        {
          "internalType": "address",
          "name": "_controller",
          "type": "address"
        }
      ],
      "name": "removeController",
      "outputs": [],
      "stateMutability": "nonpayable",
      "type": "function"
    },
    {
      "inputs": [],
      "name": "renounceOwnership",
      "outputs": [],
      "stateMutability": "nonpayable",
      "type": "function"
    },
    {
      "inputs": [
        {
          "internalType": "address[]",
          "name": "_users",
          "type": "address[]"
        }
      ],
      "name": "setDiscountAddresses",
      "outputs": [],
      "stateMutability": "nonpayable",
      "type": "function"
    },
    {
      "inputs": [
        {
          "internalType": "uint256",
          "name": "_domainID",
          "type": "uint256"
        },
        {
          "internalType": "uint256[]",
          "name": "_chalength",
          "type": "uint256[]"
        },
        {
          "internalType": "uint256[]",
          "name": "_prices",
          "type": "uint256[]"
        }
      ],
      "name": "setDiscountPrice",
      "outputs": [],
      "stateMutability": "nonpayable",
      "type": "function"
    },
    {
      "inputs": [
        {
          "internalType": "uint256",
          "name": "_domainID",
          "type": "uint256"
        },
        {
          "internalType": "uint256[]",
          "name": "_chalength",
          "type": "uint256[]"
        },
        {
          "internalType": "uint256[]",
          "name": "_prices",
          "type": "uint256[]"
        }
      ],
      "name": "setDomainPrice",
      "outputs": [],
      "stateMutability": "nonpayable",
      "type": "function"
    },
    {
      "inputs": [
        {
          "internalType": "address[]",
          "name": "_users",
          "type": "address[]"
        }
      ],
      "name": "setFreeMintAddresses",
      "outputs": [],
      "stateMutability": "nonpayable",
      "type": "function"
    },
    {
      "inputs": [
        {
          "internalType": "address",
          "name": "newOwner",
          "type": "address"
        }
      ],
      "name": "transferOwnership",
      "outputs": [],
      "stateMutability": "nonpayable",
      "type": "function"
    },
    {
      "inputs": [
        {
          "internalType": "address",
          "name": "_user",
          "type": "address"
        }
      ],
      "name": "unsetDiscountAddresses",
      "outputs": [],
      "stateMutability": "nonpayable",
      "type": "function"
    },
    {
      "inputs": [
        {
          "internalType": "address",
          "name": "_user",
          "type": "address"
        }
      ],
      "name": "unsetFreeMintAddresses",
      "outputs": [],
      "stateMutability": "nonpayable",
      "type": "function"
    },
    {
      "inputs": [
        {
          "internalType": "address",
          "name": "_discountAddress",
          "type": "address"
        }
      ],
      "name": "verifyUserDiscount",
      "outputs": [
        {
          "internalType": "bool",
          "name": "",
          "type": "bool"
        }
      ],
      "stateMutability": "view",
      "type": "function"
    },
    {
      "inputs": [
        {
          "internalType": "address",
          "name": "_freeMintAddress",
          "type": "address"
        }
      ],
      "name": "verifyUserFreeMint",
      "outputs": [
        {
          "internalType": "bool",
          "name": "",
          "type": "bool"
        }
      ],
      "stateMutability": "view",
      "type": "function"
    }
  ],
  "bytecode": "0x60806040523480156200001157600080fd5b5060405162001d4c38038062001d4c8339818101604052810190620000379190620002e3565b620000576200004b620000c160201b60201c565b620000c960201b60201c565b62000068336200018d60201b60201c565b62000079336200018d60201b60201c565b80600260006101000a81548173ffffffffffffffffffffffffffffffffffffffff021916908373ffffffffffffffffffffffffffffffffffffffff160217905550506200048c565b600033905090565b60008060009054906101000a900473ffffffffffffffffffffffffffffffffffffffff169050816000806101000a81548173ffffffffffffffffffffffffffffffffffffffff021916908373ffffffffffffffffffffffffffffffffffffffff1602179055508173ffffffffffffffffffffffffffffffffffffffff168173ffffffffffffffffffffffffffffffffffffffff167f8be0079c531659141344cd1fd0a4f28419497f9722a3daafe3b4186f6b6457e060405160405180910390a35050565b6200019d620000c160201b60201c565b73ffffffffffffffffffffffffffffffffffffffff16620001c3620002a360201b60201c565b73ffffffffffffffffffffffffffffffffffffffff16146200021c576040517f08c379a000000000000000000000000000000000000000000000000000000000815260040162000213906200037f565b60405180910390fd5b600073ffffffffffffffffffffffffffffffffffffffff168173ffffffffffffffffffffffffffffffffffffffff1614156200028f576040517f08c379a000000000000000000000000000000000000000000000000000000000815260040162000286906200035d565b60405180910390fd5b620002a081620000c960201b60201c565b50565b60008060009054906101000a900473ffffffffffffffffffffffffffffffffffffffff16905090565b600081519050620002dd8162000472565b92915050565b600060208284031215620002f657600080fd5b60006200030684828501620002cc565b91505092915050565b60006200031e602683620003a1565b91506200032b82620003fa565b604082019050919050565b600062000345602083620003a1565b9150620003528262000449565b602082019050919050565b6000602082019050818103600083015262000378816200030f565b9050919050565b600060208201905081810360008301526200039a8162000336565b9050919050565b600082825260208201905092915050565b6000620003bf82620003da565b9050919050565b6000620003d382620003b2565b9050919050565b600073ffffffffffffffffffffffffffffffffffffffff82169050919050565b7f4f776e61626c653a206e6577206f776e657220697320746865207a65726f206160008201527f6464726573730000000000000000000000000000000000000000000000000000602082015250565b7f4f776e61626c653a2063616c6c6572206973206e6f7420746865206f776e6572600082015250565b6200047d81620003c6565b81146200048957600080fd5b50565b6118b0806200049c6000396000f3fe608060405234801561001057600080fd5b50600436106101005760003560e01c80638da5cb5b11610097578063b975d00311610066578063b975d003146102a9578063ddfe2766146102c5578063f2fde38b146102e1578063f6a74ed7146102fd57610100565b80638da5cb5b1461022357806398632ad214610241578063a7fc7a0714610271578063a8bfd2e61461028d57610100565b80635bcebb31116100d35780635bcebb311461019d5780635ee2d5b6146101b9578063620ec7ab146101e9578063715018a61461021957610100565b806309f19ebc1461010557806310063bac146101215780632e8dad9f14610151578063337f51a61461016d575b600080fd5b61011f600480360381019061011a9190611288565b610319565b005b61013b60048036038101906101369190611288565b6104ea565b60405161014891906114aa565b60405180910390f35b61016b600480360381019061016691906112b1565b61050a565b005b6101876004803603810190610182919061139a565b610641565b6040516101949190611545565b60405180910390f35b6101b760048036038101906101b29190611288565b610675565b005b6101d360048036038101906101ce919061139a565b610846565b6040516101e09190611545565b60405180910390f35b61020360048036038101906101fe9190611288565b61087a565b60405161021091906114aa565b60405180910390f35b6102216108d5565b005b61022b61095d565b604051610238919061148f565b60405180910390f35b61025b60048036038101906102569190611288565b610986565b60405161026891906114aa565b60405180910390f35b61028b60048036038101906102869190611288565b6109e1565b005b6102a760048036038101906102a2919061131b565b610ab7565b005b6102c360048036038101906102be91906112b1565b610c01565b005b6102df60048036038101906102da919061131b565b610d38565b005b6102fb60048036038101906102f69190611288565b610e82565b005b61031760048036038101906103129190611288565b610f7a565b005b600260009054906101000a900473ffffffffffffffffffffffffffffffffffffffff1673ffffffffffffffffffffffffffffffffffffffff166310063bac336040518263ffffffff1660e01b8152600401610374919061148f565b60206040518083038186803b15801561038c57600080fd5b505afa1580156103a0573d6000803e3d6000fd5b505050506040513d601f19601f820116820180604052508101906103c491906112f2565b610403576040517f08c379a00000000000000000000000000000000000000000000000000000000081526004016103fa906114c5565b60405180910390fd5b600360008273ffffffffffffffffffffffffffffffffffffffff1673ffffffffffffffffffffffffffffffffffffffff16815260200190815260200160002060009054906101000a900460ff1661048f576040517f08c379a000000000000000000000000000000000000000000000000000000000815260040161048690611505565b60405180910390fd5b6000600360008373ffffffffffffffffffffffffffffffffffffffff1673ffffffffffffffffffffffffffffffffffffffff16815260200190815260200160002060006101000a81548160ff02191690831515021790555050565b60016020528060005260406000206000915054906101000a900460ff1681565b610512611051565b73ffffffffffffffffffffffffffffffffffffffff1661053061095d565b73ffffffffffffffffffffffffffffffffffffffff1614610586576040517f08c379a000000000000000000000000000000000000000000000000000000000815260040161057d90611525565b60405180910390fd5b60005b815181101561063d576001600460008484815181106105d1577f4e487b7100000000000000000000000000000000000000000000000000000000600052603260045260246000fd5b602002602001015173ffffffffffffffffffffffffffffffffffffffff1673ffffffffffffffffffffffffffffffffffffffff16815260200190815260200160002060006101000a81548160ff021916908315150217905550808061063590611667565b915050610589565b5050565b6000806005600085815260200190815260200160002060008481526020019081526020016000205490508091505092915050565b600260009054906101000a900473ffffffffffffffffffffffffffffffffffffffff1673ffffffffffffffffffffffffffffffffffffffff166310063bac336040518263ffffffff1660e01b81526004016106d0919061148f565b60206040518083038186803b1580156106e857600080fd5b505afa1580156106fc573d6000803e3d6000fd5b505050506040513d601f19601f8201168201806040525081019061072091906112f2565b61075f576040517f08c379a0000000000000000000000000000000000000000000000000000000008152600401610756906114c5565b60405180910390fd5b600460008273ffffffffffffffffffffffffffffffffffffffff1673ffffffffffffffffffffffffffffffffffffffff16815260200190815260200160002060009054906101000a900460ff166107eb576040517f08c379a00000000000000000000000000000000000000000000000000000000081526004016107e290611505565b60405180910390fd5b6000600460008373ffffffffffffffffffffffffffffffffffffffff1673ffffffffffffffffffffffffffffffffffffffff16815260200190815260200160002060006101000a81548160ff02191690831515021790555050565b6000806006600085815260200190815260200160002060008481526020019081526020016000205490508091505092915050565b600080600460008473ffffffffffffffffffffffffffffffffffffffff1673ffffffffffffffffffffffffffffffffffffffff16815260200190815260200160002060009054906101000a900460ff16905080915050919050565b6108dd611051565b73ffffffffffffffffffffffffffffffffffffffff166108fb61095d565b73ffffffffffffffffffffffffffffffffffffffff1614610951576040517f08c379a000000000000000000000000000000000000000000000000000000000815260040161094890611525565b60405180910390fd5b61095b6000611059565b565b60008060009054906101000a900473ffffffffffffffffffffffffffffffffffffffff16905090565b600080600360008473ffffffffffffffffffffffffffffffffffffffff1673ffffffffffffffffffffffffffffffffffffffff16815260200190815260200160002060009054906101000a900460ff16905080915050919050565b6109e9611051565b73ffffffffffffffffffffffffffffffffffffffff16610a0761095d565b73ffffffffffffffffffffffffffffffffffffffff1614610a5d576040517f08c379a0000000000000000000000000000000000000000000000000000000008152600401610a5490611525565b60405180910390fd5b60018060008373ffffffffffffffffffffffffffffffffffffffff1673ffffffffffffffffffffffffffffffffffffffff16815260200190815260200160002060006101000a81548160ff02191690831515021790555050565b610abf611051565b73ffffffffffffffffffffffffffffffffffffffff16610add61095d565b73ffffffffffffffffffffffffffffffffffffffff1614610b33576040517f08c379a0000000000000000000000000000000000000000000000000000000008152600401610b2a90611525565b60405180910390fd5b60005b8251811015610bfb57818181518110610b78577f4e487b7100000000000000000000000000000000000000000000000000000000600052603260045260246000fd5b6020026020010151600660008681526020019081526020016000206000858481518110610bce577f4e487b7100000000000000000000000000000000000000000000000000000000600052603260045260246000fd5b60200260200101518152602001908152602001600020819055508080610bf390611667565b915050610b36565b50505050565b610c09611051565b73ffffffffffffffffffffffffffffffffffffffff16610c2761095d565b73ffffffffffffffffffffffffffffffffffffffff1614610c7d576040517f08c379a0000000000000000000000000000000000000000000000000000000008152600401610c7490611525565b60405180910390fd5b60005b8151811015610d3457600160036000848481518110610cc8577f4e487b7100000000000000000000000000000000000000000000000000000000600052603260045260246000fd5b602002602001015173ffffffffffffffffffffffffffffffffffffffff1673ffffffffffffffffffffffffffffffffffffffff16815260200190815260200160002060006101000a81548160ff0219169083151502179055508080610d2c90611667565b915050610c80565b5050565b610d40611051565b73ffffffffffffffffffffffffffffffffffffffff16610d5e61095d565b73ffffffffffffffffffffffffffffffffffffffff1614610db4576040517f08c379a0000000000000000000000000000000000000000000000000000000008152600401610dab90611525565b60405180910390fd5b60005b8251811015610e7c57818181518110610df9577f4e487b7100000000000000000000000000000000000000000000000000000000600052603260045260246000fd5b6020026020010151600560008681526020019081526020016000206000858481518110610e4f577f4e487b7100000000000000000000000000000000000000000000000000000000600052603260045260246000fd5b60200260200101518152602001908152602001600020819055508080610e7490611667565b915050610db7565b50505050565b610e8a611051565b73ffffffffffffffffffffffffffffffffffffffff16610ea861095d565b73ffffffffffffffffffffffffffffffffffffffff1614610efe576040517f08c379a0000000000000000000000000000000000000000000000000000000008152600401610ef590611525565b60405180910390fd5b600073ffffffffffffffffffffffffffffffffffffffff168173ffffffffffffffffffffffffffffffffffffffff161415610f6e576040517f08c379a0000000000000000000000000000000000000000000000000000000008152600401610f65906114e5565b60405180910390fd5b610f7781611059565b50565b610f82611051565b73ffffffffffffffffffffffffffffffffffffffff16610fa061095d565b73ffffffffffffffffffffffffffffffffffffffff1614610ff6576040517f08c379a0000000000000000000000000000000000000000000000000000000008152600401610fed90611525565b60405180910390fd5b6000600160008373ffffffffffffffffffffffffffffffffffffffff1673ffffffffffffffffffffffffffffffffffffffff16815260200190815260200160002060006101000a81548160ff02191690831515021790555050565b600033905090565b60008060009054906101000a900473ffffffffffffffffffffffffffffffffffffffff169050816000806101000a81548173ffffffffffffffffffffffffffffffffffffffff021916908373ffffffffffffffffffffffffffffffffffffffff1602179055508173ffffffffffffffffffffffffffffffffffffffff168173ffffffffffffffffffffffffffffffffffffffff167f8be0079c531659141344cd1fd0a4f28419497f9722a3daafe3b4186f6b6457e060405160405180910390a35050565b600061113061112b84611585565b611560565b9050808382526020820190508285602086028201111561114f57600080fd5b60005b8581101561117f578161116588826111f5565b845260208401935060208301925050600181019050611152565b5050509392505050565b600061119c611197846115b1565b611560565b905080838252602082019050828560208602820111156111bb57600080fd5b60005b858110156111eb57816111d18882611273565b8452602084019350602083019250506001810190506111be565b5050509392505050565b60008135905061120481611835565b92915050565b600082601f83011261121b57600080fd5b813561122b84826020860161111d565b91505092915050565b600082601f83011261124557600080fd5b8135611255848260208601611189565b91505092915050565b60008151905061126d8161184c565b92915050565b60008135905061128281611863565b92915050565b60006020828403121561129a57600080fd5b60006112a8848285016111f5565b91505092915050565b6000602082840312156112c357600080fd5b600082013567ffffffffffffffff8111156112dd57600080fd5b6112e98482850161120a565b91505092915050565b60006020828403121561130457600080fd5b60006113128482850161125e565b91505092915050565b60008060006060848603121561133057600080fd5b600061133e86828701611273565b935050602084013567ffffffffffffffff81111561135b57600080fd5b61136786828701611234565b925050604084013567ffffffffffffffff81111561138457600080fd5b61139086828701611234565b9150509250925092565b600080604083850312156113ad57600080fd5b60006113bb85828601611273565b92505060206113cc85828601611273565b9150509250929050565b6113df816115ee565b82525050565b6113ee81611600565b82525050565b60006114016028836115dd565b915061140c8261171f565b604082019050919050565b60006114246026836115dd565b915061142f8261176e565b604082019050919050565b60006114476035836115dd565b9150611452826117bd565b604082019050919050565b600061146a6020836115dd565b91506114758261180c565b602082019050919050565b6114898161162c565b82525050565b60006020820190506114a460008301846113d6565b92915050565b60006020820190506114bf60008301846113e5565b92915050565b600060208201905081810360008301526114de816113f4565b9050919050565b600060208201905081810360008301526114fe81611417565b9050919050565b6000602082019050818103600083015261151e8161143a565b9050919050565b6000602082019050818103600083015261153e8161145d565b9050919050565b600060208201905061155a6000830184611480565b92915050565b600061156a61157b565b90506115768282611636565b919050565b6000604051905090565b600067ffffffffffffffff8211156115a05761159f6116df565b5b602082029050602081019050919050565b600067ffffffffffffffff8211156115cc576115cb6116df565b5b602082029050602081019050919050565b600082825260208201905092915050565b60006115f98261160c565b9050919050565b60008115159050919050565b600073ffffffffffffffffffffffffffffffffffffffff82169050919050565b6000819050919050565b61163f8261170e565b810181811067ffffffffffffffff8211171561165e5761165d6116df565b5b80604052505050565b60006116728261162c565b91507fffffffffffffffffffffffffffffffffffffffffffffffffffffffffffffffff8214156116a5576116a46116b0565b5b600182019050919050565b7f4e487b7100000000000000000000000000000000000000000000000000000000600052601160045260246000fd5b7f4e487b7100000000000000000000000000000000000000000000000000000000600052604160045260246000fd5b6000601f19601f8301169050919050565b7f4f4e53204e46545f5265736f6c7665723a20594f555f484156455f4e4f5f505260008201527f4f4d4f54494f4e53000000000000000000000000000000000000000000000000602082015250565b7f4f776e61626c653a206e6577206f776e657220697320746865207a65726f206160008201527f6464726573730000000000000000000000000000000000000000000000000000602082015250565b7f4f4e53204c69737473436f6e74726f6c6c65723a20544849535f41444452455360008201527f535f49535f4e4f545f494e5f544849535f4c4953540000000000000000000000602082015250565b7f4f776e61626c653a2063616c6c6572206973206e6f7420746865206f776e6572600082015250565b61183e816115ee565b811461184957600080fd5b50565b61185581611600565b811461186057600080fd5b50565b61186c8161162c565b811461187757600080fd5b5056fea26469706673582212208ebc31613c067ca21599588a6082eb0e401c056899187071a908d83ae51b8d4f64736f6c63430008040033",
  "linkReferences": {},
  "deployedLinkReferences": {}
}