{
  "_format": "hh-sol-artifact-1",
  "contractName": "TopLevelDomain",
  "sourceName": "contracts/helper/TopLevelDomain.sol",
  "abi": [
    {
      "inputs": [
        {
          "internalType": "string",
          "name": "domain",
          "type": "string"
        }
      ],
      "stateMutability": "nonpayable",
      "type": "constructor"
    },
    {
      "anonymous": false,
      "inputs": [
        {
          "indexed": false,
          "internalType": "string",
          "name": "name",
          "type": "string"
        },
        {
          "indexed": false,
          "internalType": "uint256",
          "name": "id",
          "type": "uint256"
        }
      ],
      "name": "AddedDomain",
      "type": "event"
    },
    {
      "anonymous": false,
      "inputs": [
        {
          "indexed": true,
          "internalType": "address",
          "name": "previousOwner",
          "type": "address"
        },
        {
          "indexed": true,
          "internalType": "address",
          "name": "newOwner",
          "type": "address"
        }
      ],
      "name": "OwnershipTransferred",
      "type": "event"
    },
    {
      "inputs": [
        {
          "internalType": "string",
          "name": "_name",
          "type": "string"
        }
      ],
      "name": "addDomain",
      "outputs": [],
      "stateMutability": "nonpayable",
      "type": "function"
    },
    {
      "inputs": [
        {
          "internalType": "uint256",
          "name": "",
          "type": "uint256"
        }
      ],
      "name": "domains",
      "outputs": [
        {
          "internalType": "string",
          "name": "domainName",
          "type": "string"
        },
        {
          "internalType": "uint256",
          "name": "domainID",
          "type": "uint256"
        }
      ],
      "stateMutability": "view",
      "type": "function"
    },
    {
      "inputs": [
        {
          "internalType": "uint256",
          "name": "_id",
          "type": "uint256"
        }
      ],
      "name": "getDomain",
      "outputs": [
        {
          "internalType": "string",
          "name": "",
          "type": "string"
        }
      ],
      "stateMutability": "view",
      "type": "function"
    },
    {
      "inputs": [],
      "name": "owner",
      "outputs": [
        {
          "internalType": "address",
          "name": "",
          "type": "address"
        }
      ],
      "stateMutability": "view",
      "type": "function"
    },
    {
      "inputs": [],
      "name": "renounceOwnership",
      "outputs": [],
      "stateMutability": "nonpayable",
      "type": "function"
    },
    {
      "inputs": [
        {
          "internalType": "address",
          "name": "newOwner",
          "type": "address"
        }
      ],
      "name": "transferOwnership",
      "outputs": [],
      "stateMutability": "nonpayable",
      "type": "function"
    }
  ],
  "bytecode": "0x60806040523480156200001157600080fd5b50604051620013b6380380620013b683398181016040528101906200003791906200040e565b620000576200004b620000e160201b60201c565b620000e960201b60201c565b6200006833620001ad60201b60201c565b60405180604001604052808281526020016002548152506001600060025481526020019081526020016000206000820151816000019080519060200190620000b2929190620002ec565b506020820151816001015590505060026000815480929190620000d59062000601565b91905055505062000765565b600033905090565b60008060009054906101000a900473ffffffffffffffffffffffffffffffffffffffff169050816000806101000a81548173ffffffffffffffffffffffffffffffffffffffff021916908373ffffffffffffffffffffffffffffffffffffffff1602179055508173ffffffffffffffffffffffffffffffffffffffff168173ffffffffffffffffffffffffffffffffffffffff167f8be0079c531659141344cd1fd0a4f28419497f9722a3daafe3b4186f6b6457e060405160405180910390a35050565b620001bd620000e160201b60201c565b73ffffffffffffffffffffffffffffffffffffffff16620001e3620002c360201b60201c565b73ffffffffffffffffffffffffffffffffffffffff16146200023c576040517f08c379a00000000000000000000000000000000000000000000000000000000081526004016200023390620004c3565b60405180910390fd5b600073ffffffffffffffffffffffffffffffffffffffff168173ffffffffffffffffffffffffffffffffffffffff161415620002af576040517f08c379a0000000000000000000000000000000000000000000000000000000008152600401620002a690620004a1565b60405180910390fd5b620002c081620000e960201b60201c565b50565b60008060009054906101000a900473ffffffffffffffffffffffffffffffffffffffff16905090565b828054620002fa9062000595565b90600052602060002090601f0160209004810192826200031e57600085556200036a565b82601f106200033957805160ff19168380011785556200036a565b828001600101855582156200036a579182015b82811115620003695782518255916020019190600101906200034c565b5b5090506200037991906200037d565b5090565b5b80821115620003985760008160009055506001016200037e565b5090565b6000620003b3620003ad846200050e565b620004e5565b905082815260208101848484011115620003cc57600080fd5b620003d98482856200055f565b509392505050565b600082601f830112620003f357600080fd5b8151620004058482602086016200039c565b91505092915050565b6000602082840312156200042157600080fd5b600082015167ffffffffffffffff8111156200043c57600080fd5b6200044a84828501620003e1565b91505092915050565b60006200046260268362000544565b91506200046f82620006ed565b604082019050919050565b60006200048960208362000544565b915062000496826200073c565b602082019050919050565b60006020820190508181036000830152620004bc8162000453565b9050919050565b60006020820190508181036000830152620004de816200047a565b9050919050565b6000620004f162000504565b9050620004ff8282620005cb565b919050565b6000604051905090565b600067ffffffffffffffff8211156200052c576200052b620006ad565b5b6200053782620006dc565b9050602081019050919050565b600082825260208201905092915050565b6000819050919050565b60005b838110156200057f57808201518184015260208101905062000562565b838111156200058f576000848401525b50505050565b60006002820490506001821680620005ae57607f821691505b60208210811415620005c557620005c46200067e565b5b50919050565b620005d682620006dc565b810181811067ffffffffffffffff82111715620005f857620005f7620006ad565b5b80604052505050565b60006200060e8262000555565b91507fffffffffffffffffffffffffffffffffffffffffffffffffffffffffffffffff8214156200064457620006436200064f565b5b600182019050919050565b7f4e487b7100000000000000000000000000000000000000000000000000000000600052601160045260246000fd5b7f4e487b7100000000000000000000000000000000000000000000000000000000600052602260045260246000fd5b7f4e487b7100000000000000000000000000000000000000000000000000000000600052604160045260246000fd5b6000601f19601f8301169050919050565b7f4f776e61626c653a206e6577206f776e657220697320746865207a65726f206160008201527f6464726573730000000000000000000000000000000000000000000000000000602082015250565b7f4f776e61626c653a2063616c6c6572206973206e6f7420746865206f776e6572600082015250565b610c4180620007756000396000f3fe608060405234801561001057600080fd5b50600436106100625760003560e01c80631a7a98e21461006757806344e2e74c1461009757806366cf8fab146100b3578063715018a6146100e45780638da5cb5b146100ee578063f2fde38b1461010c575b600080fd5b610081600480360381019061007c91906107b8565b610128565b60405161008e9190610899565b60405180910390f35b6100b160048036038101906100ac9190610777565b6101d0565b005b6100cd60048036038101906100c891906107b8565b6102f8565b6040516100db9291906108bb565b60405180910390f35b6100ec6103a4565b005b6100f661042c565b604051610103919061087e565b60405180910390f35b6101266004803603810190610121919061074e565b610455565b005b606060016000838152602001908152602001600020600001805461014b90610a1b565b80601f016020809104026020016040519081016040528092919081815260200182805461017790610a1b565b80156101c45780601f10610199576101008083540402835291602001916101c4565b820191906000526020600020905b8154815290600101906020018083116101a757829003601f168201915b50505050509050919050565b6101d861054d565b73ffffffffffffffffffffffffffffffffffffffff166101f661042c565b73ffffffffffffffffffffffffffffffffffffffff161461024c576040517f08c379a00000000000000000000000000000000000000000000000000000000081526004016102439061090b565b60405180910390fd5b60405180604001604052808281526020016002548152506001600060025481526020019081526020016000206000820151816000019080519060200190610294929190610619565b5060208201518160010155905050600260008154809291906102b590610a7e565b91905055507fce210f7ab27d589ecf7f068397efe8cb243360f4179c0816614f8449260a48af816002546040516102ed9291906108bb565b60405180910390a150565b600160205280600052604060002060009150905080600001805461031b90610a1b565b80601f016020809104026020016040519081016040528092919081815260200182805461034790610a1b565b80156103945780601f1061036957610100808354040283529160200191610394565b820191906000526020600020905b81548152906001019060200180831161037757829003601f168201915b5050505050908060010154905082565b6103ac61054d565b73ffffffffffffffffffffffffffffffffffffffff166103ca61042c565b73ffffffffffffffffffffffffffffffffffffffff1614610420576040517f08c379a00000000000000000000000000000000000000000000000000000000081526004016104179061090b565b60405180910390fd5b61042a6000610555565b565b60008060009054906101000a900473ffffffffffffffffffffffffffffffffffffffff16905090565b61045d61054d565b73ffffffffffffffffffffffffffffffffffffffff1661047b61042c565b73ffffffffffffffffffffffffffffffffffffffff16146104d1576040517f08c379a00000000000000000000000000000000000000000000000000000000081526004016104c89061090b565b60405180910390fd5b600073ffffffffffffffffffffffffffffffffffffffff168173ffffffffffffffffffffffffffffffffffffffff161415610541576040517f08c379a0000000000000000000000000000000000000000000000000000000008152600401610538906108eb565b60405180910390fd5b61054a81610555565b50565b600033905090565b60008060009054906101000a900473ffffffffffffffffffffffffffffffffffffffff169050816000806101000a81548173ffffffffffffffffffffffffffffffffffffffff021916908373ffffffffffffffffffffffffffffffffffffffff1602179055508173ffffffffffffffffffffffffffffffffffffffff168173ffffffffffffffffffffffffffffffffffffffff167f8be0079c531659141344cd1fd0a4f28419497f9722a3daafe3b4186f6b6457e060405160405180910390a35050565b82805461062590610a1b565b90600052602060002090601f016020900481019282610647576000855561068e565b82601f1061066057805160ff191683800117855561068e565b8280016001018555821561068e579182015b8281111561068d578251825591602001919060010190610672565b5b50905061069b919061069f565b5090565b5b808211156106b85760008160009055506001016106a0565b5090565b60006106cf6106ca84610950565b61092b565b9050828152602081018484840111156106e757600080fd5b6106f28482856109d9565b509392505050565b60008135905061070981610bdd565b92915050565b600082601f83011261072057600080fd5b81356107308482602086016106bc565b91505092915050565b60008135905061074881610bf4565b92915050565b60006020828403121561076057600080fd5b600061076e848285016106fa565b91505092915050565b60006020828403121561078957600080fd5b600082013567ffffffffffffffff8111156107a357600080fd5b6107af8482850161070f565b91505092915050565b6000602082840312156107ca57600080fd5b60006107d884828501610739565b91505092915050565b6107ea8161099d565b82525050565b60006107fb82610981565b610805818561098c565b93506108158185602086016109e8565b61081e81610b54565b840191505092915050565b600061083660268361098c565b915061084182610b65565b604082019050919050565b600061085960208361098c565b915061086482610bb4565b602082019050919050565b610878816109cf565b82525050565b600060208201905061089360008301846107e1565b92915050565b600060208201905081810360008301526108b381846107f0565b905092915050565b600060408201905081810360008301526108d581856107f0565b90506108e4602083018461086f565b9392505050565b6000602082019050818103600083015261090481610829565b9050919050565b600060208201905081810360008301526109248161084c565b9050919050565b6000610935610946565b90506109418282610a4d565b919050565b6000604051905090565b600067ffffffffffffffff82111561096b5761096a610b25565b5b61097482610b54565b9050602081019050919050565b600081519050919050565b600082825260208201905092915050565b60006109a8826109af565b9050919050565b600073ffffffffffffffffffffffffffffffffffffffff82169050919050565b6000819050919050565b82818337600083830152505050565b60005b83811015610a065780820151818401526020810190506109eb565b83811115610a15576000848401525b50505050565b60006002820490506001821680610a3357607f821691505b60208210811415610a4757610a46610af6565b5b50919050565b610a5682610b54565b810181811067ffffffffffffffff82111715610a7557610a74610b25565b5b80604052505050565b6000610a89826109cf565b91507fffffffffffffffffffffffffffffffffffffffffffffffffffffffffffffffff821415610abc57610abb610ac7565b5b600182019050919050565b7f4e487b7100000000000000000000000000000000000000000000000000000000600052601160045260246000fd5b7f4e487b7100000000000000000000000000000000000000000000000000000000600052602260045260246000fd5b7f4e487b7100000000000000000000000000000000000000000000000000000000600052604160045260246000fd5b6000601f19601f8301169050919050565b7f4f776e61626c653a206e6577206f776e657220697320746865207a65726f206160008201527f6464726573730000000000000000000000000000000000000000000000000000602082015250565b7f4f776e61626c653a2063616c6c6572206973206e6f7420746865206f776e6572600082015250565b610be68161099d565b8114610bf157600080fd5b50565b610bfd816109cf565b8114610c0857600080fd5b5056fea2646970667358221220dd9fa2dd7ec90bad7ef3dd55162b1926758a87d3341a887079ad41de2c71de0264736f6c63430008040033",
  "linkReferences": {},
  "deployedLinkReferences": {}
}