{
  "_format": "hh-sol-artifact-1",
  "contractName": "RegisterControllerV2",
  "sourceName": "contracts/RegisterControllerV2.sol",
  "abi": [
    {
      "inputs": [
        {
          "internalType": "contract ONSRegister",
          "name": "_ons",
          "type": "address"
        },
        {
          "internalType": "string",
          "name": "domain",
          "type": "string"
        }
      ],
      "stateMutability": "nonpayable",
      "type": "constructor"
    },
    {
      "anonymous": false,
      "inputs": [
        {
          "indexed": false,
          "internalType": "string",
          "name": "name",
          "type": "string"
        },
        {
          "indexed": false,
          "internalType": "uint256",
          "name": "id",
          "type": "uint256"
        }
      ],
      "name": "AddedDomain",
      "type": "event"
    },
    {
      "anonymous": false,
      "inputs": [
        {
          "indexed": false,
          "internalType": "string",
          "name": "name",
          "type": "string"
        },
        {
          "indexed": false,
          "internalType": "uint256",
          "name": "domainID",
          "type": "uint256"
        },
        {
          "indexed": true,
          "internalType": "bytes32",
          "name": "label",
          "type": "bytes32"
        },
        {
          "indexed": true,
          "internalType": "address",
          "name": "owner",
          "type": "address"
        },
        {
          "indexed": false,
          "internalType": "uint256",
          "name": "cost",
          "type": "uint256"
        },
        {
          "indexed": false,
          "internalType": "uint256",
          "name": "expires",
          "type": "uint256"
        }
      ],
      "name": "NameRegistered",
      "type": "event"
    },
    {
      "anonymous": false,
      "inputs": [
        {
          "indexed": false,
          "internalType": "string",
          "name": "name",
          "type": "string"
        },
        {
          "indexed": true,
          "internalType": "bytes32",
          "name": "label",
          "type": "bytes32"
        },
        {
          "indexed": false,
          "internalType": "uint256",
          "name": "cost",
          "type": "uint256"
        },
        {
          "indexed": false,
          "internalType": "uint256",
          "name": "expires",
          "type": "uint256"
        }
      ],
      "name": "NameRenewed",
      "type": "event"
    },
    {
      "anonymous": false,
      "inputs": [
        {
          "indexed": true,
          "internalType": "address",
          "name": "previousOwner",
          "type": "address"
        },
        {
          "indexed": true,
          "internalType": "address",
          "name": "newOwner",
          "type": "address"
        }
      ],
      "name": "OwnershipTransferred",
      "type": "event"
    },
    {
      "inputs": [],
      "name": "MIN_REGISTRATION_DURATION",
      "outputs": [
        {
          "internalType": "uint256",
          "name": "",
          "type": "uint256"
        }
      ],
      "stateMutability": "view",
      "type": "function"
    },
    {
      "inputs": [
        {
          "internalType": "string",
          "name": "_name",
          "type": "string"
        }
      ],
      "name": "addDomain",
      "outputs": [],
      "stateMutability": "nonpayable",
      "type": "function"
    },
    {
      "inputs": [
        {
          "internalType": "string",
          "name": "name",
          "type": "string"
        },
        {
          "internalType": "uint256",
          "name": "_domainID",
          "type": "uint256"
        }
      ],
      "name": "available",
      "outputs": [
        {
          "internalType": "bool",
          "name": "",
          "type": "bool"
        }
      ],
      "stateMutability": "view",
      "type": "function"
    },
    {
      "inputs": [
        {
          "internalType": "uint256",
          "name": "",
          "type": "uint256"
        }
      ],
      "name": "domains",
      "outputs": [
        {
          "internalType": "string",
          "name": "domainName",
          "type": "string"
        },
        {
          "internalType": "uint256",
          "name": "domainID",
          "type": "uint256"
        }
      ],
      "stateMutability": "view",
      "type": "function"
    },
    {
      "inputs": [
        {
          "internalType": "string",
          "name": "name",
          "type": "string"
        },
        {
          "internalType": "uint256",
          "name": "_domainID",
          "type": "uint256"
        }
      ],
      "name": "expires",
      "outputs": [
        {
          "internalType": "uint256",
          "name": "",
          "type": "uint256"
        }
      ],
      "stateMutability": "view",
      "type": "function"
    },
    {
      "inputs": [
        {
          "internalType": "uint256",
          "name": "_id",
          "type": "uint256"
        }
      ],
      "name": "getDomain",
      "outputs": [
        {
          "internalType": "string",
          "name": "",
          "type": "string"
        }
      ],
      "stateMutability": "view",
      "type": "function"
    },
    {
      "inputs": [],
      "name": "owner",
      "outputs": [
        {
          "internalType": "address",
          "name": "",
          "type": "address"
        }
      ],
      "stateMutability": "view",
      "type": "function"
    },
    {
      "inputs": [
        {
          "internalType": "string",
          "name": "_name",
          "type": "string"
        },
        {
          "internalType": "uint256",
          "name": "_domainID",
          "type": "uint256"
        },
        {
          "internalType": "uint256",
          "name": "_duration",
          "type": "uint256"
        }
      ],
      "name": "register",
      "outputs": [],
      "stateMutability": "payable",
      "type": "function"
    },
    {
      "inputs": [
        {
          "internalType": "string",
          "name": "name",
          "type": "string"
        },
        {
          "internalType": "uint256",
          "name": "_domainID",
          "type": "uint256"
        },
        {
          "internalType": "uint256",
          "name": "duration",
          "type": "uint256"
        }
      ],
      "name": "registerOwner",
      "outputs": [],
      "stateMutability": "nonpayable",
      "type": "function"
    },
    {
      "inputs": [
        {
          "internalType": "string",
          "name": "name",
          "type": "string"
        },
        {
          "internalType": "uint256",
          "name": "_domainID",
          "type": "uint256"
        },
        {
          "internalType": "uint256",
          "name": "duration",
          "type": "uint256"
        }
      ],
      "name": "renew",
      "outputs": [],
      "stateMutability": "payable",
      "type": "function"
    },
    {
      "inputs": [],
      "name": "renounceOwnership",
      "outputs": [],
      "stateMutability": "nonpayable",
      "type": "function"
    },
    {
      "inputs": [
        {
          "internalType": "string",
          "name": "name",
          "type": "string"
        },
        {
          "internalType": "uint256",
          "name": "_domainID",
          "type": "uint256"
        },
        {
          "internalType": "uint256",
          "name": "duration",
          "type": "uint256"
        },
        {
          "internalType": "address",
          "name": "userAddress",
          "type": "address"
        },
        {
          "internalType": "bool",
          "name": "isSale",
          "type": "bool"
        }
      ],
      "name": "rentPrice",
      "outputs": [
        {
          "internalType": "uint256",
          "name": "",
          "type": "uint256"
        }
      ],
      "stateMutability": "view",
      "type": "function"
    },
    {
      "inputs": [
        {
          "internalType": "address[]",
          "name": "_users",
          "type": "address[]"
        }
      ],
      "name": "setDiscountAddresses",
      "outputs": [],
      "stateMutability": "nonpayable",
      "type": "function"
    },
    {
      "inputs": [
        {
          "internalType": "uint256[]",
          "name": "_chalength",
          "type": "uint256[]"
        },
        {
          "internalType": "uint256[]",
          "name": "_prices",
          "type": "uint256[]"
        }
      ],
      "name": "setDiscountPrice",
      "outputs": [],
      "stateMutability": "nonpayable",
      "type": "function"
    },
    {
      "inputs": [
        {
          "internalType": "uint256[]",
          "name": "_chalength",
          "type": "uint256[]"
        },
        {
          "internalType": "uint256[]",
          "name": "_prices",
          "type": "uint256[]"
        }
      ],
      "name": "setDomainPrice",
      "outputs": [],
      "stateMutability": "nonpayable",
      "type": "function"
    },
    {
      "inputs": [
        {
          "internalType": "address[]",
          "name": "_users",
          "type": "address[]"
        }
      ],
      "name": "setFreeMintAddresses",
      "outputs": [],
      "stateMutability": "nonpayable",
      "type": "function"
    },
    {
      "inputs": [
        {
          "internalType": "string",
          "name": "_name",
          "type": "string"
        },
        {
          "internalType": "uint256",
          "name": "_domainID",
          "type": "uint256"
        }
      ],
      "name": "setName",
      "outputs": [],
      "stateMutability": "nonpayable",
      "type": "function"
    },
    {
      "inputs": [
        {
          "internalType": "address",
          "name": "newOwner",
          "type": "address"
        }
      ],
      "name": "transferOwnership",
      "outputs": [],
      "stateMutability": "nonpayable",
      "type": "function"
    },
    {
      "inputs": [
        {
          "internalType": "string",
          "name": "_name",
          "type": "string"
        },
        {
          "internalType": "uint256",
          "name": "_domainID",
          "type": "uint256"
        }
      ],
      "name": "unsetName",
      "outputs": [],
      "stateMutability": "nonpayable",
      "type": "function"
    },
    {
      "inputs": [
        {
          "internalType": "string",
          "name": "name",
          "type": "string"
        }
      ],
      "name": "valid",
      "outputs": [
        {
          "internalType": "bool",
          "name": "",
          "type": "bool"
        }
      ],
      "stateMutability": "pure",
      "type": "function"
    },
    {
      "inputs": [
        {
          "internalType": "address",
          "name": "_discountAddress",
          "type": "address"
        }
      ],
      "name": "verifyUserDiscount",
      "outputs": [
        {
          "internalType": "bool",
          "name": "",
          "type": "bool"
        }
      ],
      "stateMutability": "view",
      "type": "function"
    },
    {
      "inputs": [
        {
          "internalType": "address",
          "name": "_freeMintAddress",
          "type": "address"
        }
      ],
      "name": "verifyUserFreeMint",
      "outputs": [
        {
          "internalType": "bool",
          "name": "",
          "type": "bool"
        }
      ],
      "stateMutability": "view",
      "type": "function"
    },
    {
      "inputs": [],
      "name": "withdraw",
      "outputs": [],
      "stateMutability": "nonpayable",
      "type": "function"
    }
  ],
  "bytecode": "0x60806040523480156200001157600080fd5b506040516200482e3803806200482e833981810160405281019062000037919062000467565b620000576200004b6200012360201b60201c565b6200012b60201b60201c565b6200006833620001ef60201b60201c565b81600160006101000a81548173ffffffffffffffffffffffffffffffffffffffff021916908373ffffffffffffffffffffffffffffffffffffffff16021790555060405180604001604052808281526020016008548152506002600060085481526020019081526020016000206000820151816000019080519060200190620000f39291906200032e565b5060208201518160010155905050600860008154809291906200011690620006b7565b9190505550505062000835565b600033905090565b60008060009054906101000a900473ffffffffffffffffffffffffffffffffffffffff169050816000806101000a81548173ffffffffffffffffffffffffffffffffffffffff021916908373ffffffffffffffffffffffffffffffffffffffff1602179055508173ffffffffffffffffffffffffffffffffffffffff168173ffffffffffffffffffffffffffffffffffffffff167f8be0079c531659141344cd1fd0a4f28419497f9722a3daafe3b4186f6b6457e060405160405180910390a35050565b620001ff6200012360201b60201c565b73ffffffffffffffffffffffffffffffffffffffff16620002256200030560201b60201c565b73ffffffffffffffffffffffffffffffffffffffff16146200027e576040517f08c379a0000000000000000000000000000000000000000000000000000000008152600401620002759062000531565b60405180910390fd5b600073ffffffffffffffffffffffffffffffffffffffff168173ffffffffffffffffffffffffffffffffffffffff161415620002f1576040517f08c379a0000000000000000000000000000000000000000000000000000000008152600401620002e8906200050f565b60405180910390fd5b62000302816200012b60201b60201c565b50565b60008060009054906101000a900473ffffffffffffffffffffffffffffffffffffffff16905090565b8280546200033c906200064b565b90600052602060002090601f016020900481019282620003605760008555620003ac565b82601f106200037b57805160ff1916838001178555620003ac565b82800160010185558215620003ac579182015b82811115620003ab5782518255916020019190600101906200038e565b5b509050620003bb9190620003bf565b5090565b5b80821115620003da576000816000905550600101620003c0565b5090565b6000620003f5620003ef846200057c565b62000553565b9050828152602081018484840111156200040e57600080fd5b6200041b84828562000615565b509392505050565b60008151905062000434816200081b565b92915050565b600082601f8301126200044c57600080fd5b81516200045e848260208601620003de565b91505092915050565b600080604083850312156200047b57600080fd5b60006200048b8582860162000423565b925050602083015167ffffffffffffffff811115620004a957600080fd5b620004b7858286016200043a565b9150509250929050565b6000620004d0602683620005b2565b9150620004dd82620007a3565b604082019050919050565b6000620004f7602083620005b2565b91506200050482620007f2565b602082019050919050565b600060208201905081810360008301526200052a81620004c1565b9050919050565b600060208201905081810360008301526200054c81620004e8565b9050919050565b60006200055f62000572565b90506200056d828262000681565b919050565b6000604051905090565b600067ffffffffffffffff8211156200059a576200059962000763565b5b620005a58262000792565b9050602081019050919050565b600082825260208201905092915050565b6000620005d082620005eb565b9050919050565b6000620005e482620005c3565b9050919050565b600073ffffffffffffffffffffffffffffffffffffffff82169050919050565b6000819050919050565b60005b838110156200063557808201518184015260208101905062000618565b8381111562000645576000848401525b50505050565b600060028204905060018216806200066457607f821691505b602082108114156200067b576200067a62000734565b5b50919050565b6200068c8262000792565b810181811067ffffffffffffffff82111715620006ae57620006ad62000763565b5b80604052505050565b6000620006c4826200060b565b91507fffffffffffffffffffffffffffffffffffffffffffffffffffffffffffffffff821415620006fa57620006f962000705565b5b600182019050919050565b7f4e487b7100000000000000000000000000000000000000000000000000000000600052601160045260246000fd5b7f4e487b7100000000000000000000000000000000000000000000000000000000600052602260045260246000fd5b7f4e487b7100000000000000000000000000000000000000000000000000000000600052604160045260246000fd5b6000601f19601f8301169050919050565b7f4f776e61626c653a206e6577206f776e657220697320746865207a65726f206160008201527f6464726573730000000000000000000000000000000000000000000000000000602082015250565b7f4f776e61626c653a2063616c6c6572206973206e6f7420746865206f776e6572600082015250565b6200082681620005d7565b81146200083257600080fd5b50565b613fe980620008456000396000f3fe6080604052600436106101405760003560e01c80638b704e81116100b65780639ebbcb9b1161006f5780639ebbcb9b1461045e578063a6100fca14610487578063b975d003146104a3578063be6fc47c146104cc578063f2fde38b146104f5578063f7333a631461051e57610140565b80638b704e811461034b5780638da5cb5b1461037457806390a9f8371461039f578063954a1e4a146103bb5780639791c097146103e457806398632ad21461042157610140565b806344e2e74c1161010857806344e2e74c14610228578063519ad3e214610251578063620ec7ab1461028e57806366cf8fab146102cb578063715018a6146103095780638a95b09f1461032057610140565b80631a7a98e2146101455780632e8dad9f146101825780632eee77ec146101ab5780633baa8170146101e85780633ccfd60b14610211575b600080fd5b34801561015157600080fd5b5061016c600480360381019061016791906133c6565b61055b565b60405161017991906136a8565b60405180910390f35b34801561018e57600080fd5b506101a960048036038101906101a491906130b8565b610603565b005b3480156101b757600080fd5b506101d260048036038101906101cd919061327c565b61073a565b6040516101df919061368d565b60405180910390f35b3480156101f457600080fd5b5061020f600480360381019061020a919061327c565b610870565b005b34801561021d57600080fd5b50610226610aa9565b005b34801561023457600080fd5b5061024f600480360381019061024a91906131fa565b610b6e565b005b34801561025d57600080fd5b506102786004803603810190610273919061327c565b610c96565b6040516102859190613920565b60405180910390f35b34801561029a57600080fd5b506102b560048036038101906102b09190613066565b610dcc565b6040516102c2919061368d565b60405180910390f35b3480156102d757600080fd5b506102f260048036038101906102ed91906133c6565b610e27565b6040516103009291906136fa565b60405180910390f35b34801561031557600080fd5b5061031e610ed3565b005b34801561032c57600080fd5b50610335610f5b565b6040516103429190613920565b60405180910390f35b34801561035757600080fd5b50610372600480360381019061036d91906132d0565b610f63565b005b34801561038057600080fd5b506103896114f9565b6040516103969190613672565b60405180910390f35b6103b960048036038101906103b4919061318e565b611522565b005b3480156103c757600080fd5b506103e260048036038101906103dd91906130f9565b611691565b005b3480156103f057600080fd5b5061040b600480360381019061040691906131fa565b6117c9565b604051610418919061368d565b60405180910390f35b34801561042d57600080fd5b5061044860048036038101906104439190613066565b61183c565b604051610455919061368d565b60405180910390f35b34801561046a57600080fd5b50610485600480360381019061048091906130f9565b611897565b005b6104a1600480360381019061049c91906132d0565b6119cf565b005b3480156104af57600080fd5b506104ca60048036038101906104c591906130b8565b611cff565b005b3480156104d857600080fd5b506104f360048036038101906104ee919061327c565b611e36565b005b34801561050157600080fd5b5061051c60048036038101906105179190613066565b612039565b005b34801561052a57600080fd5b5061054560048036038101906105409190613337565b612131565b6040516105529190613920565b60405180910390f35b606060026000838152602001908152602001600020600001805461057e90613c1b565b80601f01602080910402602001604051908101604052809291908181526020018280546105aa90613c1b565b80156105f75780601f106105cc576101008083540402835291602001916105f7565b820191906000526020600020905b8154815290600101906020018083116105da57829003601f168201915b50505050509050919050565b61060b6122dd565b73ffffffffffffffffffffffffffffffffffffffff166106296114f9565b73ffffffffffffffffffffffffffffffffffffffff161461067f576040517f08c379a000000000000000000000000000000000000000000000000000000000815260040161067690613860565b60405180910390fd5b60005b8151811015610736576001600560008484815181106106ca577f4e487b7100000000000000000000000000000000000000000000000000000000600052603260045260246000fd5b602002602001015173ffffffffffffffffffffffffffffffffffffffff1673ffffffffffffffffffffffffffffffffffffffff16815260200190815260200160002060006101000a81548160ff021916908315150217905550808061072e90613c7e565b915050610682565b5050565b6000610745836117c9565b610784576040517f08c379a000000000000000000000000000000000000000000000000000000000815260040161077b90613840565b60405180910390fd5b6000836107908461055b565b6040516020016107a192919061362a565b604051602081830303815290604052805190602001209050600160009054906101000a900473ffffffffffffffffffffffffffffffffffffffff1673ffffffffffffffffffffffffffffffffffffffff166396e494e88260001c6040518263ffffffff1660e01b81526004016108179190613920565b60206040518083038186803b15801561082f57600080fd5b505afa158015610843573d6000803e3d6000fd5b505050506040513d601f19601f820116820180604052508101906108679190613165565b91505092915050565b60008261087c8361055b565b60405160200161088d92919061362a565b6040516020818303038152906040528051906020012090503373ffffffffffffffffffffffffffffffffffffffff16600160009054906101000a900473ffffffffffffffffffffffffffffffffffffffff1673ffffffffffffffffffffffffffffffffffffffff16636352211e8360001c6040518263ffffffff1660e01b815260040161091a9190613920565b60206040518083038186803b15801561093257600080fd5b505afa158015610946573d6000803e3d6000fd5b505050506040513d601f19601f8201168201806040525081019061096a919061308f565b73ffffffffffffffffffffffffffffffffffffffff16146109c0576040517f08c379a00000000000000000000000000000000000000000000000000000000081526004016109b7906138e0565b60405180910390fd5b6000836109cc8461055b565b6040516020016109dd92919061364e565b6040516020818303038152906040529050600160009054906101000a900473ffffffffffffffffffffffffffffffffffffffff1673ffffffffffffffffffffffffffffffffffffffff1663ec07c2d182336040518363ffffffff1660e01b8152600401610a4b9291906136ca565b600060405180830381600087803b158015610a6557600080fd5b505af1158015610a79573d6000803e3d6000fd5b505050506040513d6000823e3d601f19601f82011682018060405250810190610aa2919061323b565b5050505050565b610ab16122dd565b73ffffffffffffffffffffffffffffffffffffffff16610acf6114f9565b73ffffffffffffffffffffffffffffffffffffffff1614610b25576040517f08c379a0000000000000000000000000000000000000000000000000000000008152600401610b1c90613860565b60405180910390fd5b3373ffffffffffffffffffffffffffffffffffffffff166108fc479081150290604051600060405180830381858888f19350505050158015610b6b573d6000803e3d6000fd5b50565b610b766122dd565b73ffffffffffffffffffffffffffffffffffffffff16610b946114f9565b73ffffffffffffffffffffffffffffffffffffffff1614610bea576040517f08c379a0000000000000000000000000000000000000000000000000000000008152600401610be190613860565b60405180910390fd5b60405180604001604052808281526020016008548152506002600060085481526020019081526020016000206000820151816000019080519060200190610c32929190612cff565b506020820151816001015590505060086000815480929190610c5390613c7e565b91905055507fce210f7ab27d589ecf7f068397efe8cb243360f4179c0816614f8449260a48af81600854604051610c8b9291906136fa565b60405180910390a150565b6000610ca1836117c9565b610ce0576040517f08c379a0000000000000000000000000000000000000000000000000000000008152600401610cd790613840565b60405180910390fd5b600083610cec8461055b565b604051602001610cfd92919061362a565b604051602081830303815290604052805190602001209050600160009054906101000a900473ffffffffffffffffffffffffffffffffffffffff1673ffffffffffffffffffffffffffffffffffffffff1663d6e4fa868260001c6040518263ffffffff1660e01b8152600401610d739190613920565b60206040518083038186803b158015610d8b57600080fd5b505afa158015610d9f573d6000803e3d6000fd5b505050506040513d601f19601f82011682018060405250810190610dc391906133ef565b91505092915050565b600080600560008473ffffffffffffffffffffffffffffffffffffffff1673ffffffffffffffffffffffffffffffffffffffff16815260200190815260200160002060009054906101000a900460ff16905080915050919050565b6002602052806000526040600020600091509050806000018054610e4a90613c1b565b80601f0160208091040260200160405190810160405280929190818152602001828054610e7690613c1b565b8015610ec35780601f10610e9857610100808354040283529160200191610ec3565b820191906000526020600020905b815481529060010190602001808311610ea657829003601f168201915b5050505050908060010154905082565b610edb6122dd565b73ffffffffffffffffffffffffffffffffffffffff16610ef96114f9565b73ffffffffffffffffffffffffffffffffffffffff1614610f4f576040517f08c379a0000000000000000000000000000000000000000000000000000000008152600401610f4690613860565b60405180910390fd5b610f5960006122e5565b565b6301e1338081565b610f6b6122dd565b73ffffffffffffffffffffffffffffffffffffffff16610f896114f9565b73ffffffffffffffffffffffffffffffffffffffff1614610fdf576040517f08c379a0000000000000000000000000000000000000000000000000000000008152600401610fd690613860565b60405180910390fd5b610fe8836117c9565b611027576040517f08c379a000000000000000000000000000000000000000000000000000000000815260040161101e90613840565b60405180910390fd5b611031838361073a565b611070576040517f08c379a0000000000000000000000000000000000000000000000000000000008152600401611067906138c0565b60405180910390fd5b60006301e13380826110829190613af1565b90506301e133808110156110cb576040517f08c379a00000000000000000000000000000000000000000000000000000000081526004016110c2906138a0565b60405180910390fd5b6000846110d78561055b565b6040516020016110e892919061362a565b60405160208183030381529060405280519060200120905060008160001c90506000600160009054906101000a900473ffffffffffffffffffffffffffffffffffffffff1673ffffffffffffffffffffffffffffffffffffffff1663b3777b7983896111538a61055b565b60405160200161116492919061364e565b60405160208183030381529060405233886040518563ffffffff1660e01b8152600401611194949392919061393b565b602060405180830381600087803b1580156111ae57600080fd5b505af11580156111c2573d6000803e3d6000fd5b505050506040513d601f19601f820116820180604052508101906111e691906133ef565b90503373ffffffffffffffffffffffffffffffffffffffff16837f8213363d2c0ceb13217feef2c13236d099eaf878ad0ee8c7ce587a4196ee760c8989600086604051611236949392919061372a565b60405180910390a360018060009054906101000a900473ffffffffffffffffffffffffffffffffffffffff1673ffffffffffffffffffffffffffffffffffffffff166370a08231336040518263ffffffff1660e01b815260040161129a9190613672565b60206040518083038186803b1580156112b257600080fd5b505afa1580156112c6573d6000803e3d6000fd5b505050506040513d601f19601f820116820180604052508101906112ea91906133ef565b14156114f0573373ffffffffffffffffffffffffffffffffffffffff16600160009054906101000a900473ffffffffffffffffffffffffffffffffffffffff1673ffffffffffffffffffffffffffffffffffffffff16636352211e8560001c6040518263ffffffff1660e01b81526004016113659190613920565b60206040518083038186803b15801561137d57600080fd5b505afa158015611391573d6000803e3d6000fd5b505050506040513d601f19601f820116820180604052508101906113b5919061308f565b73ffffffffffffffffffffffffffffffffffffffff161461140b576040517f08c379a0000000000000000000000000000000000000000000000000000000008152600401611402906138e0565b60405180910390fd5b6000876114178861055b565b60405160200161142892919061364e565b6040516020818303038152906040529050600160009054906101000a900473ffffffffffffffffffffffffffffffffffffffff1673ffffffffffffffffffffffffffffffffffffffff1663ec07c2d182336040518363ffffffff1660e01b81526004016114969291906136ca565b600060405180830381600087803b1580156114b057600080fd5b505af11580156114c4573d6000803e3d6000fd5b505050506040513d6000823e3d601f19601f820116820180604052508101906114ed919061323b565b50505b50505050505050565b60008060009054906101000a900473ffffffffffffffffffffffffffffffffffffffff16905090565b61156f84848080601f016020809104026020016040519081016040528093929190818152602001838380828437600081840152601f19601f820116905080830192505050505050506117c9565b6115ae576040517f08c379a00000000000000000000000000000000000000000000000000000000081526004016115a590613840565b60405180910390fd5b6115fc84848080601f016020809104026020016040519081016040528093929190818152602001838380828437600081840152601f19601f820116905080830192505050505050508361073a565b61163b576040517f08c379a0000000000000000000000000000000000000000000000000000000008152600401611632906138c0565b60405180910390fd5b61168b84848080601f016020809104026020016040519081016040528093929190818152602001838380828437600081840152601f19601f820116905080830192505050505050508333846123a9565b50505050565b6116996122dd565b73ffffffffffffffffffffffffffffffffffffffff166116b76114f9565b73ffffffffffffffffffffffffffffffffffffffff161461170d576040517f08c379a000000000000000000000000000000000000000000000000000000000815260040161170490613860565b60405180910390fd5b60005b82518110156117c457818181518110611752577f4e487b7100000000000000000000000000000000000000000000000000000000600052603260045260246000fd5b602002602001015160076000858481518110611797577f4e487b7100000000000000000000000000000000000000000000000000000000600052603260045260246000fd5b602002602001015181526020019081526020016000208190555080806117bc90613c7e565b915050611710565b505050565b60006117d4826129d7565b611813576040517f08c379a000000000000000000000000000000000000000000000000000000000815260040161180a90613880565b60405180910390fd5b600161181e83612b24565b101580156118355750601c61183283612b24565b11155b9050919050565b600080600460008473ffffffffffffffffffffffffffffffffffffffff1673ffffffffffffffffffffffffffffffffffffffff16815260200190815260200160002060009054906101000a900460ff16905080915050919050565b61189f6122dd565b73ffffffffffffffffffffffffffffffffffffffff166118bd6114f9565b73ffffffffffffffffffffffffffffffffffffffff1614611913576040517f08c379a000000000000000000000000000000000000000000000000000000000815260040161190a90613860565b60405180910390fd5b60005b82518110156119ca57818181518110611958577f4e487b7100000000000000000000000000000000000000000000000000000000600052603260045260246000fd5b60200260200101516006600085848151811061199d577f4e487b7100000000000000000000000000000000000000000000000000000000600052603260045260246000fd5b602002602001015181526020019081526020016000208190555080806119c290613c7e565b915050611916565b505050565b6000836119db8461055b565b6040516020016119ec92919061362a565b6040516020818303038152906040528051906020012090503373ffffffffffffffffffffffffffffffffffffffff16600160009054906101000a900473ffffffffffffffffffffffffffffffffffffffff1673ffffffffffffffffffffffffffffffffffffffff16636352211e8360001c6040518263ffffffff1660e01b8152600401611a799190613920565b60206040518083038186803b158015611a9157600080fd5b505afa158015611aa5573d6000803e3d6000fd5b505050506040513d601f19601f82011682018060405250810190611ac9919061308f565b73ffffffffffffffffffffffffffffffffffffffff1614611b1f576040517f08c379a0000000000000000000000000000000000000000000000000000000008152600401611b16906138e0565b60405180910390fd5b611b2d848484336000612131565b341015611b6f576040517f08c379a0000000000000000000000000000000000000000000000000000000008152600401611b6690613900565b60405180910390fd5b60006301e1338083611b819190613af1565b90506000600160009054906101000a900473ffffffffffffffffffffffffffffffffffffffff1673ffffffffffffffffffffffffffffffffffffffff1663c475abff8460001c846040518363ffffffff1660e01b8152600401611be5929190613987565b602060405180830381600087803b158015611bff57600080fd5b505af1158015611c13573d6000803e3d6000fd5b505050506040513d601f19601f82011682018060405250810190611c3791906133ef565b9050611c47868686336000612131565b341115611cae573373ffffffffffffffffffffffffffffffffffffffff166108fc611c76888888336000612131565b34611c819190613b4b565b9081150290604051600060405180830381858888f19350505050158015611cac573d6000803e3d6000fd5b505b827f3da24c024582931cfaf8267d8ed24d13a82a8068d5bd337d30ec45cea4e506ae87611cdf898989336000612131565b84604051611cef93929190613776565b60405180910390a2505050505050565b611d076122dd565b73ffffffffffffffffffffffffffffffffffffffff16611d256114f9565b73ffffffffffffffffffffffffffffffffffffffff1614611d7b576040517f08c379a0000000000000000000000000000000000000000000000000000000008152600401611d7290613860565b60405180910390fd5b60005b8151811015611e3257600160046000848481518110611dc6577f4e487b7100000000000000000000000000000000000000000000000000000000600052603260045260246000fd5b602002602001015173ffffffffffffffffffffffffffffffffffffffff1673ffffffffffffffffffffffffffffffffffffffff16815260200190815260200160002060006101000a81548160ff0219169083151502179055508080611e2a90613c7e565b915050611d7e565b5050565b600082611e428361055b565b604051602001611e5392919061362a565b6040516020818303038152906040528051906020012090503373ffffffffffffffffffffffffffffffffffffffff16600160009054906101000a900473ffffffffffffffffffffffffffffffffffffffff1673ffffffffffffffffffffffffffffffffffffffff16636352211e8360001c6040518263ffffffff1660e01b8152600401611ee09190613920565b60206040518083038186803b158015611ef857600080fd5b505afa158015611f0c573d6000803e3d6000fd5b505050506040513d601f19601f82011682018060405250810190611f30919061308f565b73ffffffffffffffffffffffffffffffffffffffff1614611f86576040517f08c379a0000000000000000000000000000000000000000000000000000000008152600401611f7d906138e0565b60405180910390fd5b600160009054906101000a900473ffffffffffffffffffffffffffffffffffffffff1673ffffffffffffffffffffffffffffffffffffffff16631a34c325336040518263ffffffff1660e01b8152600401611fe19190613672565b602060405180830381600087803b158015611ffb57600080fd5b505af115801561200f573d6000803e3d6000fd5b505050506040513d601f19601f820116820180604052508101906120339190613165565b50505050565b6120416122dd565b73ffffffffffffffffffffffffffffffffffffffff1661205f6114f9565b73ffffffffffffffffffffffffffffffffffffffff16146120b5576040517f08c379a00000000000000000000000000000000000000000000000000000000081526004016120ac90613860565b60405180910390fd5b600073ffffffffffffffffffffffffffffffffffffffff168173ffffffffffffffffffffffffffffffffffffffff161415612125576040517f08c379a000000000000000000000000000000000000000000000000000000000815260040161211c90613800565b60405180910390fd5b61212e816122e5565b50565b600061213c866117c9565b61217b576040517f08c379a000000000000000000000000000000000000000000000000000000000815260040161217290613840565b60405180910390fd5b81156122795761218a83610dcc565b801561219f5750600661219c87612b24565b10155b156121ad57600090506122d4565b6121b68361183c565b1561221a57600060056121c888612b24565b116121db576121d687612b24565b6121de565b60065b905084670de0b6b3a764000060076000848152602001908152602001600020546122089190613af1565b6122129190613af1565b9150506122d4565b6000600561222788612b24565b1161223a5761223587612b24565b61223d565b60065b905084670de0b6b3a764000060066000848152602001908152602001600020546122679190613af1565b6122719190613af1565b9150506122d4565b6000600561228688612b24565b116122995761229487612b24565b61229c565b60065b905084670de0b6b3a764000060066000848152602001908152602001600020546122c69190613af1565b6122d09190613af1565b9150505b95945050505050565b600033905090565b60008060009054906101000a900473ffffffffffffffffffffffffffffffffffffffff169050816000806101000a81548173ffffffffffffffffffffffffffffffffffffffff021916908373ffffffffffffffffffffffffffffffffffffffff1602179055508173ffffffffffffffffffffffffffffffffffffffff168173ffffffffffffffffffffffffffffffffffffffff167f8be0079c531659141344cd1fd0a4f28419497f9722a3daafe3b4186f6b6457e060405160405180910390a35050565b60006301e13380826123bb9190613af1565b90506301e13380811015612404576040517f08c379a00000000000000000000000000000000000000000000000000000000081526004016123fb906138a0565b60405180910390fd5b612412858584866001612131565b341015612454576040517f08c379a000000000000000000000000000000000000000000000000000000000815260040161244b90613820565b60405180910390fd5b6000856124608661055b565b60405160200161247192919061362a565b60405160208183030381529060405280519060200120905060008160001c90506000600160009054906101000a900473ffffffffffffffffffffffffffffffffffffffff1673ffffffffffffffffffffffffffffffffffffffff1663b3777b79838a6124dc8b61055b565b6040516020016124ed92919061364e565b60405160208183030381529060405289886040518563ffffffff1660e01b815260040161251d949392919061393b565b602060405180830381600087803b15801561253757600080fd5b505af115801561254b573d6000803e3d6000fd5b505050506040513d601f19601f8201168201806040525081019061256f91906133ef565b90508573ffffffffffffffffffffffffffffffffffffffff16837f8213363d2c0ceb13217feef2c13236d099eaf878ad0ee8c7ce587a4196ee760c8a8a6125ba8d8d8c8e6001612131565b866040516125cb94939291906137b4565b60405180910390a360018060009054906101000a900473ffffffffffffffffffffffffffffffffffffffff1673ffffffffffffffffffffffffffffffffffffffff166370a08231886040518263ffffffff1660e01b815260040161262f9190613672565b60206040518083038186803b15801561264757600080fd5b505afa15801561265b573d6000803e3d6000fd5b505050506040513d601f19601f8201168201806040525081019061267f91906133ef565b1415612885578573ffffffffffffffffffffffffffffffffffffffff16600160009054906101000a900473ffffffffffffffffffffffffffffffffffffffff1673ffffffffffffffffffffffffffffffffffffffff16636352211e8560001c6040518263ffffffff1660e01b81526004016126fa9190613920565b60206040518083038186803b15801561271257600080fd5b505afa158015612726573d6000803e3d6000fd5b505050506040513d601f19601f8201168201806040525081019061274a919061308f565b73ffffffffffffffffffffffffffffffffffffffff16146127a0576040517f08c379a0000000000000000000000000000000000000000000000000000000008152600401612797906138e0565b60405180910390fd5b6000886127ac8961055b565b6040516020016127bd92919061364e565b6040516020818303038152906040529050600160009054906101000a900473ffffffffffffffffffffffffffffffffffffffff1673ffffffffffffffffffffffffffffffffffffffff1663ec07c2d182896040518363ffffffff1660e01b815260040161282b9291906136ca565b600060405180830381600087803b15801561284557600080fd5b505af1158015612859573d6000803e3d6000fd5b505050506040513d6000823e3d601f19601f82011682018060405250810190612882919061323b565b50505b61288e86610dcc565b156128f0576000600560008873ffffffffffffffffffffffffffffffffffffffff1673ffffffffffffffffffffffffffffffffffffffff16815260200190815260200160002060006101000a81548160ff021916908315150217905550612958565b6128f98661183c565b15612957576000600460008873ffffffffffffffffffffffffffffffffffffffff1673ffffffffffffffffffffffffffffffffffffffff16815260200190815260200160002060006101000a81548160ff0219169083151502179055505b5b612966888887896001612131565b3411156129cd573373ffffffffffffffffffffffffffffffffffffffff166108fc6129958a8a898b6001612131565b346129a09190613b4b565b9081150290604051600060405180830381858888f193505050501580156129cb573d6000803e3d6000fd5b505b5050505050505050565b60008082905060005b8151811015612b18576000828281518110612a24577f4e487b7100000000000000000000000000000000000000000000000000000000600052603260045260246000fd5b602001015160f81c60f81b9050603060f81b817effffffffffffffffffffffffffffffffffffffffffffffffffffffffffffff191610158015612a8d5750603960f81b817effffffffffffffffffffffffffffffffffffffffffffffffffffffffffffff191611155b158015612af35750606160f81b817effffffffffffffffffffffffffffffffffffffffffffffffffffffffffffff191610158015612af15750607a60f81b817effffffffffffffffffffffffffffffffffffffffffffffffffffffffffffff191611155b155b15612b045760009350505050612b1f565b508080612b1090613c7e565b9150506129e0565b5060019150505b919050565b60008060008084519050600092505b80821015612cf4576000858381518110612b76577f4e487b7100000000000000000000000000000000000000000000000000000000600052603260045260246000fd5b602001015160f81c60f81b9050608060f81b817effffffffffffffffffffffffffffffffffffffffffffffffffffffffffffff19161015612bc557600183612bbe9190613a9b565b9250612ce0565b60e060f81b817effffffffffffffffffffffffffffffffffffffffffffffffffffffffffffff19161015612c0757600283612c009190613a9b565b9250612cdf565b60f060f81b817effffffffffffffffffffffffffffffffffffffffffffffffffffffffffffff19161015612c4957600383612c429190613a9b565b9250612cde565b60f8801b817effffffffffffffffffffffffffffffffffffffffffffffffffffffffffffff19161015612c8a57600483612c839190613a9b565b9250612cdd565b60fc60f81b817effffffffffffffffffffffffffffffffffffffffffffffffffffffffffffff19161015612ccc57600583612cc59190613a9b565b9250612cdc565b600683612cd99190613a9b565b92505b5b5b5b5b508280612cec90613c7e565b935050612b33565b829350505050919050565b828054612d0b90613c1b565b90600052602060002090601f016020900481019282612d2d5760008555612d74565b82601f10612d4657805160ff1916838001178555612d74565b82800160010185558215612d74579182015b82811115612d73578251825591602001919060010190612d58565b5b509050612d819190612d85565b5090565b5b80821115612d9e576000816000905550600101612d86565b5090565b6000612db5612db0846139d5565b6139b0565b90508083825260208201905082856020860282011115612dd457600080fd5b60005b85811015612e045781612dea8882612ef6565b845260208401935060208301925050600181019050612dd7565b5050509392505050565b6000612e21612e1c84613a01565b6139b0565b90508083825260208201905082856020860282011115612e4057600080fd5b60005b85811015612e705781612e56888261303c565b845260208401935060208301925050600181019050612e43565b5050509392505050565b6000612e8d612e8884613a2d565b6139b0565b905082815260208101848484011115612ea557600080fd5b612eb0848285613bd9565b509392505050565b6000612ecb612ec684613a2d565b6139b0565b905082815260208101848484011115612ee357600080fd5b612eee848285613be8565b509392505050565b600081359050612f0581613f6e565b92915050565b600081519050612f1a81613f6e565b92915050565b600082601f830112612f3157600080fd5b8135612f41848260208601612da2565b91505092915050565b600082601f830112612f5b57600080fd5b8135612f6b848260208601612e0e565b91505092915050565b600081359050612f8381613f85565b92915050565b600081519050612f9881613f85565b92915050565b60008083601f840112612fb057600080fd5b8235905067ffffffffffffffff811115612fc957600080fd5b602083019150836001820283011115612fe157600080fd5b9250929050565b600082601f830112612ff957600080fd5b8135613009848260208601612e7a565b91505092915050565b600082601f83011261302357600080fd5b8151613033848260208601612eb8565b91505092915050565b60008135905061304b81613f9c565b92915050565b60008151905061306081613f9c565b92915050565b60006020828403121561307857600080fd5b600061308684828501612ef6565b91505092915050565b6000602082840312156130a157600080fd5b60006130af84828501612f0b565b91505092915050565b6000602082840312156130ca57600080fd5b600082013567ffffffffffffffff8111156130e457600080fd5b6130f084828501612f20565b91505092915050565b6000806040838503121561310c57600080fd5b600083013567ffffffffffffffff81111561312657600080fd5b61313285828601612f4a565b925050602083013567ffffffffffffffff81111561314f57600080fd5b61315b85828601612f4a565b9150509250929050565b60006020828403121561317757600080fd5b600061318584828501612f89565b91505092915050565b600080600080606085870312156131a457600080fd5b600085013567ffffffffffffffff8111156131be57600080fd5b6131ca87828801612f9e565b945094505060206131dd8782880161303c565b92505060406131ee8782880161303c565b91505092959194509250565b60006020828403121561320c57600080fd5b600082013567ffffffffffffffff81111561322657600080fd5b61323284828501612fe8565b91505092915050565b60006020828403121561324d57600080fd5b600082015167ffffffffffffffff81111561326757600080fd5b61327384828501613012565b91505092915050565b6000806040838503121561328f57600080fd5b600083013567ffffffffffffffff8111156132a957600080fd5b6132b585828601612fe8565b92505060206132c68582860161303c565b9150509250929050565b6000806000606084860312156132e557600080fd5b600084013567ffffffffffffffff8111156132ff57600080fd5b61330b86828701612fe8565b935050602061331c8682870161303c565b925050604061332d8682870161303c565b9150509250925092565b600080600080600060a0868803121561334f57600080fd5b600086013567ffffffffffffffff81111561336957600080fd5b61337588828901612fe8565b95505060206133868882890161303c565b94505060406133978882890161303c565b93505060606133a888828901612ef6565b92505060806133b988828901612f74565b9150509295509295909350565b6000602082840312156133d857600080fd5b60006133e68482850161303c565b91505092915050565b60006020828403121561340157600080fd5b600061340f84828501613051565b91505092915050565b61342181613b7f565b82525050565b61343081613b91565b82525050565b600061344182613a5e565b61344b8185613a74565b935061345b818560208601613be8565b80840191505092915050565b61347081613bc7565b82525050565b600061348182613a69565b61348b8185613a7f565b935061349b818560208601613be8565b6134a481613d54565b840191505092915050565b60006134ba82613a69565b6134c48185613a90565b93506134d4818560208601613be8565b80840191505092915050565b60006134ed602683613a7f565b91506134f882613d65565b604082019050919050565b6000613510601c83613a7f565b915061351b82613db4565b602082019050919050565b6000613533601783613a7f565b915061353e82613ddd565b602082019050919050565b6000613556602083613a7f565b915061356182613e06565b602082019050919050565b6000613579601e83613a7f565b915061358482613e2f565b602082019050919050565b600061359c602783613a7f565b91506135a782613e58565b604082019050919050565b60006135bf601b83613a7f565b91506135ca82613ea7565b602082019050919050565b60006135e2602883613a7f565b91506135ed82613ed0565b604082019050919050565b6000613605602283613a7f565b915061361082613f1f565b604082019050919050565b61362481613bbd565b82525050565b60006136368285613436565b91506136428284613436565b91508190509392505050565b600061365a82856134af565b915061366682846134af565b91508190509392505050565b60006020820190506136876000830184613418565b92915050565b60006020820190506136a26000830184613427565b92915050565b600060208201905081810360008301526136c28184613476565b905092915050565b600060408201905081810360008301526136e48185613476565b90506136f36020830184613418565b9392505050565b600060408201905081810360008301526137148185613476565b9050613723602083018461361b565b9392505050565b600060808201905081810360008301526137448187613476565b9050613753602083018661361b565b6137606040830185613467565b61376d606083018461361b565b95945050505050565b600060608201905081810360008301526137908186613476565b905061379f602083018561361b565b6137ac604083018461361b565b949350505050565b600060808201905081810360008301526137ce8187613476565b90506137dd602083018661361b565b6137ea604083018561361b565b6137f7606083018461361b565b95945050505050565b60006020820190508181036000830152613819816134e0565b9050919050565b6000602082019050818103600083015261383981613503565b9050919050565b6000602082019050818103600083015261385981613526565b9050919050565b6000602082019050818103600083015261387981613549565b9050919050565b600060208201905081810360008301526138998161356c565b9050919050565b600060208201905081810360008301526138b98161358f565b9050919050565b600060208201905081810360008301526138d9816135b2565b9050919050565b600060208201905081810360008301526138f9816135d5565b9050919050565b60006020820190508181036000830152613919816135f8565b9050919050565b6000602082019050613935600083018461361b565b92915050565b6000608082019050613950600083018761361b565b81810360208301526139628186613476565b90506139716040830185613418565b61397e606083018461361b565b95945050505050565b600060408201905061399c600083018561361b565b6139a9602083018461361b565b9392505050565b60006139ba6139cb565b90506139c68282613c4d565b919050565b6000604051905090565b600067ffffffffffffffff8211156139f0576139ef613d25565b5b602082029050602081019050919050565b600067ffffffffffffffff821115613a1c57613a1b613d25565b5b602082029050602081019050919050565b600067ffffffffffffffff821115613a4857613a47613d25565b5b613a5182613d54565b9050602081019050919050565b600081519050919050565b600081519050919050565b600081905092915050565b600082825260208201905092915050565b600081905092915050565b6000613aa682613bbd565b9150613ab183613bbd565b9250827fffffffffffffffffffffffffffffffffffffffffffffffffffffffffffffffff03821115613ae657613ae5613cc7565b5b828201905092915050565b6000613afc82613bbd565b9150613b0783613bbd565b9250817fffffffffffffffffffffffffffffffffffffffffffffffffffffffffffffffff0483118215151615613b4057613b3f613cc7565b5b828202905092915050565b6000613b5682613bbd565b9150613b6183613bbd565b925082821015613b7457613b73613cc7565b5b828203905092915050565b6000613b8a82613b9d565b9050919050565b60008115159050919050565b600073ffffffffffffffffffffffffffffffffffffffff82169050919050565b6000819050919050565b6000613bd282613bbd565b9050919050565b82818337600083830152505050565b60005b83811015613c06578082015181840152602081019050613beb565b83811115613c15576000848401525b50505050565b60006002820490506001821680613c3357607f821691505b60208210811415613c4757613c46613cf6565b5b50919050565b613c5682613d54565b810181811067ffffffffffffffff82111715613c7557613c74613d25565b5b80604052505050565b6000613c8982613bbd565b91507fffffffffffffffffffffffffffffffffffffffffffffffffffffffffffffffff821415613cbc57613cbb613cc7565b5b600182019050919050565b7f4e487b7100000000000000000000000000000000000000000000000000000000600052601160045260246000fd5b7f4e487b7100000000000000000000000000000000000000000000000000000000600052602260045260246000fd5b7f4e487b7100000000000000000000000000000000000000000000000000000000600052604160045260246000fd5b6000601f19601f8301169050919050565b7f4f776e61626c653a206e6577206f776e657220697320746865207a65726f206160008201527f6464726573730000000000000000000000000000000000000000000000000000602082015250565b7f4f4e53433a20594f555f53454e4445445f57524f4e475f56414c554500000000600082015250565b7f4f4e53433a204e414d455f49535f4e4f545f56414c4944000000000000000000600082015250565b7f4f776e61626c653a2063616c6c6572206973206e6f7420746865206f776e6572600082015250565b7f4f4e53433a205448455f4e414d455f4d5553545f42455f454e474c4953480000600082015250565b7f4f4e53433a204d494e5f524547495354524154494f4e5f4455524154494f4e5f60008201527f49535f5945415200000000000000000000000000000000000000000000000000602082015250565b7f4f4e53433a204e414d455f49535f4e4f545f415641494c41424c450000000000600082015250565b7f4f4e53433a20594f555f4152455f4e4f545f5448455f4f574e45525f4f465f5460008201527f4849535f4e414d45000000000000000000000000000000000000000000000000602082015250565b7f4f4e53433a20594f555f53454e4445445f57524f4e475f56414c55455f52454e60008201527f4557000000000000000000000000000000000000000000000000000000000000602082015250565b613f7781613b7f565b8114613f8257600080fd5b50565b613f8e81613b91565b8114613f9957600080fd5b50565b613fa581613bbd565b8114613fb057600080fd5b5056fea2646970667358221220b023c48be0a20ef6cf704ac5223fbef057eafc8fa389a9377969e95fcd78ce7064736f6c63430008040033",
  "linkReferences": {},
  "deployedLinkReferences": {}
}