{
  "_format": "hh-sol-artifact-1",
  "contractName": "ContractAddressBook",
  "sourceName": "contracts/ContractAddressBook.sol",
  "abi": [
    {
      "inputs": [],
      "stateMutability": "nonpayable",
      "type": "constructor"
    },
    {
      "anonymous": false,
      "inputs": [
        {
          "indexed": false,
          "internalType": "string",
          "name": "_contractKey",
          "type": "string"
        },
        {
          "indexed": false,
          "internalType": "string",
          "name": "contractAbiURI",
          "type": "string"
        },
        {
          "indexed": false,
          "internalType": "address",
          "name": "_contractAddress",
          "type": "address"
        }
      ],
      "name": "ContractAdded",
      "type": "event"
    },
    {
      "anonymous": false,
      "inputs": [
        {
          "indexed": true,
          "internalType": "address",
          "name": "previousOwner",
          "type": "address"
        },
        {
          "indexed": true,
          "internalType": "address",
          "name": "newOwner",
          "type": "address"
        }
      ],
      "name": "OwnershipTransferred",
      "type": "event"
    },
    {
      "inputs": [
        {
          "internalType": "string",
          "name": "_contractKey",
          "type": "string"
        }
      ],
      "name": "getContractABI",
      "outputs": [
        {
          "internalType": "string",
          "name": "",
          "type": "string"
        }
      ],
      "stateMutability": "view",
      "type": "function"
    },
    {
      "inputs": [
        {
          "internalType": "string",
          "name": "_contractKey",
          "type": "string"
        }
      ],
      "name": "getContractAddress",
      "outputs": [
        {
          "internalType": "address",
          "name": "",
          "type": "address"
        }
      ],
      "stateMutability": "view",
      "type": "function"
    },
    {
      "inputs": [],
      "name": "owner",
      "outputs": [
        {
          "internalType": "address",
          "name": "",
          "type": "address"
        }
      ],
      "stateMutability": "view",
      "type": "function"
    },
    {
      "inputs": [],
      "name": "renounceOwnership",
      "outputs": [],
      "stateMutability": "nonpayable",
      "type": "function"
    },
    {
      "inputs": [
        {
          "internalType": "string",
          "name": "_contractKey",
          "type": "string"
        },
        {
          "internalType": "string",
          "name": "_contractABIURI",
          "type": "string"
        },
        {
          "internalType": "address",
          "name": "_contractAddress",
          "type": "address"
        }
      ],
      "name": "setContractAddress",
      "outputs": [],
      "stateMutability": "nonpayable",
      "type": "function"
    },
    {
      "inputs": [
        {
          "internalType": "string[]",
          "name": "_contractKey",
          "type": "string[]"
        },
        {
          "internalType": "string[]",
          "name": "_contractABIURI",
          "type": "string[]"
        },
        {
          "internalType": "address[]",
          "name": "_contractAddress",
          "type": "address[]"
        }
      ],
      "name": "setMultiContractAddress",
      "outputs": [],
      "stateMutability": "nonpayable",
      "type": "function"
    },
    {
      "inputs": [
        {
          "internalType": "address",
          "name": "newOwner",
          "type": "address"
        }
      ],
      "name": "transferOwnership",
      "outputs": [],
      "stateMutability": "nonpayable",
      "type": "function"
    }
  ],
  "bytecode": "0x60806040523480156200001157600080fd5b5062000032620000266200004960201b60201c565b6200005160201b60201c565b62000043336200011560201b60201c565b6200036f565b600033905090565b60008060009054906101000a900473ffffffffffffffffffffffffffffffffffffffff169050816000806101000a81548173ffffffffffffffffffffffffffffffffffffffff021916908373ffffffffffffffffffffffffffffffffffffffff1602179055508173ffffffffffffffffffffffffffffffffffffffff168173ffffffffffffffffffffffffffffffffffffffff167f8be0079c531659141344cd1fd0a4f28419497f9722a3daafe3b4186f6b6457e060405160405180910390a35050565b620001256200004960201b60201c565b73ffffffffffffffffffffffffffffffffffffffff166200014b6200022b60201b60201c565b73ffffffffffffffffffffffffffffffffffffffff1614620001a4576040517f08c379a00000000000000000000000000000000000000000000000000000000081526004016200019b90620002c4565b60405180910390fd5b600073ffffffffffffffffffffffffffffffffffffffff168173ffffffffffffffffffffffffffffffffffffffff16141562000217576040517f08c379a00000000000000000000000000000000000000000000000000000000081526004016200020e90620002a2565b60405180910390fd5b62000228816200005160201b60201c565b50565b60008060009054906101000a900473ffffffffffffffffffffffffffffffffffffffff16905090565b600062000263602683620002e6565b91506200027082620002f7565b604082019050919050565b60006200028a602083620002e6565b9150620002978262000346565b602082019050919050565b60006020820190508181036000830152620002bd8162000254565b9050919050565b60006020820190508181036000830152620002df816200027b565b9050919050565b600082825260208201905092915050565b7f4f776e61626c653a206e6577206f776e657220697320746865207a65726f206160008201527f6464726573730000000000000000000000000000000000000000000000000000602082015250565b7f4f776e61626c653a2063616c6c6572206973206e6f7420746865206f776e6572600082015250565b6111d0806200037f6000396000f3fe608060405234801561001057600080fd5b506004361061007d5760003560e01c8063715018a61161005b578063715018a6146100ea5780638da5cb5b146100f4578063d0ed6b7f14610112578063f2fde38b146101425761007d565b806304433bbc1461008257806347141101146100b257806365d25bf6146100ce575b600080fd5b61009c60048036038101906100979190610c16565b61015e565b6040516100a99190610dac565b60405180910390f35b6100cc60048036038101906100c79190610c57565b6101ae565b005b6100e860048036038101906100e39190610b7f565b6102e8565b005b6100f26105c2565b005b6100fc61064a565b6040516101099190610dac565b60405180910390f35b61012c60048036038101906101279190610c16565b610673565b6040516101399190610dc7565b60405180910390f35b61015c60048036038101906101579190610b56565b61072c565b005b6000806001836040516101719190610d95565b908152602001604051809103902090508060000160009054906101000a900473ffffffffffffffffffffffffffffffffffffffff16915050919050565b6101b6610824565b73ffffffffffffffffffffffffffffffffffffffff166101d461064a565b73ffffffffffffffffffffffffffffffffffffffff161461022a576040517f08c379a000000000000000000000000000000000000000000000000000000000815260040161022190610e4e565b60405180910390fd5b600060018460405161023c9190610d95565b90815260200160405180910390209050818160000160006101000a81548173ffffffffffffffffffffffffffffffffffffffff021916908373ffffffffffffffffffffffffffffffffffffffff160217905550828160010190805190602001906102a79291906108f0565b507e4f34bd6b4edbcd315b1295fafdfc372821fdcabc20a95f933d09ae71780c518484846040516102da93929190610de9565b60405180910390a150505050565b6102f0610824565b73ffffffffffffffffffffffffffffffffffffffff1661030e61064a565b73ffffffffffffffffffffffffffffffffffffffff1614610364576040517f08c379a000000000000000000000000000000000000000000000000000000000815260040161035b90610e4e565b60405180910390fd5b60005b83518110156105bc57600060018583815181106103ad577f4e487b7100000000000000000000000000000000000000000000000000000000600052603260045260246000fd5b60200260200101516040516103c29190610d95565b9081526020016040518091039020905082828151811061040b577f4e487b7100000000000000000000000000000000000000000000000000000000600052603260045260246000fd5b60200260200101518160000160006101000a81548173ffffffffffffffffffffffffffffffffffffffff021916908373ffffffffffffffffffffffffffffffffffffffff16021790555083828151811061048e577f4e487b7100000000000000000000000000000000000000000000000000000000600052603260045260246000fd5b60200260200101518160010190805190602001906104ad9291906108f0565b507e4f34bd6b4edbcd315b1295fafdfc372821fdcabc20a95f933d09ae71780c51858381518110610507577f4e487b7100000000000000000000000000000000000000000000000000000000600052603260045260246000fd5b6020026020010151858481518110610548577f4e487b7100000000000000000000000000000000000000000000000000000000600052603260045260246000fd5b6020026020010151858581518110610589577f4e487b7100000000000000000000000000000000000000000000000000000000600052603260045260246000fd5b60200260200101516040516105a093929190610de9565b60405180910390a15080806105b490611024565b915050610367565b50505050565b6105ca610824565b73ffffffffffffffffffffffffffffffffffffffff166105e861064a565b73ffffffffffffffffffffffffffffffffffffffff161461063e576040517f08c379a000000000000000000000000000000000000000000000000000000000815260040161063590610e4e565b60405180910390fd5b610648600061082c565b565b60008060009054906101000a900473ffffffffffffffffffffffffffffffffffffffff16905090565b606060006001836040516106879190610d95565b908152602001604051809103902090508060010180546106a690610fc1565b80601f01602080910402602001604051908101604052809291908181526020018280546106d290610fc1565b801561071f5780601f106106f45761010080835404028352916020019161071f565b820191906000526020600020905b81548152906001019060200180831161070257829003601f168201915b5050505050915050919050565b610734610824565b73ffffffffffffffffffffffffffffffffffffffff1661075261064a565b73ffffffffffffffffffffffffffffffffffffffff16146107a8576040517f08c379a000000000000000000000000000000000000000000000000000000000815260040161079f90610e4e565b60405180910390fd5b600073ffffffffffffffffffffffffffffffffffffffff168173ffffffffffffffffffffffffffffffffffffffff161415610818576040517f08c379a000000000000000000000000000000000000000000000000000000000815260040161080f90610e2e565b60405180910390fd5b6108218161082c565b50565b600033905090565b60008060009054906101000a900473ffffffffffffffffffffffffffffffffffffffff169050816000806101000a81548173ffffffffffffffffffffffffffffffffffffffff021916908373ffffffffffffffffffffffffffffffffffffffff1602179055508173ffffffffffffffffffffffffffffffffffffffff168173ffffffffffffffffffffffffffffffffffffffff167f8be0079c531659141344cd1fd0a4f28419497f9722a3daafe3b4186f6b6457e060405160405180910390a35050565b8280546108fc90610fc1565b90600052602060002090601f01602090048101928261091e5760008555610965565b82601f1061093757805160ff1916838001178555610965565b82800160010185558215610965579182015b82811115610964578251825591602001919060010190610949565b5b5090506109729190610976565b5090565b5b8082111561098f576000816000905550600101610977565b5090565b60006109a66109a184610e93565b610e6e565b905080838252602082019050828560208602820111156109c557600080fd5b60005b858110156109f557816109db8882610ac3565b8452602084019350602083019250506001810190506109c8565b5050509392505050565b6000610a12610a0d84610ebf565b610e6e565b90508083825260208201905082856020860282011115610a3157600080fd5b60005b85811015610a7b57813567ffffffffffffffff811115610a5357600080fd5b808601610a608982610b2c565b85526020850194506020840193505050600181019050610a34565b5050509392505050565b6000610a98610a9384610eeb565b610e6e565b905082815260208101848484011115610ab057600080fd5b610abb848285610f7f565b509392505050565b600081359050610ad281611183565b92915050565b600082601f830112610ae957600080fd5b8135610af9848260208601610993565b91505092915050565b600082601f830112610b1357600080fd5b8135610b238482602086016109ff565b91505092915050565b600082601f830112610b3d57600080fd5b8135610b4d848260208601610a85565b91505092915050565b600060208284031215610b6857600080fd5b6000610b7684828501610ac3565b91505092915050565b600080600060608486031215610b9457600080fd5b600084013567ffffffffffffffff811115610bae57600080fd5b610bba86828701610b02565b935050602084013567ffffffffffffffff811115610bd757600080fd5b610be386828701610b02565b925050604084013567ffffffffffffffff811115610c0057600080fd5b610c0c86828701610ad8565b9150509250925092565b600060208284031215610c2857600080fd5b600082013567ffffffffffffffff811115610c4257600080fd5b610c4e84828501610b2c565b91505092915050565b600080600060608486031215610c6c57600080fd5b600084013567ffffffffffffffff811115610c8657600080fd5b610c9286828701610b2c565b935050602084013567ffffffffffffffff811115610caf57600080fd5b610cbb86828701610b2c565b9250506040610ccc86828701610ac3565b9150509250925092565b610cdf81610f43565b82525050565b6000610cf082610f1c565b610cfa8185610f27565b9350610d0a818560208601610f8e565b610d13816110fa565b840191505092915050565b6000610d2982610f1c565b610d338185610f38565b9350610d43818560208601610f8e565b80840191505092915050565b6000610d5c602683610f27565b9150610d678261110b565b604082019050919050565b6000610d7f602083610f27565b9150610d8a8261115a565b602082019050919050565b6000610da18284610d1e565b915081905092915050565b6000602082019050610dc16000830184610cd6565b92915050565b60006020820190508181036000830152610de18184610ce5565b905092915050565b60006060820190508181036000830152610e038186610ce5565b90508181036020830152610e178185610ce5565b9050610e266040830184610cd6565b949350505050565b60006020820190508181036000830152610e4781610d4f565b9050919050565b60006020820190508181036000830152610e6781610d72565b9050919050565b6000610e78610e89565b9050610e848282610ff3565b919050565b6000604051905090565b600067ffffffffffffffff821115610eae57610ead6110cb565b5b602082029050602081019050919050565b600067ffffffffffffffff821115610eda57610ed96110cb565b5b602082029050602081019050919050565b600067ffffffffffffffff821115610f0657610f056110cb565b5b610f0f826110fa565b9050602081019050919050565b600081519050919050565b600082825260208201905092915050565b600081905092915050565b6000610f4e82610f55565b9050919050565b600073ffffffffffffffffffffffffffffffffffffffff82169050919050565b6000819050919050565b82818337600083830152505050565b60005b83811015610fac578082015181840152602081019050610f91565b83811115610fbb576000848401525b50505050565b60006002820490506001821680610fd957607f821691505b60208210811415610fed57610fec61109c565b5b50919050565b610ffc826110fa565b810181811067ffffffffffffffff8211171561101b5761101a6110cb565b5b80604052505050565b600061102f82610f75565b91507fffffffffffffffffffffffffffffffffffffffffffffffffffffffffffffffff8214156110625761106161106d565b5b600182019050919050565b7f4e487b7100000000000000000000000000000000000000000000000000000000600052601160045260246000fd5b7f4e487b7100000000000000000000000000000000000000000000000000000000600052602260045260246000fd5b7f4e487b7100000000000000000000000000000000000000000000000000000000600052604160045260246000fd5b6000601f19601f8301169050919050565b7f4f776e61626c653a206e6577206f776e657220697320746865207a65726f206160008201527f6464726573730000000000000000000000000000000000000000000000000000602082015250565b7f4f776e61626c653a2063616c6c6572206973206e6f7420746865206f776e6572600082015250565b61118c81610f43565b811461119757600080fd5b5056fea2646970667358221220361eb403b292b1d1177694f68386f0cf3aa82c846e75f96aa0c0ad2f514e2eac64736f6c63430008040033",
  "linkReferences": {},
  "deployedLinkReferences": {}
}