{
  "_format": "hh-sol-artifact-1",
  "contractName": "ResolverController",
  "sourceName": "contracts/resolvers/ResolverController.sol",
  "abi": [
    {
      "inputs": [],
      "stateMutability": "nonpayable",
      "type": "constructor"
    },
    {
      "anonymous": false,
      "inputs": [
        {
          "indexed": true,
          "internalType": "address",
          "name": "previousOwner",
          "type": "address"
        },
        {
          "indexed": true,
          "internalType": "address",
          "name": "newOwner",
          "type": "address"
        }
      ],
      "name": "OwnershipTransferred",
      "type": "event"
    },
    {
      "inputs": [
        {
          "internalType": "address",
          "name": "controller",
          "type": "address"
        }
      ],
      "name": "addController",
      "outputs": [],
      "stateMutability": "nonpayable",
      "type": "function"
    },
    {
      "inputs": [
        {
          "internalType": "address",
          "name": "",
          "type": "address"
        }
      ],
      "name": "controllers",
      "outputs": [
        {
          "internalType": "bool",
          "name": "",
          "type": "bool"
        }
      ],
      "stateMutability": "view",
      "type": "function"
    },
    {
      "inputs": [],
      "name": "owner",
      "outputs": [
        {
          "internalType": "address",
          "name": "",
          "type": "address"
        }
      ],
      "stateMutability": "view",
      "type": "function"
    },
    {
      "inputs": [
        {
          "internalType": "address",
          "name": "controller",
          "type": "address"
        }
      ],
      "name": "removeController",
      "outputs": [],
      "stateMutability": "nonpayable",
      "type": "function"
    },
    {
      "inputs": [],
      "name": "renounceOwnership",
      "outputs": [],
      "stateMutability": "nonpayable",
      "type": "function"
    },
    {
      "inputs": [
        {
          "internalType": "address",
          "name": "newOwner",
          "type": "address"
        }
      ],
      "name": "transferOwnership",
      "outputs": [],
      "stateMutability": "nonpayable",
      "type": "function"
    }
  ],
  "bytecode": "0x608060405234801561001057600080fd5b5061002d61002261004160201b60201c565b61004960201b60201c565b61003c3361010d60201b60201c565b61034f565b600033905090565b60008060009054906101000a900473ffffffffffffffffffffffffffffffffffffffff169050816000806101000a81548173ffffffffffffffffffffffffffffffffffffffff021916908373ffffffffffffffffffffffffffffffffffffffff1602179055508173ffffffffffffffffffffffffffffffffffffffff168173ffffffffffffffffffffffffffffffffffffffff167f8be0079c531659141344cd1fd0a4f28419497f9722a3daafe3b4186f6b6457e060405160405180910390a35050565b61011b61004160201b60201c565b73ffffffffffffffffffffffffffffffffffffffff1661013f61021760201b60201c565b73ffffffffffffffffffffffffffffffffffffffff1614610195576040517f08c379a000000000000000000000000000000000000000000000000000000000815260040161018c906102a6565b60405180910390fd5b600073ffffffffffffffffffffffffffffffffffffffff168173ffffffffffffffffffffffffffffffffffffffff161415610205576040517f08c379a00000000000000000000000000000000000000000000000000000000081526004016101fc90610286565b60405180910390fd5b6102148161004960201b60201c565b50565b60008060009054906101000a900473ffffffffffffffffffffffffffffffffffffffff16905090565b600061024d6026836102c6565b9150610258826102d7565b604082019050919050565b60006102706020836102c6565b915061027b82610326565b602082019050919050565b6000602082019050818103600083015261029f81610240565b9050919050565b600060208201905081810360008301526102bf81610263565b9050919050565b600082825260208201905092915050565b7f4f776e61626c653a206e6577206f776e657220697320746865207a65726f206160008201527f6464726573730000000000000000000000000000000000000000000000000000602082015250565b7f4f776e61626c653a2063616c6c6572206973206e6f7420746865206f776e6572600082015250565b6107818061035e6000396000f3fe608060405234801561001057600080fd5b50600436106100625760003560e01c8063715018a6146100675780638da5cb5b14610071578063a7fc7a071461008f578063da8c229e146100ab578063f2fde38b146100db578063f6a74ed7146100f7575b600080fd5b61006f610113565b005b61007961019b565b60405161008691906105f7565b60405180910390f35b6100a960048036038101906100a4919061056a565b6101c4565b005b6100c560048036038101906100c0919061056a565b61029a565b6040516100d29190610612565b60405180910390f35b6100f560048036038101906100f0919061056a565b6102ba565b005b610111600480360381019061010c919061056a565b6103b2565b005b61011b610489565b73ffffffffffffffffffffffffffffffffffffffff1661013961019b565b73ffffffffffffffffffffffffffffffffffffffff161461018f576040517f08c379a00000000000000000000000000000000000000000000000000000000081526004016101869061064d565b60405180910390fd5b6101996000610491565b565b60008060009054906101000a900473ffffffffffffffffffffffffffffffffffffffff16905090565b6101cc610489565b73ffffffffffffffffffffffffffffffffffffffff166101ea61019b565b73ffffffffffffffffffffffffffffffffffffffff1614610240576040517f08c379a00000000000000000000000000000000000000000000000000000000081526004016102379061064d565b60405180910390fd5b60018060008373ffffffffffffffffffffffffffffffffffffffff1673ffffffffffffffffffffffffffffffffffffffff16815260200190815260200160002060006101000a81548160ff02191690831515021790555050565b60016020528060005260406000206000915054906101000a900460ff1681565b6102c2610489565b73ffffffffffffffffffffffffffffffffffffffff166102e061019b565b73ffffffffffffffffffffffffffffffffffffffff1614610336576040517f08c379a000000000000000000000000000000000000000000000000000000000815260040161032d9061064d565b60405180910390fd5b600073ffffffffffffffffffffffffffffffffffffffff168173ffffffffffffffffffffffffffffffffffffffff1614156103a6576040517f08c379a000000000000000000000000000000000000000000000000000000000815260040161039d9061062d565b60405180910390fd5b6103af81610491565b50565b6103ba610489565b73ffffffffffffffffffffffffffffffffffffffff166103d861019b565b73ffffffffffffffffffffffffffffffffffffffff161461042e576040517f08c379a00000000000000000000000000000000000000000000000000000000081526004016104259061064d565b60405180910390fd5b6000600160008373ffffffffffffffffffffffffffffffffffffffff1673ffffffffffffffffffffffffffffffffffffffff16815260200190815260200160002060006101000a81548160ff02191690831515021790555050565b600033905090565b60008060009054906101000a900473ffffffffffffffffffffffffffffffffffffffff169050816000806101000a81548173ffffffffffffffffffffffffffffffffffffffff021916908373ffffffffffffffffffffffffffffffffffffffff1602179055508173ffffffffffffffffffffffffffffffffffffffff168173ffffffffffffffffffffffffffffffffffffffff167f8be0079c531659141344cd1fd0a4f28419497f9722a3daafe3b4186f6b6457e060405160405180910390a35050565b60008135905061056481610734565b92915050565b60006020828403121561057c57600080fd5b600061058a84828501610555565b91505092915050565b61059c8161067e565b82525050565b6105ab81610690565b82525050565b60006105be60268361066d565b91506105c9826106bc565b604082019050919050565b60006105e160208361066d565b91506105ec8261070b565b602082019050919050565b600060208201905061060c6000830184610593565b92915050565b600060208201905061062760008301846105a2565b92915050565b60006020820190508181036000830152610646816105b1565b9050919050565b60006020820190508181036000830152610666816105d4565b9050919050565b600082825260208201905092915050565b60006106898261069c565b9050919050565b60008115159050919050565b600073ffffffffffffffffffffffffffffffffffffffff82169050919050565b7f4f776e61626c653a206e6577206f776e657220697320746865207a65726f206160008201527f6464726573730000000000000000000000000000000000000000000000000000602082015250565b7f4f776e61626c653a2063616c6c6572206973206e6f7420746865206f776e6572600082015250565b61073d8161067e565b811461074857600080fd5b5056fea26469706673582212201f8b26d3dc13ef310172cab054edad6321184a8d860856e1d911f4cbb134cce464736f6c63430008040033",
  "linkReferences": {},
  "deployedLinkReferences": {}
}