{
  "_format": "hh-sol-artifact-1",
  "contractName": "VerifyResolver",
  "sourceName": "contracts/resolvers/profiles/VerifyResolver.sol",
  "abi": [
    {
      "inputs": [
        {
          "internalType": "contract ONSRegister",
          "name": "_ons",
          "type": "address"
        },
        {
          "internalType": "contract ResolverController",
          "name": "_rc",
          "type": "address"
        }
      ],
      "stateMutability": "nonpayable",
      "type": "constructor"
    },
    {
      "anonymous": false,
      "inputs": [
        {
          "indexed": true,
          "internalType": "address",
          "name": "previousOwner",
          "type": "address"
        },
        {
          "indexed": true,
          "internalType": "address",
          "name": "newOwner",
          "type": "address"
        }
      ],
      "name": "OwnershipTransferred",
      "type": "event"
    },
    {
      "anonymous": false,
      "inputs": [
        {
          "indexed": true,
          "internalType": "uint256",
          "name": "tokenId",
          "type": "uint256"
        },
        {
          "indexed": true,
          "internalType": "bool",
          "name": "status",
          "type": "bool"
        },
        {
          "indexed": true,
          "internalType": "address",
          "name": "nameOwner",
          "type": "address"
        }
      ],
      "name": "VerifyStatusChanged",
      "type": "event"
    },
    {
      "inputs": [
        {
          "internalType": "address",
          "name": "controller",
          "type": "address"
        }
      ],
      "name": "addController",
      "outputs": [],
      "stateMutability": "nonpayable",
      "type": "function"
    },
    {
      "inputs": [
        {
          "internalType": "uint256",
          "name": "tokenId",
          "type": "uint256"
        }
      ],
      "name": "checkVerify",
      "outputs": [
        {
          "internalType": "bool",
          "name": "",
          "type": "bool"
        }
      ],
      "stateMutability": "view",
      "type": "function"
    },
    {
      "inputs": [
        {
          "internalType": "address",
          "name": "",
          "type": "address"
        }
      ],
      "name": "controllers",
      "outputs": [
        {
          "internalType": "bool",
          "name": "",
          "type": "bool"
        }
      ],
      "stateMutability": "view",
      "type": "function"
    },
    {
      "inputs": [],
      "name": "owner",
      "outputs": [
        {
          "internalType": "address",
          "name": "",
          "type": "address"
        }
      ],
      "stateMutability": "view",
      "type": "function"
    },
    {
      "inputs": [
        {
          "internalType": "address",
          "name": "controller",
          "type": "address"
        }
      ],
      "name": "removeController",
      "outputs": [],
      "stateMutability": "nonpayable",
      "type": "function"
    },
    {
      "inputs": [],
      "name": "renounceOwnership",
      "outputs": [],
      "stateMutability": "nonpayable",
      "type": "function"
    },
    {
      "inputs": [
        {
          "internalType": "address",
          "name": "newOwner",
          "type": "address"
        }
      ],
      "name": "transferOwnership",
      "outputs": [],
      "stateMutability": "nonpayable",
      "type": "function"
    },
    {
      "inputs": [
        {
          "internalType": "uint256",
          "name": "tokenId",
          "type": "uint256"
        },
        {
          "internalType": "bool",
          "name": "_status",
          "type": "bool"
        },
        {
          "internalType": "address",
          "name": "_nameOwner",
          "type": "address"
        }
      ],
      "name": "verifyONS",
      "outputs": [],
      "stateMutability": "nonpayable",
      "type": "function"
    }
  ],
  "bytecode": "0x60806040523480156200001157600080fd5b50604051620011f2380380620011f283398181016040528101906200003791906200032b565b620000576200004b620000f260201b60201c565b620000fa60201b60201c565b6200006833620001be60201b60201c565b81600360006101000a81548173ffffffffffffffffffffffffffffffffffffffff021916908373ffffffffffffffffffffffffffffffffffffffff16021790555080600460006101000a81548173ffffffffffffffffffffffffffffffffffffffff021916908373ffffffffffffffffffffffffffffffffffffffff160217905550505062000517565b600033905090565b60008060009054906101000a900473ffffffffffffffffffffffffffffffffffffffff169050816000806101000a81548173ffffffffffffffffffffffffffffffffffffffff021916908373ffffffffffffffffffffffffffffffffffffffff1602179055508173ffffffffffffffffffffffffffffffffffffffff168173ffffffffffffffffffffffffffffffffffffffff167f8be0079c531659141344cd1fd0a4f28419497f9722a3daafe3b4186f6b6457e060405160405180910390a35050565b620001ce620000f260201b60201c565b73ffffffffffffffffffffffffffffffffffffffff16620001f4620002d460201b60201c565b73ffffffffffffffffffffffffffffffffffffffff16146200024d576040517f08c379a00000000000000000000000000000000000000000000000000000000081526004016200024490620003dc565b60405180910390fd5b600073ffffffffffffffffffffffffffffffffffffffff168173ffffffffffffffffffffffffffffffffffffffff161415620002c0576040517f08c379a0000000000000000000000000000000000000000000000000000000008152600401620002b790620003ba565b60405180910390fd5b620002d181620000fa60201b60201c565b50565b60008060009054906101000a900473ffffffffffffffffffffffffffffffffffffffff16905090565b6000815190506200030e81620004e3565b92915050565b6000815190506200032581620004fd565b92915050565b600080604083850312156200033f57600080fd5b60006200034f85828601620002fd565b9250506020620003628582860162000314565b9150509250929050565b60006200037b602683620003fe565b915062000388826200046b565b604082019050919050565b6000620003a2602083620003fe565b9150620003af82620004ba565b602082019050919050565b60006020820190508181036000830152620003d5816200036c565b9050919050565b60006020820190508181036000830152620003f78162000393565b9050919050565b600082825260208201905092915050565b60006200041c826200044b565b9050919050565b600062000430826200040f565b9050919050565b600062000444826200040f565b9050919050565b600073ffffffffffffffffffffffffffffffffffffffff82169050919050565b7f4f776e61626c653a206e6577206f776e657220697320746865207a65726f206160008201527f6464726573730000000000000000000000000000000000000000000000000000602082015250565b7f4f776e61626c653a2063616c6c6572206973206e6f7420746865206f776e6572600082015250565b620004ee8162000423565b8114620004fa57600080fd5b50565b620005088162000437565b81146200051457600080fd5b50565b610ccb80620005276000396000f3fe608060405234801561001057600080fd5b50600436106100885760003560e01c8063d8ab62b41161005b578063d8ab62b414610101578063da8c229e1461011d578063f2fde38b1461014d578063f6a74ed71461016957610088565b8063715018a61461008d5780638da5cb5b14610097578063a7fc7a07146100b5578063d6567c29146100d1575b600080fd5b610095610185565b005b61009f61020d565b6040516100ac9190610a7f565b60405180910390f35b6100cf60048036038101906100ca91906108f6565b610236565b005b6100eb60048036038101906100e69190610971565b61030c565b6040516100f89190610a9a565b60405180910390f35b61011b6004803603810190610116919061099a565b61037b565b005b610137600480360381019061013291906108f6565b610519565b6040516101449190610a9a565b60405180910390f35b610167600480360381019061016291906108f6565b610539565b005b610183600480360381019061017e91906108f6565b610631565b005b61018d610708565b73ffffffffffffffffffffffffffffffffffffffff166101ab61020d565b73ffffffffffffffffffffffffffffffffffffffff1614610201576040517f08c379a00000000000000000000000000000000000000000000000000000000081526004016101f890610af5565b60405180910390fd5b61020b6000610710565b565b60008060009054906101000a900473ffffffffffffffffffffffffffffffffffffffff16905090565b61023e610708565b73ffffffffffffffffffffffffffffffffffffffff1661025c61020d565b73ffffffffffffffffffffffffffffffffffffffff16146102b2576040517f08c379a00000000000000000000000000000000000000000000000000000000081526004016102a990610af5565b60405180910390fd5b60018060008373ffffffffffffffffffffffffffffffffffffffff1673ffffffffffffffffffffffffffffffffffffffff16815260200190815260200160002060006101000a81548160ff02191690831515021790555050565b600060026000838152602001908152602001600020600061032c846107d4565b73ffffffffffffffffffffffffffffffffffffffff1673ffffffffffffffffffffffffffffffffffffffff16815260200190815260200160002060009054906101000a900460ff169050919050565b600460009054906101000a900473ffffffffffffffffffffffffffffffffffffffff1673ffffffffffffffffffffffffffffffffffffffff1663da8c229e336040518263ffffffff1660e01b81526004016103d69190610a7f565b60206040518083038186803b1580156103ee57600080fd5b505afa158015610402573d6000803e3d6000fd5b505050506040513d601f19601f820116820180604052508101906104269190610948565b610465576040517f08c379a000000000000000000000000000000000000000000000000000000000815260040161045c90610ab5565b60405180910390fd5b816002600085815260200190815260200160002060008373ffffffffffffffffffffffffffffffffffffffff1673ffffffffffffffffffffffffffffffffffffffff16815260200190815260200160002060006101000a81548160ff0219169083151502179055508073ffffffffffffffffffffffffffffffffffffffff16821515847f269e94839738b1c78cc01fc46e7b1d739dd2cbc1578cb3a559643a4b9388d68c60405160405180910390a4505050565b60016020528060005260406000206000915054906101000a900460ff1681565b610541610708565b73ffffffffffffffffffffffffffffffffffffffff1661055f61020d565b73ffffffffffffffffffffffffffffffffffffffff16146105b5576040517f08c379a00000000000000000000000000000000000000000000000000000000081526004016105ac90610af5565b60405180910390fd5b600073ffffffffffffffffffffffffffffffffffffffff168173ffffffffffffffffffffffffffffffffffffffff161415610625576040517f08c379a000000000000000000000000000000000000000000000000000000000815260040161061c90610ad5565b60405180910390fd5b61062e81610710565b50565b610639610708565b73ffffffffffffffffffffffffffffffffffffffff1661065761020d565b73ffffffffffffffffffffffffffffffffffffffff16146106ad576040517f08c379a00000000000000000000000000000000000000000000000000000000081526004016106a490610af5565b60405180910390fd5b6000600160008373ffffffffffffffffffffffffffffffffffffffff1673ffffffffffffffffffffffffffffffffffffffff16815260200190815260200160002060006101000a81548160ff02191690831515021790555050565b600033905090565b60008060009054906101000a900473ffffffffffffffffffffffffffffffffffffffff169050816000806101000a81548173ffffffffffffffffffffffffffffffffffffffff021916908373ffffffffffffffffffffffffffffffffffffffff1602179055508173ffffffffffffffffffffffffffffffffffffffff168173ffffffffffffffffffffffffffffffffffffffff167f8be0079c531659141344cd1fd0a4f28419497f9722a3daafe3b4186f6b6457e060405160405180910390a35050565b600080600360009054906101000a900473ffffffffffffffffffffffffffffffffffffffff1673ffffffffffffffffffffffffffffffffffffffff16636352211e846040518263ffffffff1660e01b81526004016108329190610b15565b60206040518083038186803b15801561084a57600080fd5b505afa15801561085e573d6000803e3d6000fd5b505050506040513d601f19601f82011682018060405250810190610882919061091f565b905080915050919050565b60008135905061089c81610c50565b92915050565b6000815190506108b181610c50565b92915050565b6000813590506108c681610c67565b92915050565b6000815190506108db81610c67565b92915050565b6000813590506108f081610c7e565b92915050565b60006020828403121561090857600080fd5b60006109168482850161088d565b91505092915050565b60006020828403121561093157600080fd5b600061093f848285016108a2565b91505092915050565b60006020828403121561095a57600080fd5b6000610968848285016108cc565b91505092915050565b60006020828403121561098357600080fd5b6000610991848285016108e1565b91505092915050565b6000806000606084860312156109af57600080fd5b60006109bd868287016108e1565b93505060206109ce868287016108b7565b92505060406109df8682870161088d565b9150509250925092565b6109f281610b41565b82525050565b610a0181610b53565b82525050565b6000610a14602883610b30565b9150610a1f82610b89565b604082019050919050565b6000610a37602683610b30565b9150610a4282610bd8565b604082019050919050565b6000610a5a602083610b30565b9150610a6582610c27565b602082019050919050565b610a7981610b7f565b82525050565b6000602082019050610a9460008301846109e9565b92915050565b6000602082019050610aaf60008301846109f8565b92915050565b60006020820190508181036000830152610ace81610a07565b9050919050565b60006020820190508181036000830152610aee81610a2a565b9050919050565b60006020820190508181036000830152610b0e81610a4d565b9050919050565b6000602082019050610b2a6000830184610a70565b92915050565b600082825260208201905092915050565b6000610b4c82610b5f565b9050919050565b60008115159050919050565b600073ffffffffffffffffffffffffffffffffffffffff82169050919050565b6000819050919050565b7f4f4e53204e46545f5265736f6c7665723a20594f555f484156455f4e4f5f505260008201527f4f4d4f54494f4e53000000000000000000000000000000000000000000000000602082015250565b7f4f776e61626c653a206e6577206f776e657220697320746865207a65726f206160008201527f6464726573730000000000000000000000000000000000000000000000000000602082015250565b7f4f776e61626c653a2063616c6c6572206973206e6f7420746865206f776e6572600082015250565b610c5981610b41565b8114610c6457600080fd5b50565b610c7081610b53565b8114610c7b57600080fd5b50565b610c8781610b7f565b8114610c9257600080fd5b5056fea2646970667358221220f91fd2b698822a9a2785ed7d8a029aecb97ed4a8b51280bfd3b05f4f407b029f64736f6c63430008040033",
  "linkReferences": {},
  "deployedLinkReferences": {}
}