{
  "_format": "hh-sol-artifact-1",
  "contractName": "RegisterController",
  "sourceName": "contracts/RegisterController.sol",
  "abi": [
    {
      "inputs": [
        {
          "internalType": "contract ONSRegister",
          "name": "_ons",
          "type": "address"
        },
        {
          "internalType": "string",
          "name": "domain",
          "type": "string"
        }
      ],
      "stateMutability": "nonpayable",
      "type": "constructor"
    },
    {
      "anonymous": false,
      "inputs": [
        {
          "indexed": false,
          "internalType": "string",
          "name": "name",
          "type": "string"
        },
        {
          "indexed": false,
          "internalType": "uint256",
          "name": "id",
          "type": "uint256"
        }
      ],
      "name": "AddedDomain",
      "type": "event"
    },
    {
      "anonymous": false,
      "inputs": [
        {
          "indexed": false,
          "internalType": "string",
          "name": "name",
          "type": "string"
        },
        {
          "indexed": false,
          "internalType": "uint256",
          "name": "domainID",
          "type": "uint256"
        },
        {
          "indexed": true,
          "internalType": "bytes32",
          "name": "label",
          "type": "bytes32"
        },
        {
          "indexed": true,
          "internalType": "address",
          "name": "owner",
          "type": "address"
        },
        {
          "indexed": false,
          "internalType": "uint256",
          "name": "cost",
          "type": "uint256"
        },
        {
          "indexed": false,
          "internalType": "uint256",
          "name": "expires",
          "type": "uint256"
        }
      ],
      "name": "NameRegistered",
      "type": "event"
    },
    {
      "anonymous": false,
      "inputs": [
        {
          "indexed": false,
          "internalType": "string",
          "name": "name",
          "type": "string"
        },
        {
          "indexed": true,
          "internalType": "bytes32",
          "name": "label",
          "type": "bytes32"
        },
        {
          "indexed": false,
          "internalType": "uint256",
          "name": "cost",
          "type": "uint256"
        },
        {
          "indexed": false,
          "internalType": "uint256",
          "name": "expires",
          "type": "uint256"
        }
      ],
      "name": "NameRenewed",
      "type": "event"
    },
    {
      "anonymous": false,
      "inputs": [
        {
          "indexed": true,
          "internalType": "address",
          "name": "previousOwner",
          "type": "address"
        },
        {
          "indexed": true,
          "internalType": "address",
          "name": "newOwner",
          "type": "address"
        }
      ],
      "name": "OwnershipTransferred",
      "type": "event"
    },
    {
      "anonymous": false,
      "inputs": [
        {
          "indexed": false,
          "internalType": "enum RegisterController.WorkflowStatus",
          "name": "previousStatus",
          "type": "uint8"
        },
        {
          "indexed": false,
          "internalType": "enum RegisterController.WorkflowStatus",
          "name": "newStatus",
          "type": "uint8"
        }
      ],
      "name": "WorkflowStatusChange",
      "type": "event"
    },
    {
      "inputs": [],
      "name": "MIN_REGISTRATION_DURATION",
      "outputs": [
        {
          "internalType": "uint256",
          "name": "",
          "type": "uint256"
        }
      ],
      "stateMutability": "view",
      "type": "function"
    },
    {
      "inputs": [
        {
          "internalType": "string",
          "name": "_name",
          "type": "string"
        }
      ],
      "name": "addDomain",
      "outputs": [],
      "stateMutability": "nonpayable",
      "type": "function"
    },
    {
      "inputs": [
        {
          "internalType": "string",
          "name": "name",
          "type": "string"
        },
        {
          "internalType": "uint256",
          "name": "_domainID",
          "type": "uint256"
        }
      ],
      "name": "available",
      "outputs": [
        {
          "internalType": "bool",
          "name": "",
          "type": "bool"
        }
      ],
      "stateMutability": "view",
      "type": "function"
    },
    {
      "inputs": [
        {
          "internalType": "uint256",
          "name": "",
          "type": "uint256"
        }
      ],
      "name": "domains",
      "outputs": [
        {
          "internalType": "string",
          "name": "domainName",
          "type": "string"
        },
        {
          "internalType": "uint256",
          "name": "domainID",
          "type": "uint256"
        }
      ],
      "stateMutability": "view",
      "type": "function"
    },
    {
      "inputs": [
        {
          "internalType": "string",
          "name": "name",
          "type": "string"
        },
        {
          "internalType": "uint256",
          "name": "_domainID",
          "type": "uint256"
        }
      ],
      "name": "expires",
      "outputs": [
        {
          "internalType": "uint256",
          "name": "",
          "type": "uint256"
        }
      ],
      "stateMutability": "view",
      "type": "function"
    },
    {
      "inputs": [
        {
          "internalType": "uint256",
          "name": "_id",
          "type": "uint256"
        }
      ],
      "name": "getDomain",
      "outputs": [
        {
          "internalType": "string",
          "name": "",
          "type": "string"
        }
      ],
      "stateMutability": "view",
      "type": "function"
    },
    {
      "inputs": [],
      "name": "owner",
      "outputs": [
        {
          "internalType": "address",
          "name": "",
          "type": "address"
        }
      ],
      "stateMutability": "view",
      "type": "function"
    },
    {
      "inputs": [
        {
          "internalType": "string",
          "name": "_name",
          "type": "string"
        },
        {
          "internalType": "uint256",
          "name": "_domainID",
          "type": "uint256"
        },
        {
          "internalType": "uint256",
          "name": "_duration",
          "type": "uint256"
        }
      ],
      "name": "presaleRegister",
      "outputs": [],
      "stateMutability": "payable",
      "type": "function"
    },
    {
      "inputs": [
        {
          "internalType": "string",
          "name": "_name",
          "type": "string"
        },
        {
          "internalType": "uint256",
          "name": "_domainID",
          "type": "uint256"
        },
        {
          "internalType": "uint256",
          "name": "_duration",
          "type": "uint256"
        }
      ],
      "name": "register",
      "outputs": [],
      "stateMutability": "payable",
      "type": "function"
    },
    {
      "inputs": [
        {
          "internalType": "string",
          "name": "name",
          "type": "string"
        },
        {
          "internalType": "uint256",
          "name": "_domainID",
          "type": "uint256"
        },
        {
          "internalType": "uint256",
          "name": "duration",
          "type": "uint256"
        }
      ],
      "name": "registerOwner",
      "outputs": [],
      "stateMutability": "nonpayable",
      "type": "function"
    },
    {
      "inputs": [
        {
          "internalType": "string",
          "name": "name",
          "type": "string"
        },
        {
          "internalType": "uint256",
          "name": "_domainID",
          "type": "uint256"
        },
        {
          "internalType": "uint256",
          "name": "duration",
          "type": "uint256"
        }
      ],
      "name": "renew",
      "outputs": [],
      "stateMutability": "payable",
      "type": "function"
    },
    {
      "inputs": [],
      "name": "renounceOwnership",
      "outputs": [],
      "stateMutability": "nonpayable",
      "type": "function"
    },
    {
      "inputs": [
        {
          "internalType": "string",
          "name": "name",
          "type": "string"
        },
        {
          "internalType": "uint256",
          "name": "_domainID",
          "type": "uint256"
        },
        {
          "internalType": "uint256",
          "name": "duration",
          "type": "uint256"
        },
        {
          "internalType": "address",
          "name": "userAddress",
          "type": "address"
        }
      ],
      "name": "rentPrice",
      "outputs": [
        {
          "internalType": "uint256",
          "name": "",
          "type": "uint256"
        }
      ],
      "stateMutability": "view",
      "type": "function"
    },
    {
      "inputs": [
        {
          "internalType": "address[]",
          "name": "_users",
          "type": "address[]"
        }
      ],
      "name": "setDiscountAddresses",
      "outputs": [],
      "stateMutability": "nonpayable",
      "type": "function"
    },
    {
      "inputs": [
        {
          "internalType": "uint256[]",
          "name": "_chalength",
          "type": "uint256[]"
        },
        {
          "internalType": "uint256[]",
          "name": "_prices",
          "type": "uint256[]"
        }
      ],
      "name": "setDiscountPrice",
      "outputs": [],
      "stateMutability": "nonpayable",
      "type": "function"
    },
    {
      "inputs": [
        {
          "internalType": "uint256[]",
          "name": "_chalength",
          "type": "uint256[]"
        },
        {
          "internalType": "uint256[]",
          "name": "_prices",
          "type": "uint256[]"
        }
      ],
      "name": "setDomainPrice",
      "outputs": [],
      "stateMutability": "nonpayable",
      "type": "function"
    },
    {
      "inputs": [
        {
          "internalType": "address[]",
          "name": "_users",
          "type": "address[]"
        }
      ],
      "name": "setFreeMintAddresses",
      "outputs": [],
      "stateMutability": "nonpayable",
      "type": "function"
    },
    {
      "inputs": [
        {
          "internalType": "string",
          "name": "_name",
          "type": "string"
        },
        {
          "internalType": "uint256",
          "name": "_domainID",
          "type": "uint256"
        }
      ],
      "name": "setName",
      "outputs": [],
      "stateMutability": "nonpayable",
      "type": "function"
    },
    {
      "inputs": [
        {
          "internalType": "address[]",
          "name": "_users",
          "type": "address[]"
        }
      ],
      "name": "setPresaleListAddress",
      "outputs": [],
      "stateMutability": "nonpayable",
      "type": "function"
    },
    {
      "inputs": [],
      "name": "setUpPresale",
      "outputs": [],
      "stateMutability": "nonpayable",
      "type": "function"
    },
    {
      "inputs": [],
      "name": "setUpSale",
      "outputs": [],
      "stateMutability": "nonpayable",
      "type": "function"
    },
    {
      "inputs": [
        {
          "internalType": "address",
          "name": "newOwner",
          "type": "address"
        }
      ],
      "name": "transferOwnership",
      "outputs": [],
      "stateMutability": "nonpayable",
      "type": "function"
    },
    {
      "inputs": [
        {
          "internalType": "string",
          "name": "_name",
          "type": "string"
        },
        {
          "internalType": "uint256",
          "name": "_domainID",
          "type": "uint256"
        }
      ],
      "name": "unsetName",
      "outputs": [],
      "stateMutability": "nonpayable",
      "type": "function"
    },
    {
      "inputs": [
        {
          "internalType": "string",
          "name": "name",
          "type": "string"
        }
      ],
      "name": "valid",
      "outputs": [
        {
          "internalType": "bool",
          "name": "",
          "type": "bool"
        }
      ],
      "stateMutability": "pure",
      "type": "function"
    },
    {
      "inputs": [
        {
          "internalType": "address",
          "name": "_discountAddress",
          "type": "address"
        }
      ],
      "name": "verifyUserDiscount",
      "outputs": [
        {
          "internalType": "bool",
          "name": "",
          "type": "bool"
        }
      ],
      "stateMutability": "view",
      "type": "function"
    },
    {
      "inputs": [
        {
          "internalType": "address",
          "name": "_freeMintAddress",
          "type": "address"
        }
      ],
      "name": "verifyUserFreeMint",
      "outputs": [
        {
          "internalType": "bool",
          "name": "",
          "type": "bool"
        }
      ],
      "stateMutability": "view",
      "type": "function"
    },
    {
      "inputs": [
        {
          "internalType": "address",
          "name": "_presaleAddress",
          "type": "address"
        }
      ],
      "name": "verifyUserPresale",
      "outputs": [
        {
          "internalType": "bool",
          "name": "",
          "type": "bool"
        }
      ],
      "stateMutability": "view",
      "type": "function"
    },
    {
      "inputs": [],
      "name": "withdraw",
      "outputs": [],
      "stateMutability": "nonpayable",
      "type": "function"
    },
    {
      "inputs": [],
      "name": "workflow",
      "outputs": [
        {
          "internalType": "enum RegisterController.WorkflowStatus",
          "name": "",
          "type": "uint8"
        }
      ],
      "stateMutability": "view",
      "type": "function"
    }
  ],
  "bytecode": "0x60806040523480156200001157600080fd5b50604051620056ca380380620056ca8339818101604052810190620000379190620004b9565b620000576200004b6200017560201b60201c565b6200017d60201b60201c565b62000068336200024160201b60201c565b81600160006101000a81548173ffffffffffffffffffffffffffffffffffffffff021916908373ffffffffffffffffffffffffffffffffffffffff16021790555060405180604001604052808281526020016008548152506002600060085481526020019081526020016000206000820151816000019080519060200190620000f392919062000380565b506020820151816001015590505060086000815480929190620001169062000709565b91905055506000600160146101000a81548160ff0219169083600281111562000168577f4e487b7100000000000000000000000000000000000000000000000000000000600052602160045260246000fd5b0217905550505062000887565b600033905090565b60008060009054906101000a900473ffffffffffffffffffffffffffffffffffffffff169050816000806101000a81548173ffffffffffffffffffffffffffffffffffffffff021916908373ffffffffffffffffffffffffffffffffffffffff1602179055508173ffffffffffffffffffffffffffffffffffffffff168173ffffffffffffffffffffffffffffffffffffffff167f8be0079c531659141344cd1fd0a4f28419497f9722a3daafe3b4186f6b6457e060405160405180910390a35050565b620002516200017560201b60201c565b73ffffffffffffffffffffffffffffffffffffffff16620002776200035760201b60201c565b73ffffffffffffffffffffffffffffffffffffffff1614620002d0576040517f08c379a0000000000000000000000000000000000000000000000000000000008152600401620002c79062000583565b60405180910390fd5b600073ffffffffffffffffffffffffffffffffffffffff168173ffffffffffffffffffffffffffffffffffffffff16141562000343576040517f08c379a00000000000000000000000000000000000000000000000000000000081526004016200033a9062000561565b60405180910390fd5b62000354816200017d60201b60201c565b50565b60008060009054906101000a900473ffffffffffffffffffffffffffffffffffffffff16905090565b8280546200038e906200069d565b90600052602060002090601f016020900481019282620003b25760008555620003fe565b82601f10620003cd57805160ff1916838001178555620003fe565b82800160010185558215620003fe579182015b82811115620003fd578251825591602001919060010190620003e0565b5b5090506200040d919062000411565b5090565b5b808211156200042c57600081600090555060010162000412565b5090565b6000620004476200044184620005ce565b620005a5565b9050828152602081018484840111156200046057600080fd5b6200046d84828562000667565b509392505050565b60008151905062000486816200086d565b92915050565b600082601f8301126200049e57600080fd5b8151620004b084826020860162000430565b91505092915050565b60008060408385031215620004cd57600080fd5b6000620004dd8582860162000475565b925050602083015167ffffffffffffffff811115620004fb57600080fd5b62000509858286016200048c565b9150509250929050565b60006200052260268362000604565b91506200052f82620007f5565b604082019050919050565b60006200054960208362000604565b9150620005568262000844565b602082019050919050565b600060208201905081810360008301526200057c8162000513565b9050919050565b600060208201905081810360008301526200059e816200053a565b9050919050565b6000620005b1620005c4565b9050620005bf8282620006d3565b919050565b6000604051905090565b600067ffffffffffffffff821115620005ec57620005eb620007b5565b5b620005f782620007e4565b9050602081019050919050565b600082825260208201905092915050565b600062000622826200063d565b9050919050565b6000620006368262000615565b9050919050565b600073ffffffffffffffffffffffffffffffffffffffff82169050919050565b6000819050919050565b60005b83811015620006875780820151818401526020810190506200066a565b8381111562000697576000848401525b50505050565b60006002820490506001821680620006b657607f821691505b60208210811415620006cd57620006cc62000786565b5b50919050565b620006de82620007e4565b810181811067ffffffffffffffff821117156200070057620006ff620007b5565b5b80604052505050565b600062000716826200065d565b91507fffffffffffffffffffffffffffffffffffffffffffffffffffffffffffffffff8214156200074c576200074b62000757565b5b600182019050919050565b7f4e487b7100000000000000000000000000000000000000000000000000000000600052601160045260246000fd5b7f4e487b7100000000000000000000000000000000000000000000000000000000600052602260045260246000fd5b7f4e487b7100000000000000000000000000000000000000000000000000000000600052604160045260246000fd5b6000601f19601f8301169050919050565b7f4f776e61626c653a206e6577206f776e657220697320746865207a65726f206160008201527f6464726573730000000000000000000000000000000000000000000000000000602082015250565b7f4f776e61626c653a2063616c6c6572206973206e6f7420746865206f776e6572600082015250565b620008788162000629565b81146200088457600080fd5b50565b614e3380620008976000396000f3fe6080604052600436106101c25760003560e01c80638b704e81116100f75780639ebbcb9b11610095578063b975d00311610064578063b975d00314610614578063be6fc47c1461063d578063d49838b714610666578063f2fde38b1461068f576101c2565b80639ebbcb9b14610567578063a334412514610590578063a6100fca146105bb578063ac9d8c1b146105d7576101c2565b8063954a1e4a116100d1578063954a1e4a146104875780639791c097146104b057806398632ad2146104ed57806399382e6e1461052a576101c2565b80638b704e81146104175780638da5cb5b1461044057806390a9f8371461046b576101c2565b80633def78f311610164578063620ec7ab1161013e578063620ec7ab1461035a57806366cf8fab14610397578063715018a6146103d55780638a95b09f146103ec576101c2565b80633def78f3146102d857806344e2e74c146102f4578063519ad3e21461031d576101c2565b80632e8dad9f116101a05780632e8dad9f146102325780632eee77ec1461025b5780633baa8170146102985780633ccfd60b146102c1576101c2565b806315c316fc146101c75780631a7a98e2146101de5780631f2898c31461021b575b600080fd5b3480156101d357600080fd5b506101dc6106b8565b005b3480156101ea57600080fd5b5061020560048036038101906102009190613f7f565b6107c1565b6040516102129190614340565b60405180910390f35b34801561022757600080fd5b50610230610869565b005b34801561023e57600080fd5b5061025960048036038101906102549190613c85565b610a35565b005b34801561026757600080fd5b50610282600480360381019061027d9190613e49565b610b6c565b60405161028f91906142e1565b60405180910390f35b3480156102a457600080fd5b506102bf60048036038101906102ba9190613e49565b610cba565b005b3480156102cd57600080fd5b506102d6610ef3565b005b6102f260048036038101906102ed9190613d5b565b610fb8565b005b34801561030057600080fd5b5061031b60048036038101906103169190613dc7565b61123f565b005b34801561032957600080fd5b50610344600480360381019061033f9190613e49565b611367565b6040516103519190614638565b60405180910390f35b34801561036657600080fd5b50610381600480360381019061037c9190613c33565b6114a4565b60405161038e91906142e1565b60405180910390f35b3480156103a357600080fd5b506103be60048036038101906103b99190613f7f565b6114ff565b6040516103cc929190614392565b60405180910390f35b3480156103e157600080fd5b506103ea6115ab565b005b3480156103f857600080fd5b50610401611633565b60405161040e9190614638565b60405180910390f35b34801561042357600080fd5b5061043e60048036038101906104399190613e9d565b61163b565b005b34801561044c57600080fd5b50610455611bd8565b60405161046291906142c6565b60405180910390f35b61048560048036038101906104809190613d5b565b611c01565b005b34801561049357600080fd5b506104ae60048036038101906104a99190613cc6565b611e38565b005b3480156104bc57600080fd5b506104d760048036038101906104d29190613dc7565b611f70565b6040516104e491906142e1565b60405180910390f35b3480156104f957600080fd5b50610514600480360381019061050f9190613c33565b611fea565b60405161052191906142e1565b60405180910390f35b34801561053657600080fd5b50610551600480360381019061054c9190613f04565b612045565b60405161055e9190614638565b60405180910390f35b34801561057357600080fd5b5061058e60048036038101906105899190613cc6565b61248e565b005b34801561059c57600080fd5b506105a56125c6565b6040516105b291906142fc565b60405180910390f35b6105d560048036038101906105d09190613e9d565b6125d9565b005b3480156105e357600080fd5b506105fe60048036038101906105f99190613c33565b612901565b60405161060b91906142e1565b60405180910390f35b34801561062057600080fd5b5061063b60048036038101906106369190613c85565b61295c565b005b34801561064957600080fd5b50610664600480360381019061065f9190613e49565b612a93565b005b34801561067257600080fd5b5061068d60048036038101906106889190613c85565b612c96565b005b34801561069b57600080fd5b506106b660048036038101906106b19190613c33565b612dcd565b005b6106c0612ec5565b73ffffffffffffffffffffffffffffffffffffffff166106de611bd8565b73ffffffffffffffffffffffffffffffffffffffff1614610734576040517f08c379a000000000000000000000000000000000000000000000000000000000815260040161072b90614558565b60405180910390fd5b60018060146101000a81548160ff0219169083600281111561077f577f4e487b7100000000000000000000000000000000000000000000000000000000600052602160045260246000fd5b02179055507f0a97a4ee45751e2abf3e4fc8946939630b11b371ea8ae39ccdc3056e98f5cc3f600060016040516107b7929190614317565b60405180910390a1565b60606002600083815260200190815260200160002060000180546107e490614958565b80601f016020809104026020016040519081016040528092919081815260200182805461081090614958565b801561085d5780601f106108325761010080835404028352916020019161085d565b820191906000526020600020905b81548152906001019060200180831161084057829003601f168201915b50505050509050919050565b610871612ec5565b73ffffffffffffffffffffffffffffffffffffffff1661088f611bd8565b73ffffffffffffffffffffffffffffffffffffffff16146108e5576040517f08c379a00000000000000000000000000000000000000000000000000000000081526004016108dc90614558565b60405180910390fd5b6001600281111561091f577f4e487b7100000000000000000000000000000000000000000000000000000000600052602160045260246000fd5b600160149054906101000a900460ff166002811115610967577f4e487b7100000000000000000000000000000000000000000000000000000000600052602160045260246000fd5b146109a7576040517f08c379a000000000000000000000000000000000000000000000000000000000815260040161099e906144d8565b60405180910390fd5b6002600160146101000a81548160ff021916908360028111156109f3577f4e487b7100000000000000000000000000000000000000000000000000000000600052602160045260246000fd5b02179055507f0a97a4ee45751e2abf3e4fc8946939630b11b371ea8ae39ccdc3056e98f5cc3f60016002604051610a2b929190614317565b60405180910390a1565b610a3d612ec5565b73ffffffffffffffffffffffffffffffffffffffff16610a5b611bd8565b73ffffffffffffffffffffffffffffffffffffffff1614610ab1576040517f08c379a0000000000000000000000000000000000000000000000000000000008152600401610aa890614558565b60405180910390fd5b60005b8151811015610b6857600160056000848481518110610afc577f4e487b7100000000000000000000000000000000000000000000000000000000600052603260045260246000fd5b602002602001015173ffffffffffffffffffffffffffffffffffffffff1673ffffffffffffffffffffffffffffffffffffffff16815260200190815260200160002060006101000a81548160ff0219169083151502179055508080610b60906149bb565b915050610ab4565b5050565b600060011515610b7b84611f70565b151514610bbd576040517f08c379a0000000000000000000000000000000000000000000000000000000008152600401610bb490614518565b60405180910390fd5b600083610bc9846107c1565b604051602001610bda92919061427e565b604051602081830303815290604052805190602001209050610bfb84611f70565b8015610cb15750600160009054906101000a900473ffffffffffffffffffffffffffffffffffffffff1673ffffffffffffffffffffffffffffffffffffffff166396e494e88260001c6040518263ffffffff1660e01b8152600401610c609190614638565b60206040518083038186803b158015610c7857600080fd5b505afa158015610c8c573d6000803e3d6000fd5b505050506040513d601f19601f82011682018060405250810190610cb09190613d32565b5b91505092915050565b600082610cc6836107c1565b604051602001610cd792919061427e565b6040516020818303038152906040528051906020012090503373ffffffffffffffffffffffffffffffffffffffff16600160009054906101000a900473ffffffffffffffffffffffffffffffffffffffff1673ffffffffffffffffffffffffffffffffffffffff16636352211e8360001c6040518263ffffffff1660e01b8152600401610d649190614638565b60206040518083038186803b158015610d7c57600080fd5b505afa158015610d90573d6000803e3d6000fd5b505050506040513d601f19601f82011682018060405250810190610db49190613c5c565b73ffffffffffffffffffffffffffffffffffffffff1614610e0a576040517f08c379a0000000000000000000000000000000000000000000000000000000008152600401610e01906145f8565b60405180910390fd5b600083610e16846107c1565b604051602001610e279291906142a2565b6040516020818303038152906040529050600160009054906101000a900473ffffffffffffffffffffffffffffffffffffffff1673ffffffffffffffffffffffffffffffffffffffff1663ec07c2d182336040518363ffffffff1660e01b8152600401610e95929190614362565b600060405180830381600087803b158015610eaf57600080fd5b505af1158015610ec3573d6000803e3d6000fd5b505050506040513d6000823e3d601f19601f82011682018060405250810190610eec9190613e08565b5050505050565b610efb612ec5565b73ffffffffffffffffffffffffffffffffffffffff16610f19611bd8565b73ffffffffffffffffffffffffffffffffffffffff1614610f6f576040517f08c379a0000000000000000000000000000000000000000000000000000000008152600401610f6690614558565b60405180910390fd5b3373ffffffffffffffffffffffffffffffffffffffff166108fc479081150290604051600060405180830381858888f19350505050158015610fb5573d6000803e3d6000fd5b50565b60016002811115610ff2577f4e487b7100000000000000000000000000000000000000000000000000000000600052602160045260246000fd5b600160149054906101000a900460ff16600281111561103a577f4e487b7100000000000000000000000000000000000000000000000000000000600052602160045260246000fd5b1461107a576040517f08c379a0000000000000000000000000000000000000000000000000000000008152600401611071906145d8565b60405180910390fd5b61108333612901565b6110c2576040517f08c379a00000000000000000000000000000000000000000000000000000000081526004016110b990614538565b60405180910390fd5b6001151561111385858080601f016020809104026020016040519081016040528093929190818152602001838380828437600081840152601f19601f82011690508083019250505050505050611f70565b151514611155576040517f08c379a000000000000000000000000000000000000000000000000000000000815260040161114c90614518565b60405180910390fd5b600115156111a785858080601f016020809104026020016040519081016040528093929190818152602001838380828437600081840152601f19601f8201169050808301925050505050505084610b6c565b1515146111e9576040517f08c379a00000000000000000000000000000000000000000000000000000000081526004016111e0906145b8565b60405180910390fd5b61123984848080601f016020809104026020016040519081016040528093929190818152602001838380828437600081840152601f19601f82011690508083019250505050505050833384612ecd565b50505050565b611247612ec5565b73ffffffffffffffffffffffffffffffffffffffff16611265611bd8565b73ffffffffffffffffffffffffffffffffffffffff16146112bb576040517f08c379a00000000000000000000000000000000000000000000000000000000081526004016112b290614558565b60405180910390fd5b604051806040016040528082815260200160085481525060026000600854815260200190815260200160002060008201518160000190805190602001906113039291906138e1565b506020820151816001015590505060086000815480929190611324906149bb565b91905055507fce210f7ab27d589ecf7f068397efe8cb243360f4179c0816614f8449260a48af8160085460405161135c929190614392565b60405180910390a150565b60006001151561137684611f70565b1515146113b8576040517f08c379a00000000000000000000000000000000000000000000000000000000081526004016113af90614518565b60405180910390fd5b6000836113c4846107c1565b6040516020016113d592919061427e565b604051602081830303815290604052805190602001209050600160009054906101000a900473ffffffffffffffffffffffffffffffffffffffff1673ffffffffffffffffffffffffffffffffffffffff1663d6e4fa868260001c6040518263ffffffff1660e01b815260040161144b9190614638565b60206040518083038186803b15801561146357600080fd5b505afa158015611477573d6000803e3d6000fd5b505050506040513d601f19601f8201168201806040525081019061149b9190613fa8565b91505092915050565b600080600560008473ffffffffffffffffffffffffffffffffffffffff1673ffffffffffffffffffffffffffffffffffffffff16815260200190815260200160002060009054906101000a900460ff16905080915050919050565b600260205280600052604060002060009150905080600001805461152290614958565b80601f016020809104026020016040519081016040528092919081815260200182805461154e90614958565b801561159b5780601f106115705761010080835404028352916020019161159b565b820191906000526020600020905b81548152906001019060200180831161157e57829003601f168201915b5050505050908060010154905082565b6115b3612ec5565b73ffffffffffffffffffffffffffffffffffffffff166115d1611bd8565b73ffffffffffffffffffffffffffffffffffffffff1614611627576040517f08c379a000000000000000000000000000000000000000000000000000000000815260040161161e90614558565b60405180910390fd5b611631600061355f565b565b6301e1338081565b611643612ec5565b73ffffffffffffffffffffffffffffffffffffffff16611661611bd8565b73ffffffffffffffffffffffffffffffffffffffff16146116b7576040517f08c379a00000000000000000000000000000000000000000000000000000000081526004016116ae90614558565b60405180910390fd5b600115156116c484611f70565b151514611706576040517f08c379a00000000000000000000000000000000000000000000000000000000081526004016116fd90614518565b60405180910390fd5b6117108383610b6c565b61174f576040517f08c379a0000000000000000000000000000000000000000000000000000000008152600401611746906145b8565b60405180910390fd5b60006301e13380826117619190614809565b90506301e133808110156117aa576040517f08c379a00000000000000000000000000000000000000000000000000000000081526004016117a190614598565b60405180910390fd5b6000846117b6856107c1565b6040516020016117c792919061427e565b60405160208183030381529060405280519060200120905060008160001c90506000600160009054906101000a900473ffffffffffffffffffffffffffffffffffffffff1673ffffffffffffffffffffffffffffffffffffffff1663b3777b7983896118328a6107c1565b6040516020016118439291906142a2565b60405160208183030381529060405233886040518563ffffffff1660e01b81526004016118739493929190614653565b602060405180830381600087803b15801561188d57600080fd5b505af11580156118a1573d6000803e3d6000fd5b505050506040513d601f19601f820116820180604052508101906118c59190613fa8565b90503373ffffffffffffffffffffffffffffffffffffffff16837f8213363d2c0ceb13217feef2c13236d099eaf878ad0ee8c7ce587a4196ee760c898960008660405161191594939291906143c2565b60405180910390a360018060009054906101000a900473ffffffffffffffffffffffffffffffffffffffff1673ffffffffffffffffffffffffffffffffffffffff166370a08231336040518263ffffffff1660e01b815260040161197991906142c6565b60206040518083038186803b15801561199157600080fd5b505afa1580156119a5573d6000803e3d6000fd5b505050506040513d601f19601f820116820180604052508101906119c99190613fa8565b1415611bcf573373ffffffffffffffffffffffffffffffffffffffff16600160009054906101000a900473ffffffffffffffffffffffffffffffffffffffff1673ffffffffffffffffffffffffffffffffffffffff16636352211e8560001c6040518263ffffffff1660e01b8152600401611a449190614638565b60206040518083038186803b158015611a5c57600080fd5b505afa158015611a70573d6000803e3d6000fd5b505050506040513d601f19601f82011682018060405250810190611a949190613c5c565b73ffffffffffffffffffffffffffffffffffffffff1614611aea576040517f08c379a0000000000000000000000000000000000000000000000000000000008152600401611ae1906145f8565b60405180910390fd5b600087611af6886107c1565b604051602001611b079291906142a2565b6040516020818303038152906040529050600160009054906101000a900473ffffffffffffffffffffffffffffffffffffffff1673ffffffffffffffffffffffffffffffffffffffff1663ec07c2d182336040518363ffffffff1660e01b8152600401611b75929190614362565b600060405180830381600087803b158015611b8f57600080fd5b505af1158015611ba3573d6000803e3d6000fd5b505050506040513d6000823e3d601f19601f82011682018060405250810190611bcc9190613e08565b50505b50505050505050565b60008060009054906101000a900473ffffffffffffffffffffffffffffffffffffffff16905090565b600280811115611c3a577f4e487b7100000000000000000000000000000000000000000000000000000000600052602160045260246000fd5b600160149054906101000a900460ff166002811115611c82577f4e487b7100000000000000000000000000000000000000000000000000000000600052602160045260246000fd5b14611cc2576040517f08c379a0000000000000000000000000000000000000000000000000000000008152600401611cb9906144b8565b60405180910390fd5b60011515611d1385858080601f016020809104026020016040519081016040528093929190818152602001838380828437600081840152601f19601f82011690508083019250505050505050611f70565b151514611d55576040517f08c379a0000000000000000000000000000000000000000000000000000000008152600401611d4c90614518565b60405180910390fd5b611da384848080601f016020809104026020016040519081016040528093929190818152602001838380828437600081840152601f19601f8201169050808301925050505050505083610b6c565b611de2576040517f08c379a0000000000000000000000000000000000000000000000000000000008152600401611dd9906145b8565b60405180910390fd5b611e3284848080601f016020809104026020016040519081016040528093929190818152602001838380828437600081840152601f19601f82011690508083019250505050505050833384612ecd565b50505050565b611e40612ec5565b73ffffffffffffffffffffffffffffffffffffffff16611e5e611bd8565b73ffffffffffffffffffffffffffffffffffffffff1614611eb4576040517f08c379a0000000000000000000000000000000000000000000000000000000008152600401611eab90614558565b60405180910390fd5b60005b8251811015611f6b57818181518110611ef9577f4e487b7100000000000000000000000000000000000000000000000000000000600052603260045260246000fd5b602002602001015160076000858481518110611f3e577f4e487b7100000000000000000000000000000000000000000000000000000000600052603260045260246000fd5b60200260200101518152602001908152602001600020819055508080611f63906149bb565b915050611eb7565b505050565b600060011515611f7f83613623565b151514611fc1576040517f08c379a0000000000000000000000000000000000000000000000000000000008152600401611fb890614578565b60405180910390fd5b6001611fcc83613706565b10158015611fe35750601c611fe083613706565b11155b9050919050565b600080600460008473ffffffffffffffffffffffffffffffffffffffff1673ffffffffffffffffffffffffffffffffffffffff16815260200190815260200160002060009054906101000a900460ff16905080915050919050565b60006001151561205486611f70565b151514612096576040517f08c379a000000000000000000000000000000000000000000000000000000000815260040161208d90614518565b60405180910390fd5b61209f826114a4565b80156120b4575060066120b186613706565b10155b156120c25760009050612486565b6120cb82611fea565b806120db57506120da82612901565b5b156122b55760016120eb86613706565b1415612131576000670de0b6b3a764000060076000600181526020019081526020016000205461211b9190614809565b905083816121299190614809565b915050612486565b600261213c86613706565b1415612182576000670de0b6b3a764000060076000600281526020019081526020016000205461216c9190614809565b9050838161217a9190614809565b915050612486565b600361218d86613706565b14156121d3576000670de0b6b3a76400006007600060038152602001908152602001600020546121bd9190614809565b905083816121cb9190614809565b915050612486565b60046121de86613706565b1415612224576000670de0b6b3a764000060076000600481526020019081526020016000205461220e9190614809565b9050838161221c9190614809565b915050612486565b600561222f86613706565b1415612275576000670de0b6b3a764000060076000600581526020019081526020016000205461225f9190614809565b9050838161226d9190614809565b915050612486565b6000670de0b6b3a764000060076000600681526020019081526020016000205461229f9190614809565b905083816122ad9190614809565b915050612486565b60016122c086613706565b1415612306576000670de0b6b3a76400006006600060018152602001908152602001600020546122f09190614809565b905083816122fe9190614809565b915050612486565b600261231186613706565b1415612357576000670de0b6b3a76400006006600060028152602001908152602001600020546123419190614809565b9050838161234f9190614809565b915050612486565b600361236286613706565b14156123a8576000670de0b6b3a76400006006600060038152602001908152602001600020546123929190614809565b905083816123a09190614809565b915050612486565b60046123b386613706565b14156123f9576000670de0b6b3a76400006006600060048152602001908152602001600020546123e39190614809565b905083816123f19190614809565b915050612486565b600561240486613706565b141561244a576000670de0b6b3a76400006006600060058152602001908152602001600020546124349190614809565b905083816124429190614809565b915050612486565b6000670de0b6b3a76400006006600060068152602001908152602001600020546124749190614809565b905083816124829190614809565b9150505b949350505050565b612496612ec5565b73ffffffffffffffffffffffffffffffffffffffff166124b4611bd8565b73ffffffffffffffffffffffffffffffffffffffff161461250a576040517f08c379a000000000000000000000000000000000000000000000000000000000815260040161250190614558565b60405180910390fd5b60005b82518110156125c15781818151811061254f577f4e487b7100000000000000000000000000000000000000000000000000000000600052603260045260246000fd5b602002602001015160066000858481518110612594577f4e487b7100000000000000000000000000000000000000000000000000000000600052603260045260246000fd5b602002602001015181526020019081526020016000208190555080806125b9906149bb565b91505061250d565b505050565b600160149054906101000a900460ff1681565b6000836125e5846107c1565b6040516020016125f692919061427e565b6040516020818303038152906040528051906020012090503373ffffffffffffffffffffffffffffffffffffffff16600160009054906101000a900473ffffffffffffffffffffffffffffffffffffffff1673ffffffffffffffffffffffffffffffffffffffff16636352211e8360001c6040518263ffffffff1660e01b81526004016126839190614638565b60206040518083038186803b15801561269b57600080fd5b505afa1580156126af573d6000803e3d6000fd5b505050506040513d601f19601f820116820180604052508101906126d39190613c5c565b73ffffffffffffffffffffffffffffffffffffffff1614612729576040517f08c379a0000000000000000000000000000000000000000000000000000000008152600401612720906145f8565b60405180910390fd5b61273584848433612045565b341015612777576040517f08c379a000000000000000000000000000000000000000000000000000000000815260040161276e90614618565b60405180910390fd5b60006301e13380836127899190614809565b90506000600160009054906101000a900473ffffffffffffffffffffffffffffffffffffffff1673ffffffffffffffffffffffffffffffffffffffff1663c475abff8460001c846040518363ffffffff1660e01b81526004016127ed92919061469f565b602060405180830381600087803b15801561280757600080fd5b505af115801561281b573d6000803e3d6000fd5b505050506040513d601f19601f8201168201806040525081019061283f9190613fa8565b905061284d86868633612045565b3411156128b2573373ffffffffffffffffffffffffffffffffffffffff166108fc61287a88888833612045565b346128859190614863565b9081150290604051600060405180830381858888f193505050501580156128b0573d6000803e3d6000fd5b505b827f3da24c024582931cfaf8267d8ed24d13a82a8068d5bd337d30ec45cea4e506ae876128e189898933612045565b846040516128f19392919061440e565b60405180910390a2505050505050565b600080600360008473ffffffffffffffffffffffffffffffffffffffff1673ffffffffffffffffffffffffffffffffffffffff16815260200190815260200160002060009054906101000a900460ff16905080915050919050565b612964612ec5565b73ffffffffffffffffffffffffffffffffffffffff16612982611bd8565b73ffffffffffffffffffffffffffffffffffffffff16146129d8576040517f08c379a00000000000000000000000000000000000000000000000000000000081526004016129cf90614558565b60405180910390fd5b60005b8151811015612a8f57600160046000848481518110612a23577f4e487b7100000000000000000000000000000000000000000000000000000000600052603260045260246000fd5b602002602001015173ffffffffffffffffffffffffffffffffffffffff1673ffffffffffffffffffffffffffffffffffffffff16815260200190815260200160002060006101000a81548160ff0219169083151502179055508080612a87906149bb565b9150506129db565b5050565b600082612a9f836107c1565b604051602001612ab092919061427e565b6040516020818303038152906040528051906020012090503373ffffffffffffffffffffffffffffffffffffffff16600160009054906101000a900473ffffffffffffffffffffffffffffffffffffffff1673ffffffffffffffffffffffffffffffffffffffff16636352211e8360001c6040518263ffffffff1660e01b8152600401612b3d9190614638565b60206040518083038186803b158015612b5557600080fd5b505afa158015612b69573d6000803e3d6000fd5b505050506040513d601f19601f82011682018060405250810190612b8d9190613c5c565b73ffffffffffffffffffffffffffffffffffffffff1614612be3576040517f08c379a0000000000000000000000000000000000000000000000000000000008152600401612bda906145f8565b60405180910390fd5b600160009054906101000a900473ffffffffffffffffffffffffffffffffffffffff1673ffffffffffffffffffffffffffffffffffffffff16631a34c325336040518263ffffffff1660e01b8152600401612c3e91906142c6565b602060405180830381600087803b158015612c5857600080fd5b505af1158015612c6c573d6000803e3d6000fd5b505050506040513d601f19601f82011682018060405250810190612c909190613d32565b50505050565b612c9e612ec5565b73ffffffffffffffffffffffffffffffffffffffff16612cbc611bd8565b73ffffffffffffffffffffffffffffffffffffffff1614612d12576040517f08c379a0000000000000000000000000000000000000000000000000000000008152600401612d0990614558565b60405180910390fd5b60005b8151811015612dc957600160036000848481518110612d5d577f4e487b7100000000000000000000000000000000000000000000000000000000600052603260045260246000fd5b602002602001015173ffffffffffffffffffffffffffffffffffffffff1673ffffffffffffffffffffffffffffffffffffffff16815260200190815260200160002060006101000a81548160ff0219169083151502179055508080612dc1906149bb565b915050612d15565b5050565b612dd5612ec5565b73ffffffffffffffffffffffffffffffffffffffff16612df3611bd8565b73ffffffffffffffffffffffffffffffffffffffff1614612e49576040517f08c379a0000000000000000000000000000000000000000000000000000000008152600401612e4090614558565b60405180910390fd5b600073ffffffffffffffffffffffffffffffffffffffff168173ffffffffffffffffffffffffffffffffffffffff161415612eb9576040517f08c379a0000000000000000000000000000000000000000000000000000000008152600401612eb090614498565b60405180910390fd5b612ec28161355f565b50565b600033905090565b60006301e1338082612edf9190614809565b90506301e13380811015612f28576040517f08c379a0000000000000000000000000000000000000000000000000000000008152600401612f1f90614598565b60405180910390fd5b612f3485858486612045565b341015612f76576040517f08c379a0000000000000000000000000000000000000000000000000000000008152600401612f6d906144f8565b60405180910390fd5b600085612f82866107c1565b604051602001612f9392919061427e565b60405160208183030381529060405280519060200120905060008160001c90506000600160009054906101000a900473ffffffffffffffffffffffffffffffffffffffff1673ffffffffffffffffffffffffffffffffffffffff1663b3777b79838a612ffe8b6107c1565b60405160200161300f9291906142a2565b60405160208183030381529060405289886040518563ffffffff1660e01b815260040161303f9493929190614653565b602060405180830381600087803b15801561305957600080fd5b505af115801561306d573d6000803e3d6000fd5b505050506040513d601f19601f820116820180604052508101906130919190613fa8565b90508573ffffffffffffffffffffffffffffffffffffffff16837f8213363d2c0ceb13217feef2c13236d099eaf878ad0ee8c7ce587a4196ee760c8a8a6130da8d8d8c8e612045565b866040516130eb949392919061444c565b60405180910390a360018060009054906101000a900473ffffffffffffffffffffffffffffffffffffffff1673ffffffffffffffffffffffffffffffffffffffff166370a08231886040518263ffffffff1660e01b815260040161314f91906142c6565b60206040518083038186803b15801561316757600080fd5b505afa15801561317b573d6000803e3d6000fd5b505050506040513d601f19601f8201168201806040525081019061319f9190613fa8565b14156133a5578573ffffffffffffffffffffffffffffffffffffffff16600160009054906101000a900473ffffffffffffffffffffffffffffffffffffffff1673ffffffffffffffffffffffffffffffffffffffff16636352211e8560001c6040518263ffffffff1660e01b815260040161321a9190614638565b60206040518083038186803b15801561323257600080fd5b505afa158015613246573d6000803e3d6000fd5b505050506040513d601f19601f8201168201806040525081019061326a9190613c5c565b73ffffffffffffffffffffffffffffffffffffffff16146132c0576040517f08c379a00000000000000000000000000000000000000000000000000000000081526004016132b7906145f8565b60405180910390fd5b6000886132cc896107c1565b6040516020016132dd9291906142a2565b6040516020818303038152906040529050600160009054906101000a900473ffffffffffffffffffffffffffffffffffffffff1673ffffffffffffffffffffffffffffffffffffffff1663ec07c2d182896040518363ffffffff1660e01b815260040161334b929190614362565b600060405180830381600087803b15801561336557600080fd5b505af1158015613379573d6000803e3d6000fd5b505050506040513d6000823e3d601f19601f820116820180604052508101906133a29190613e08565b50505b6133ae866114a4565b15613410576000600560008873ffffffffffffffffffffffffffffffffffffffff1673ffffffffffffffffffffffffffffffffffffffff16815260200190815260200160002060006101000a81548160ff0219169083151502179055506134e4565b61341986611fea565b1561347b576000600460008873ffffffffffffffffffffffffffffffffffffffff1673ffffffffffffffffffffffffffffffffffffffff16815260200190815260200160002060006101000a81548160ff0219169083151502179055506134e3565b61348486612901565b156134e2576000600360008873ffffffffffffffffffffffffffffffffffffffff1673ffffffffffffffffffffffffffffffffffffffff16815260200190815260200160002060006101000a81548160ff0219169083151502179055505b5b5b6134f088888789612045565b341115613555573373ffffffffffffffffffffffffffffffffffffffff166108fc61351d8a8a898b612045565b346135289190614863565b9081150290604051600060405180830381858888f19350505050158015613553573d6000803e3d6000fd5b505b5050505050505050565b60008060009054906101000a900473ffffffffffffffffffffffffffffffffffffffff169050816000806101000a81548173ffffffffffffffffffffffffffffffffffffffff021916908373ffffffffffffffffffffffffffffffffffffffff1602179055508173ffffffffffffffffffffffffffffffffffffffff168173ffffffffffffffffffffffffffffffffffffffff167f8be0079c531659141344cd1fd0a4f28419497f9722a3daafe3b4186f6b6457e060405160405180910390a35050565b600080600090506000808490505b80518310156136ea576000818481518110613675577f4e487b7100000000000000000000000000000000000000000000000000000000600052603260045260246000fd5b602001015160f81c60f81b60f81c60ff1690506030811015801561369a575060398111155b806136b35750606181101580156136b25750607a8111155b5b156136cb5782806136c3906149bb565b9350506136d5565b60009250506136ea565b6001846136e291906147b3565b935050613631565b600082146136f95760016136fc565b60005b9350505050919050565b60008060008084519050600092505b808210156138d6576000858381518110613758577f4e487b7100000000000000000000000000000000000000000000000000000000600052603260045260246000fd5b602001015160f81c60f81b9050608060f81b817effffffffffffffffffffffffffffffffffffffffffffffffffffffffffffff191610156137a7576001836137a091906147b3565b92506138c2565b60e060f81b817effffffffffffffffffffffffffffffffffffffffffffffffffffffffffffff191610156137e9576002836137e291906147b3565b92506138c1565b60f060f81b817effffffffffffffffffffffffffffffffffffffffffffffffffffffffffffff1916101561382b5760038361382491906147b3565b92506138c0565b60f8801b817effffffffffffffffffffffffffffffffffffffffffffffffffffffffffffff1916101561386c5760048361386591906147b3565b92506138bf565b60fc60f81b817effffffffffffffffffffffffffffffffffffffffffffffffffffffffffffff191610156138ae576005836138a791906147b3565b92506138be565b6006836138bb91906147b3565b92505b5b5b5b5b5082806138ce906149bb565b935050613715565b829350505050919050565b8280546138ed90614958565b90600052602060002090601f01602090048101928261390f5760008555613956565b82601f1061392857805160ff1916838001178555613956565b82800160010185558215613956579182015b8281111561395557825182559160200191906001019061393a565b5b5090506139639190613967565b5090565b5b80821115613980576000816000905550600101613968565b5090565b6000613997613992846146ed565b6146c8565b905080838252602082019050828560208602820111156139b657600080fd5b60005b858110156139e657816139cc8882613ad8565b8452602084019350602083019250506001810190506139b9565b5050509392505050565b6000613a036139fe84614719565b6146c8565b90508083825260208201905082856020860282011115613a2257600080fd5b60005b85811015613a525781613a388882613c09565b845260208401935060208301925050600181019050613a25565b5050509392505050565b6000613a6f613a6a84614745565b6146c8565b905082815260208101848484011115613a8757600080fd5b613a92848285614916565b509392505050565b6000613aad613aa884614745565b6146c8565b905082815260208101848484011115613ac557600080fd5b613ad0848285614925565b509392505050565b600081359050613ae781614db8565b92915050565b600081519050613afc81614db8565b92915050565b600082601f830112613b1357600080fd5b8135613b23848260208601613984565b91505092915050565b600082601f830112613b3d57600080fd5b8135613b4d8482602086016139f0565b91505092915050565b600081519050613b6581614dcf565b92915050565b60008083601f840112613b7d57600080fd5b8235905067ffffffffffffffff811115613b9657600080fd5b602083019150836001820283011115613bae57600080fd5b9250929050565b600082601f830112613bc657600080fd5b8135613bd6848260208601613a5c565b91505092915050565b600082601f830112613bf057600080fd5b8151613c00848260208601613a9a565b91505092915050565b600081359050613c1881614de6565b92915050565b600081519050613c2d81614de6565b92915050565b600060208284031215613c4557600080fd5b6000613c5384828501613ad8565b91505092915050565b600060208284031215613c6e57600080fd5b6000613c7c84828501613aed565b91505092915050565b600060208284031215613c9757600080fd5b600082013567ffffffffffffffff811115613cb157600080fd5b613cbd84828501613b02565b91505092915050565b60008060408385031215613cd957600080fd5b600083013567ffffffffffffffff811115613cf357600080fd5b613cff85828601613b2c565b925050602083013567ffffffffffffffff811115613d1c57600080fd5b613d2885828601613b2c565b9150509250929050565b600060208284031215613d4457600080fd5b6000613d5284828501613b56565b91505092915050565b60008060008060608587031215613d7157600080fd5b600085013567ffffffffffffffff811115613d8b57600080fd5b613d9787828801613b6b565b94509450506020613daa87828801613c09565b9250506040613dbb87828801613c09565b91505092959194509250565b600060208284031215613dd957600080fd5b600082013567ffffffffffffffff811115613df357600080fd5b613dff84828501613bb5565b91505092915050565b600060208284031215613e1a57600080fd5b600082015167ffffffffffffffff811115613e3457600080fd5b613e4084828501613bdf565b91505092915050565b60008060408385031215613e5c57600080fd5b600083013567ffffffffffffffff811115613e7657600080fd5b613e8285828601613bb5565b9250506020613e9385828601613c09565b9150509250929050565b600080600060608486031215613eb257600080fd5b600084013567ffffffffffffffff811115613ecc57600080fd5b613ed886828701613bb5565b9350506020613ee986828701613c09565b9250506040613efa86828701613c09565b9150509250925092565b60008060008060808587031215613f1a57600080fd5b600085013567ffffffffffffffff811115613f3457600080fd5b613f4087828801613bb5565b9450506020613f5187828801613c09565b9350506040613f6287828801613c09565b9250506060613f7387828801613ad8565b91505092959194509250565b600060208284031215613f9157600080fd5b6000613f9f84828501613c09565b91505092915050565b600060208284031215613fba57600080fd5b6000613fc884828501613c1e565b91505092915050565b613fda81614897565b82525050565b613fe9816148a9565b82525050565b6000613ffa82614776565b614004818561478c565b9350614014818560208601614925565b80840191505092915050565b614029816148f2565b82525050565b61403881614904565b82525050565b600061404982614781565b6140538185614797565b9350614063818560208601614925565b61406c81614ac0565b840191505092915050565b600061408282614781565b61408c81856147a8565b935061409c818560208601614925565b80840191505092915050565b60006140b5602683614797565b91506140c082614ad1565b604082019050919050565b60006140d8602083614797565b91506140e382614b20565b602082019050919050565b60006140fb602483614797565b915061410682614b49565b604082019050919050565b600061411e601c83614797565b915061412982614b98565b602082019050919050565b6000614141601783614797565b915061414c82614bc1565b602082019050919050565b6000614164601d83614797565b915061416f82614bea565b602082019050919050565b6000614187602083614797565b915061419282614c13565b602082019050919050565b60006141aa601e83614797565b91506141b582614c3c565b602082019050919050565b60006141cd602783614797565b91506141d882614c65565b604082019050919050565b60006141f0601b83614797565b91506141fb82614cb4565b602082019050919050565b6000614213601d83614797565b915061421e82614cdd565b602082019050919050565b6000614236602883614797565b915061424182614d06565b604082019050919050565b6000614259602283614797565b915061426482614d55565b604082019050919050565b614278816148e8565b82525050565b600061428a8285613fef565b91506142968284613fef565b91508190509392505050565b60006142ae8285614077565b91506142ba8284614077565b91508190509392505050565b60006020820190506142db6000830184613fd1565b92915050565b60006020820190506142f66000830184613fe0565b92915050565b60006020820190506143116000830184614020565b92915050565b600060408201905061432c6000830185614020565b6143396020830184614020565b9392505050565b6000602082019050818103600083015261435a818461403e565b905092915050565b6000604082019050818103600083015261437c818561403e565b905061438b6020830184613fd1565b9392505050565b600060408201905081810360008301526143ac818561403e565b90506143bb602083018461426f565b9392505050565b600060808201905081810360008301526143dc818761403e565b90506143eb602083018661426f565b6143f8604083018561402f565b614405606083018461426f565b95945050505050565b60006060820190508181036000830152614428818661403e565b9050614437602083018561426f565b614444604083018461426f565b949350505050565b60006080820190508181036000830152614466818761403e565b9050614475602083018661426f565b614482604083018561426f565b61448f606083018461426f565b95945050505050565b600060208201905081810360008301526144b1816140a8565b9050919050565b600060208201905081810360008301526144d1816140cb565b9050919050565b600060208201905081810360008301526144f1816140ee565b9050919050565b6000602082019050818103600083015261451181614111565b9050919050565b6000602082019050818103600083015261453181614134565b9050919050565b6000602082019050818103600083015261455181614157565b9050919050565b600060208201905081810360008301526145718161417a565b9050919050565b600060208201905081810360008301526145918161419d565b9050919050565b600060208201905081810360008301526145b1816141c0565b9050919050565b600060208201905081810360008301526145d1816141e3565b9050919050565b600060208201905081810360008301526145f181614206565b9050919050565b6000602082019050818103600083015261461181614229565b9050919050565b600060208201905081810360008301526146318161424c565b9050919050565b600060208201905061464d600083018461426f565b92915050565b6000608082019050614668600083018761426f565b818103602083015261467a818661403e565b90506146896040830185613fd1565b614696606083018461426f565b95945050505050565b60006040820190506146b4600083018561426f565b6146c1602083018461426f565b9392505050565b60006146d26146e3565b90506146de828261498a565b919050565b6000604051905090565b600067ffffffffffffffff82111561470857614707614a91565b5b602082029050602081019050919050565b600067ffffffffffffffff82111561473457614733614a91565b5b602082029050602081019050919050565b600067ffffffffffffffff8211156147605761475f614a91565b5b61476982614ac0565b9050602081019050919050565b600081519050919050565b600081519050919050565b600081905092915050565b600082825260208201905092915050565b600081905092915050565b60006147be826148e8565b91506147c9836148e8565b9250827fffffffffffffffffffffffffffffffffffffffffffffffffffffffffffffffff038211156147fe576147fd614a04565b5b828201905092915050565b6000614814826148e8565b915061481f836148e8565b9250817fffffffffffffffffffffffffffffffffffffffffffffffffffffffffffffffff048311821515161561485857614857614a04565b5b828202905092915050565b600061486e826148e8565b9150614879836148e8565b92508282101561488c5761488b614a04565b5b828203905092915050565b60006148a2826148c8565b9050919050565b60008115159050919050565b60008190506148c382614da4565b919050565b600073ffffffffffffffffffffffffffffffffffffffff82169050919050565b6000819050919050565b60006148fd826148b5565b9050919050565b600061490f826148e8565b9050919050565b82818337600083830152505050565b60005b83811015614943578082015181840152602081019050614928565b83811115614952576000848401525b50505050565b6000600282049050600182168061497057607f821691505b6020821081141561498457614983614a62565b5b50919050565b61499382614ac0565b810181811067ffffffffffffffff821117156149b2576149b1614a91565b5b80604052505050565b60006149c6826148e8565b91507fffffffffffffffffffffffffffffffffffffffffffffffffffffffffffffffff8214156149f9576149f8614a04565b5b600182019050919050565b7f4e487b7100000000000000000000000000000000000000000000000000000000600052601160045260246000fd5b7f4e487b7100000000000000000000000000000000000000000000000000000000600052602160045260246000fd5b7f4e487b7100000000000000000000000000000000000000000000000000000000600052602260045260246000fd5b7f4e487b7100000000000000000000000000000000000000000000000000000000600052604160045260246000fd5b6000601f19601f8301169050919050565b7f4f776e61626c653a206e6577206f776e657220697320746865207a65726f206160008201527f6464726573730000000000000000000000000000000000000000000000000000602082015250565b7f4f4e53433a205055424c494353414c455f4e4f545f535441525445445f594554600082015250565b7f4f4e53433a20504c454153455f53544152545f5448455f50524553414c455f4660008201527f4952535400000000000000000000000000000000000000000000000000000000602082015250565b7f4f4e53433a20594f555f53454e4445445f57524f4e475f56414c554500000000600082015250565b7f4f4e53433a204e414d455f49535f4e4f545f56414c4944000000000000000000600082015250565b7f4f4e53433a20594f555f4152455f4e4f545f494e5f50524553414c4521000000600082015250565b7f4f776e61626c653a2063616c6c6572206973206e6f7420746865206f776e6572600082015250565b7f4f4e53433a205448455f4e414d455f4d5553545f42455f454e474c4953480000600082015250565b7f4f4e53433a204d494e5f524547495354524154494f4e5f4455524154494f4e5f60008201527f49535f5945415200000000000000000000000000000000000000000000000000602082015250565b7f4f4e53433a204e414d455f49535f4e4f545f415641494c41424c450000000000600082015250565b7f4f4e53433a2050524553414c455f4e4f545f535441525445445f594554000000600082015250565b7f4f4e53433a20594f555f4152455f4e4f545f5448455f4f574e45525f4f465f5460008201527f4849535f4e414d45000000000000000000000000000000000000000000000000602082015250565b7f4f4e53433a20594f555f53454e4445445f57524f4e475f56414c55455f52454e60008201527f4557000000000000000000000000000000000000000000000000000000000000602082015250565b60038110614db557614db4614a33565b5b50565b614dc181614897565b8114614dcc57600080fd5b50565b614dd8816148a9565b8114614de357600080fd5b50565b614def816148e8565b8114614dfa57600080fd5b5056fea2646970667358221220bd1998b9c7689afdca74197d13357d6cee4c29dab09aca067f38530585ada17764736f6c63430008040033",
  "linkReferences": {},
  "deployedLinkReferences": {}
}