{
  "_format": "hh-sol-artifact-1",
  "contractName": "RegisterControllerV3",
  "sourceName": "contracts/RegisterControllerV3.sol",
  "abi": [
    {
      "inputs": [
        {
          "internalType": "contract ONSRegister",
          "name": "_ons",
          "type": "address"
        },
        {
          "internalType": "contract TopLevelDomain",
          "name": "_topLevelDomain",
          "type": "address"
        },
        {
          "internalType": "contract ListsController",
          "name": "_listsController",
          "type": "address"
        }
      ],
      "stateMutability": "nonpayable",
      "type": "constructor"
    },
    {
      "anonymous": false,
      "inputs": [
        {
          "indexed": false,
          "internalType": "string",
          "name": "name",
          "type": "string"
        },
        {
          "indexed": false,
          "internalType": "uint256",
          "name": "domainID",
          "type": "uint256"
        },
        {
          "indexed": true,
          "internalType": "bytes32",
          "name": "label",
          "type": "bytes32"
        },
        {
          "indexed": true,
          "internalType": "address",
          "name": "owner",
          "type": "address"
        },
        {
          "indexed": false,
          "internalType": "uint256",
          "name": "cost",
          "type": "uint256"
        },
        {
          "indexed": false,
          "internalType": "uint256",
          "name": "expires",
          "type": "uint256"
        }
      ],
      "name": "NameRegistered",
      "type": "event"
    },
    {
      "anonymous": false,
      "inputs": [
        {
          "indexed": false,
          "internalType": "string",
          "name": "name",
          "type": "string"
        },
        {
          "indexed": true,
          "internalType": "bytes32",
          "name": "label",
          "type": "bytes32"
        },
        {
          "indexed": false,
          "internalType": "uint256",
          "name": "cost",
          "type": "uint256"
        },
        {
          "indexed": false,
          "internalType": "uint256",
          "name": "expires",
          "type": "uint256"
        }
      ],
      "name": "NameRenewed",
      "type": "event"
    },
    {
      "anonymous": false,
      "inputs": [
        {
          "indexed": true,
          "internalType": "address",
          "name": "previousOwner",
          "type": "address"
        },
        {
          "indexed": true,
          "internalType": "address",
          "name": "newOwner",
          "type": "address"
        }
      ],
      "name": "OwnershipTransferred",
      "type": "event"
    },
    {
      "inputs": [],
      "name": "MIN_REGISTRATION_DURATION",
      "outputs": [
        {
          "internalType": "uint256",
          "name": "",
          "type": "uint256"
        }
      ],
      "stateMutability": "view",
      "type": "function"
    },
    {
      "inputs": [
        {
          "internalType": "string",
          "name": "_name",
          "type": "string"
        },
        {
          "internalType": "uint256",
          "name": "_domainID",
          "type": "uint256"
        }
      ],
      "name": "available",
      "outputs": [
        {
          "internalType": "bool",
          "name": "",
          "type": "bool"
        }
      ],
      "stateMutability": "view",
      "type": "function"
    },
    {
      "inputs": [
        {
          "internalType": "string",
          "name": "_name",
          "type": "string"
        },
        {
          "internalType": "uint256",
          "name": "_domainID",
          "type": "uint256"
        }
      ],
      "name": "expires",
      "outputs": [
        {
          "internalType": "uint256",
          "name": "",
          "type": "uint256"
        }
      ],
      "stateMutability": "view",
      "type": "function"
    },
    {
      "inputs": [
        {
          "internalType": "string",
          "name": "_name",
          "type": "string"
        }
      ],
      "name": "getDomainID",
      "outputs": [
        {
          "internalType": "uint256",
          "name": "",
          "type": "uint256"
        }
      ],
      "stateMutability": "view",
      "type": "function"
    },
    {
      "inputs": [],
      "name": "owner",
      "outputs": [
        {
          "internalType": "address",
          "name": "",
          "type": "address"
        }
      ],
      "stateMutability": "view",
      "type": "function"
    },
    {
      "inputs": [
        {
          "internalType": "string",
          "name": "_name",
          "type": "string"
        },
        {
          "internalType": "uint256",
          "name": "_domainID",
          "type": "uint256"
        },
        {
          "internalType": "uint256",
          "name": "_duration",
          "type": "uint256"
        }
      ],
      "name": "register",
      "outputs": [],
      "stateMutability": "payable",
      "type": "function"
    },
    {
      "inputs": [
        {
          "internalType": "string",
          "name": "_name",
          "type": "string"
        },
        {
          "internalType": "uint256",
          "name": "_domainID",
          "type": "uint256"
        },
        {
          "internalType": "uint256",
          "name": "_duration",
          "type": "uint256"
        }
      ],
      "name": "registerOwner",
      "outputs": [],
      "stateMutability": "nonpayable",
      "type": "function"
    },
    {
      "inputs": [
        {
          "internalType": "string",
          "name": "_name",
          "type": "string"
        },
        {
          "internalType": "uint256",
          "name": "_domainID",
          "type": "uint256"
        },
        {
          "internalType": "uint256",
          "name": "_duration",
          "type": "uint256"
        }
      ],
      "name": "renew",
      "outputs": [],
      "stateMutability": "payable",
      "type": "function"
    },
    {
      "inputs": [],
      "name": "renounceOwnership",
      "outputs": [],
      "stateMutability": "nonpayable",
      "type": "function"
    },
    {
      "inputs": [
        {
          "internalType": "string",
          "name": "_name",
          "type": "string"
        },
        {
          "internalType": "uint256",
          "name": "_domainID",
          "type": "uint256"
        },
        {
          "internalType": "uint256",
          "name": "_duration",
          "type": "uint256"
        },
        {
          "internalType": "address",
          "name": "_userAddress",
          "type": "address"
        },
        {
          "internalType": "bool",
          "name": "_isSale",
          "type": "bool"
        }
      ],
      "name": "rentPrice",
      "outputs": [
        {
          "internalType": "uint256",
          "name": "",
          "type": "uint256"
        }
      ],
      "stateMutability": "view",
      "type": "function"
    },
    {
      "inputs": [
        {
          "internalType": "contract ListsController",
          "name": "_listsController",
          "type": "address"
        }
      ],
      "name": "setListsController",
      "outputs": [],
      "stateMutability": "nonpayable",
      "type": "function"
    },
    {
      "inputs": [
        {
          "internalType": "string",
          "name": "_name",
          "type": "string"
        },
        {
          "internalType": "uint256",
          "name": "_domainID",
          "type": "uint256"
        }
      ],
      "name": "setName",
      "outputs": [],
      "stateMutability": "nonpayable",
      "type": "function"
    },
    {
      "inputs": [
        {
          "internalType": "contract TopLevelDomain",
          "name": "_topLevelDomain",
          "type": "address"
        }
      ],
      "name": "setTopLevelDomain",
      "outputs": [],
      "stateMutability": "nonpayable",
      "type": "function"
    },
    {
      "inputs": [
        {
          "internalType": "address",
          "name": "newOwner",
          "type": "address"
        }
      ],
      "name": "transferOwnership",
      "outputs": [],
      "stateMutability": "nonpayable",
      "type": "function"
    },
    {
      "inputs": [
        {
          "internalType": "string",
          "name": "_name",
          "type": "string"
        },
        {
          "internalType": "uint256",
          "name": "_domainID",
          "type": "uint256"
        }
      ],
      "name": "unsetName",
      "outputs": [],
      "stateMutability": "nonpayable",
      "type": "function"
    },
    {
      "inputs": [
        {
          "internalType": "string",
          "name": "_name",
          "type": "string"
        }
      ],
      "name": "valid",
      "outputs": [
        {
          "internalType": "bool",
          "name": "",
          "type": "bool"
        }
      ],
      "stateMutability": "pure",
      "type": "function"
    },
    {
      "inputs": [],
      "name": "withdraw",
      "outputs": [],
      "stateMutability": "nonpayable",
      "type": "function"
    }
  ],
  "bytecode": "0x60806040523480156200001157600080fd5b506040516200476f3803806200476f833981810160405281019062000037919062000384565b620000576200004b6200013460201b60201c565b6200013c60201b60201c565b62000068336200020060201b60201c565b82600160006101000a81548173ffffffffffffffffffffffffffffffffffffffff021916908373ffffffffffffffffffffffffffffffffffffffff16021790555081600260006101000a81548173ffffffffffffffffffffffffffffffffffffffff021916908373ffffffffffffffffffffffffffffffffffffffff16021790555080600360006101000a81548173ffffffffffffffffffffffffffffffffffffffff021916908373ffffffffffffffffffffffffffffffffffffffff160217905550505050620005b3565b600033905090565b60008060009054906101000a900473ffffffffffffffffffffffffffffffffffffffff169050816000806101000a81548173ffffffffffffffffffffffffffffffffffffffff021916908373ffffffffffffffffffffffffffffffffffffffff1602179055508173ffffffffffffffffffffffffffffffffffffffff168173ffffffffffffffffffffffffffffffffffffffff167f8be0079c531659141344cd1fd0a4f28419497f9722a3daafe3b4186f6b6457e060405160405180910390a35050565b620002106200013460201b60201c565b73ffffffffffffffffffffffffffffffffffffffff16620002366200031660201b60201c565b73ffffffffffffffffffffffffffffffffffffffff16146200028f576040517f08c379a000000000000000000000000000000000000000000000000000000000815260040162000286906200044a565b60405180910390fd5b600073ffffffffffffffffffffffffffffffffffffffff168173ffffffffffffffffffffffffffffffffffffffff16141562000302576040517f08c379a0000000000000000000000000000000000000000000000000000000008152600401620002f99062000428565b60405180910390fd5b62000313816200013c60201b60201c565b50565b60008060009054906101000a900473ffffffffffffffffffffffffffffffffffffffff16905090565b600081519050620003508162000565565b92915050565b60008151905062000367816200057f565b92915050565b6000815190506200037e8162000599565b92915050565b6000806000606084860312156200039a57600080fd5b6000620003aa8682870162000356565b9350506020620003bd868287016200036d565b9250506040620003d0868287016200033f565b9150509250925092565b6000620003e96026836200046c565b9150620003f682620004ed565b604082019050919050565b6000620004106020836200046c565b91506200041d826200053c565b602082019050919050565b600060208201905081810360008301526200044381620003da565b9050919050565b60006020820190508181036000830152620004658162000401565b9050919050565b600082825260208201905092915050565b60006200048a82620004cd565b9050919050565b60006200049e826200047d565b9050919050565b6000620004b2826200047d565b9050919050565b6000620004c6826200047d565b9050919050565b600073ffffffffffffffffffffffffffffffffffffffff82169050919050565b7f4f776e61626c653a206e6577206f776e657220697320746865207a65726f206160008201527f6464726573730000000000000000000000000000000000000000000000000000602082015250565b7f4f776e61626c653a2063616c6c6572206973206e6f7420746865206f776e6572600082015250565b620005708162000491565b81146200057c57600080fd5b50565b6200058a81620004a5565b81146200059657600080fd5b50565b620005a481620004b9565b8114620005b057600080fd5b50565b6141ac80620005c36000396000f3fe6080604052600436106100fe5760003560e01c80638da5cb5b11610095578063b74a42f711610064578063b74a42f714610305578063be6fc47c1461032e578063d1cac58214610357578063f2fde38b14610380578063f7333a63146103a9576100fe565b80638da5cb5b1461026557806390a9f837146102905780639791c097146102ac578063a6100fca146102e9576100fe565b8063519ad3e2116100d1578063519ad3e2146101bd578063715018a6146101fa5780638a95b09f146102115780638b704e811461023c576100fe565b8063198b56e2146101035780632eee77ec146101405780633baa81701461017d5780633ccfd60b146101a6575b600080fd5b34801561010f57600080fd5b5061012a6004803603810190610125919061349f565b6103e6565b6040516101379190613b4a565b60405180910390f35b34801561014c57600080fd5b5061016760048036038101906101629190613521565b6103ff565b6040516101749190613909565b60405180910390f35b34801561018957600080fd5b506101a4600480360381019061019f9190613521565b6105dc565b005b3480156101b257600080fd5b506101bb610963565b005b3480156101c957600080fd5b506101e460048036038101906101df9190613521565b610a28565b6040516101f19190613b4a565b60405180910390f35b34801561020657600080fd5b5061020f610c05565b005b34801561021d57600080fd5b50610226610c8d565b6040516102339190613b4a565b60405180910390f35b34801561024857600080fd5b50610263600480360381019061025e9190613575565b610c95565b005b34801561027157600080fd5b5061027a611420565b60405161028791906138ee565b60405180910390f35b6102aa60048036038101906102a59190613433565b611449565b005b3480156102b857600080fd5b506102d360048036038101906102ce919061349f565b6115b8565b6040516102e09190613909565b60405180910390f35b61030360048036038101906102fe9190613575565b61162b565b005b34801561031157600080fd5b5061032c600480360381019061032791906133e1565b611a02565b005b34801561033a57600080fd5b5061035560048036038101906103509190613521565b611ac2565b005b34801561036357600080fd5b5061037e6004803603810190610379919061340a565b611d6c565b005b34801561038c57600080fd5b506103a760048036038101906103a29190613366565b611e2c565b005b3480156103b557600080fd5b506103d060048036038101906103cb91906135dc565b611f24565b6040516103dd9190613b4a565b60405180910390f35b600080828051906020012090508060001c915050919050565b600061040a836115b8565b610449576040517f08c379a000000000000000000000000000000000000000000000000000000000815260040161044090613a6a565b60405180910390fd5b600083600260009054906101000a900473ffffffffffffffffffffffffffffffffffffffff1673ffffffffffffffffffffffffffffffffffffffff16631a7a98e2856040518263ffffffff1660e01b81526004016104a79190613b4a565b60006040518083038186803b1580156104bf57600080fd5b505afa1580156104d3573d6000803e3d6000fd5b505050506040513d6000823e3d601f19601f820116820180604052508101906104fc91906134e0565b60405160200161050d9291906138a6565b604051602081830303815290604052805190602001209050600160009054906101000a900473ffffffffffffffffffffffffffffffffffffffff1673ffffffffffffffffffffffffffffffffffffffff166396e494e88260001c6040518263ffffffff1660e01b81526004016105839190613b4a565b60206040518083038186803b15801561059b57600080fd5b505afa1580156105af573d6000803e3d6000fd5b505050506040513d601f19601f820116820180604052508101906105d391906133b8565b91505092915050565b600082600260009054906101000a900473ffffffffffffffffffffffffffffffffffffffff1673ffffffffffffffffffffffffffffffffffffffff16631a7a98e2846040518263ffffffff1660e01b815260040161063a9190613b4a565b60006040518083038186803b15801561065257600080fd5b505afa158015610666573d6000803e3d6000fd5b505050506040513d6000823e3d601f19601f8201168201806040525081019061068f91906134e0565b6040516020016106a09291906138a6565b6040516020818303038152906040528051906020012090503373ffffffffffffffffffffffffffffffffffffffff16600160009054906101000a900473ffffffffffffffffffffffffffffffffffffffff1673ffffffffffffffffffffffffffffffffffffffff16636352211e8360001c6040518263ffffffff1660e01b815260040161072d9190613b4a565b60206040518083038186803b15801561074557600080fd5b505afa158015610759573d6000803e3d6000fd5b505050506040513d601f19601f8201168201806040525081019061077d919061338f565b73ffffffffffffffffffffffffffffffffffffffff16146107d3576040517f08c379a00000000000000000000000000000000000000000000000000000000081526004016107ca90613b0a565b60405180910390fd5b600083600260009054906101000a900473ffffffffffffffffffffffffffffffffffffffff1673ffffffffffffffffffffffffffffffffffffffff16631a7a98e2856040518263ffffffff1660e01b81526004016108319190613b4a565b60006040518083038186803b15801561084957600080fd5b505afa15801561085d573d6000803e3d6000fd5b505050506040513d6000823e3d601f19601f8201168201806040525081019061088691906134e0565b6040516020016108979291906138ca565b6040516020818303038152906040529050600160009054906101000a900473ffffffffffffffffffffffffffffffffffffffff1673ffffffffffffffffffffffffffffffffffffffff1663ec07c2d182336040518363ffffffff1660e01b8152600401610905929190613924565b600060405180830381600087803b15801561091f57600080fd5b505af1158015610933573d6000803e3d6000fd5b505050506040513d6000823e3d601f19601f8201168201806040525081019061095c91906134e0565b5050505050565b61096b6123df565b73ffffffffffffffffffffffffffffffffffffffff16610989611420565b73ffffffffffffffffffffffffffffffffffffffff16146109df576040517f08c379a00000000000000000000000000000000000000000000000000000000081526004016109d690613a8a565b60405180910390fd5b3373ffffffffffffffffffffffffffffffffffffffff166108fc479081150290604051600060405180830381858888f19350505050158015610a25573d6000803e3d6000fd5b50565b6000610a33836115b8565b610a72576040517f08c379a0000000000000000000000000000000000000000000000000000000008152600401610a6990613a6a565b60405180910390fd5b600083600260009054906101000a900473ffffffffffffffffffffffffffffffffffffffff1673ffffffffffffffffffffffffffffffffffffffff16631a7a98e2856040518263ffffffff1660e01b8152600401610ad09190613b4a565b60006040518083038186803b158015610ae857600080fd5b505afa158015610afc573d6000803e3d6000fd5b505050506040513d6000823e3d601f19601f82011682018060405250810190610b2591906134e0565b604051602001610b369291906138a6565b604051602081830303815290604052805190602001209050600160009054906101000a900473ffffffffffffffffffffffffffffffffffffffff1673ffffffffffffffffffffffffffffffffffffffff1663d6e4fa868260001c6040518263ffffffff1660e01b8152600401610bac9190613b4a565b60206040518083038186803b158015610bc457600080fd5b505afa158015610bd8573d6000803e3d6000fd5b505050506040513d601f19601f82011682018060405250810190610bfc919061366b565b91505092915050565b610c0d6123df565b73ffffffffffffffffffffffffffffffffffffffff16610c2b611420565b73ffffffffffffffffffffffffffffffffffffffff1614610c81576040517f08c379a0000000000000000000000000000000000000000000000000000000008152600401610c7890613a8a565b60405180910390fd5b610c8b60006123e7565b565b6301e1338081565b610c9d6123df565b73ffffffffffffffffffffffffffffffffffffffff16610cbb611420565b73ffffffffffffffffffffffffffffffffffffffff1614610d11576040517f08c379a0000000000000000000000000000000000000000000000000000000008152600401610d0890613a8a565b60405180910390fd5b610d1a836115b8565b610d59576040517f08c379a0000000000000000000000000000000000000000000000000000000008152600401610d5090613a6a565b60405180910390fd5b610d6383836103ff565b610da2576040517f08c379a0000000000000000000000000000000000000000000000000000000008152600401610d9990613aea565b60405180910390fd5b60006301e1338082610db49190613cc3565b90506301e13380811015610dfd576040517f08c379a0000000000000000000000000000000000000000000000000000000008152600401610df490613aca565b60405180910390fd5b600084600260009054906101000a900473ffffffffffffffffffffffffffffffffffffffff1673ffffffffffffffffffffffffffffffffffffffff16631a7a98e2866040518263ffffffff1660e01b8152600401610e5b9190613b4a565b60006040518083038186803b158015610e7357600080fd5b505afa158015610e87573d6000803e3d6000fd5b505050506040513d6000823e3d601f19601f82011682018060405250810190610eb091906134e0565b604051602001610ec19291906138a6565b60405160208183030381529060405280519060200120905060008160001c90506000600160009054906101000a900473ffffffffffffffffffffffffffffffffffffffff1673ffffffffffffffffffffffffffffffffffffffff1663b3777b798389600260009054906101000a900473ffffffffffffffffffffffffffffffffffffffff1673ffffffffffffffffffffffffffffffffffffffff16631a7a98e28b6040518263ffffffff1660e01b8152600401610f7e9190613b4a565b60006040518083038186803b158015610f9657600080fd5b505afa158015610faa573d6000803e3d6000fd5b505050506040513d6000823e3d601f19601f82011682018060405250810190610fd391906134e0565b604051602001610fe49291906138ca565b60405160208183030381529060405233886040518563ffffffff1660e01b81526004016110149493929190613b65565b602060405180830381600087803b15801561102e57600080fd5b505af1158015611042573d6000803e3d6000fd5b505050506040513d601f19601f82011682018060405250810190611066919061366b565b90503373ffffffffffffffffffffffffffffffffffffffff16837f8213363d2c0ceb13217feef2c13236d099eaf878ad0ee8c7ce587a4196ee760c89896000866040516110b69493929190613954565b60405180910390a360018060009054906101000a900473ffffffffffffffffffffffffffffffffffffffff1673ffffffffffffffffffffffffffffffffffffffff166370a08231336040518263ffffffff1660e01b815260040161111a91906138ee565b60206040518083038186803b15801561113257600080fd5b505afa158015611146573d6000803e3d6000fd5b505050506040513d601f19601f8201168201806040525081019061116a919061366b565b1415611417573373ffffffffffffffffffffffffffffffffffffffff16600160009054906101000a900473ffffffffffffffffffffffffffffffffffffffff1673ffffffffffffffffffffffffffffffffffffffff16636352211e8560001c6040518263ffffffff1660e01b81526004016111e59190613b4a565b60206040518083038186803b1580156111fd57600080fd5b505afa158015611211573d6000803e3d6000fd5b505050506040513d601f19601f82011682018060405250810190611235919061338f565b73ffffffffffffffffffffffffffffffffffffffff161461128b576040517f08c379a000000000000000000000000000000000000000000000000000000000815260040161128290613b0a565b60405180910390fd5b600087600260009054906101000a900473ffffffffffffffffffffffffffffffffffffffff1673ffffffffffffffffffffffffffffffffffffffff16631a7a98e2896040518263ffffffff1660e01b81526004016112e99190613b4a565b60006040518083038186803b15801561130157600080fd5b505afa158015611315573d6000803e3d6000fd5b505050506040513d6000823e3d601f19601f8201168201806040525081019061133e91906134e0565b60405160200161134f9291906138ca565b6040516020818303038152906040529050600160009054906101000a900473ffffffffffffffffffffffffffffffffffffffff1673ffffffffffffffffffffffffffffffffffffffff1663ec07c2d182336040518363ffffffff1660e01b81526004016113bd929190613924565b600060405180830381600087803b1580156113d757600080fd5b505af11580156113eb573d6000803e3d6000fd5b505050506040513d6000823e3d601f19601f8201168201806040525081019061141491906134e0565b50505b50505050505050565b60008060009054906101000a900473ffffffffffffffffffffffffffffffffffffffff16905090565b61149684848080601f016020809104026020016040519081016040528093929190818152602001838380828437600081840152601f19601f820116905080830192505050505050506115b8565b6114d5576040517f08c379a00000000000000000000000000000000000000000000000000000000081526004016114cc90613a6a565b60405180910390fd5b61152384848080601f016020809104026020016040519081016040528093929190818152602001838380828437600081840152601f19601f82011690508083019250505050505050836103ff565b611562576040517f08c379a000000000000000000000000000000000000000000000000000000000815260040161155990613aea565b60405180910390fd5b6115b284848080601f016020809104026020016040519081016040528093929190818152602001838380828437600081840152601f19601f820116905080830192505050505050508333846124ab565b50505050565b60006115c382612e7c565b611602576040517f08c379a00000000000000000000000000000000000000000000000000000000081526004016115f990613aaa565b60405180910390fd5b600161160d83612fc9565b101580156116245750601c61162183612fc9565b11155b9050919050565b600083600260009054906101000a900473ffffffffffffffffffffffffffffffffffffffff1673ffffffffffffffffffffffffffffffffffffffff16631a7a98e2856040518263ffffffff1660e01b81526004016116899190613b4a565b60006040518083038186803b1580156116a157600080fd5b505afa1580156116b5573d6000803e3d6000fd5b505050506040513d6000823e3d601f19601f820116820180604052508101906116de91906134e0565b6040516020016116ef9291906138a6565b6040516020818303038152906040528051906020012090503373ffffffffffffffffffffffffffffffffffffffff16600160009054906101000a900473ffffffffffffffffffffffffffffffffffffffff1673ffffffffffffffffffffffffffffffffffffffff16636352211e8360001c6040518263ffffffff1660e01b815260040161177c9190613b4a565b60206040518083038186803b15801561179457600080fd5b505afa1580156117a8573d6000803e3d6000fd5b505050506040513d601f19601f820116820180604052508101906117cc919061338f565b73ffffffffffffffffffffffffffffffffffffffff1614611822576040517f08c379a000000000000000000000000000000000000000000000000000000000815260040161181990613b0a565b60405180910390fd5b611830848484336000611f24565b341015611872576040517f08c379a000000000000000000000000000000000000000000000000000000000815260040161186990613b2a565b60405180910390fd5b60006301e13380836118849190613cc3565b90506000600160009054906101000a900473ffffffffffffffffffffffffffffffffffffffff1673ffffffffffffffffffffffffffffffffffffffff1663c475abff8460001c846040518363ffffffff1660e01b81526004016118e8929190613bb1565b602060405180830381600087803b15801561190257600080fd5b505af1158015611916573d6000803e3d6000fd5b505050506040513d601f19601f8201168201806040525081019061193a919061366b565b905061194a868686336000611f24565b3411156119b1573373ffffffffffffffffffffffffffffffffffffffff166108fc611979888888336000611f24565b346119849190613d1d565b9081150290604051600060405180830381858888f193505050501580156119af573d6000803e3d6000fd5b505b827f3da24c024582931cfaf8267d8ed24d13a82a8068d5bd337d30ec45cea4e506ae876119e2898989336000611f24565b846040516119f2939291906139a0565b60405180910390a2505050505050565b611a0a6123df565b73ffffffffffffffffffffffffffffffffffffffff16611a28611420565b73ffffffffffffffffffffffffffffffffffffffff1614611a7e576040517f08c379a0000000000000000000000000000000000000000000000000000000008152600401611a7590613a8a565b60405180910390fd5b80600360006101000a81548173ffffffffffffffffffffffffffffffffffffffff021916908373ffffffffffffffffffffffffffffffffffffffff16021790555050565b600082600260009054906101000a900473ffffffffffffffffffffffffffffffffffffffff1673ffffffffffffffffffffffffffffffffffffffff16631a7a98e2846040518263ffffffff1660e01b8152600401611b209190613b4a565b60006040518083038186803b158015611b3857600080fd5b505afa158015611b4c573d6000803e3d6000fd5b505050506040513d6000823e3d601f19601f82011682018060405250810190611b7591906134e0565b604051602001611b869291906138a6565b6040516020818303038152906040528051906020012090503373ffffffffffffffffffffffffffffffffffffffff16600160009054906101000a900473ffffffffffffffffffffffffffffffffffffffff1673ffffffffffffffffffffffffffffffffffffffff16636352211e8360001c6040518263ffffffff1660e01b8152600401611c139190613b4a565b60206040518083038186803b158015611c2b57600080fd5b505afa158015611c3f573d6000803e3d6000fd5b505050506040513d601f19601f82011682018060405250810190611c63919061338f565b73ffffffffffffffffffffffffffffffffffffffff1614611cb9576040517f08c379a0000000000000000000000000000000000000000000000000000000008152600401611cb090613b0a565b60405180910390fd5b600160009054906101000a900473ffffffffffffffffffffffffffffffffffffffff1673ffffffffffffffffffffffffffffffffffffffff16631a34c325336040518263ffffffff1660e01b8152600401611d1491906138ee565b602060405180830381600087803b158015611d2e57600080fd5b505af1158015611d42573d6000803e3d6000fd5b505050506040513d601f19601f82011682018060405250810190611d6691906133b8565b50505050565b611d746123df565b73ffffffffffffffffffffffffffffffffffffffff16611d92611420565b73ffffffffffffffffffffffffffffffffffffffff1614611de8576040517f08c379a0000000000000000000000000000000000000000000000000000000008152600401611ddf90613a8a565b60405180910390fd5b80600260006101000a81548173ffffffffffffffffffffffffffffffffffffffff021916908373ffffffffffffffffffffffffffffffffffffffff16021790555050565b611e346123df565b73ffffffffffffffffffffffffffffffffffffffff16611e52611420565b73ffffffffffffffffffffffffffffffffffffffff1614611ea8576040517f08c379a0000000000000000000000000000000000000000000000000000000008152600401611e9f90613a8a565b60405180910390fd5b600073ffffffffffffffffffffffffffffffffffffffff168173ffffffffffffffffffffffffffffffffffffffff161415611f18576040517f08c379a0000000000000000000000000000000000000000000000000000000008152600401611f0f90613a2a565b60405180910390fd5b611f21816123e7565b50565b6000611f2f866115b8565b611f6e576040517f08c379a0000000000000000000000000000000000000000000000000000000008152600401611f6590613a6a565b60405180910390fd5b81156122e257600360009054906101000a900473ffffffffffffffffffffffffffffffffffffffff1673ffffffffffffffffffffffffffffffffffffffff1663620ec7ab846040518263ffffffff1660e01b8152600401611fcf91906138ee565b60206040518083038186803b158015611fe757600080fd5b505afa158015611ffb573d6000803e3d6000fd5b505050506040513d601f19601f8201168201806040525081019061201f91906133b8565b80156120345750600661203187612fc9565b10155b1561204257600090506123d6565b600360009054906101000a900473ffffffffffffffffffffffffffffffffffffffff1673ffffffffffffffffffffffffffffffffffffffff166398632ad2846040518263ffffffff1660e01b815260040161209d91906138ee565b60206040518083038186803b1580156120b557600080fd5b505afa1580156120c9573d6000803e3d6000fd5b505050506040513d601f19601f820116820180604052508101906120ed91906133b8565b156121ea57600060056120ff88612fc9565b116121125761210d87612fc9565b612115565b60065b905084670de0b6b3a7640000600360009054906101000a900473ffffffffffffffffffffffffffffffffffffffff1673ffffffffffffffffffffffffffffffffffffffff16635ee2d5b689856040518363ffffffff1660e01b815260040161217e929190613bb1565b60206040518083038186803b15801561219657600080fd5b505afa1580156121aa573d6000803e3d6000fd5b505050506040513d601f19601f820116820180604052508101906121ce919061366b565b6121d89190613cc3565b6121e29190613cc3565b9150506123d6565b600060056121f788612fc9565b1161220a5761220587612fc9565b61220d565b60065b905084670de0b6b3a7640000600360009054906101000a900473ffffffffffffffffffffffffffffffffffffffff1673ffffffffffffffffffffffffffffffffffffffff1663337f51a689856040518363ffffffff1660e01b8152600401612276929190613bb1565b60206040518083038186803b15801561228e57600080fd5b505afa1580156122a2573d6000803e3d6000fd5b505050506040513d601f19601f820116820180604052508101906122c6919061366b565b6122d09190613cc3565b6122da9190613cc3565b9150506123d6565b600060056122ef88612fc9565b11612302576122fd87612fc9565b612305565b60065b905084670de0b6b3a7640000600360009054906101000a900473ffffffffffffffffffffffffffffffffffffffff1673ffffffffffffffffffffffffffffffffffffffff1663337f51a689856040518363ffffffff1660e01b815260040161236e929190613bb1565b60206040518083038186803b15801561238657600080fd5b505afa15801561239a573d6000803e3d6000fd5b505050506040513d601f19601f820116820180604052508101906123be919061366b565b6123c89190613cc3565b6123d29190613cc3565b9150505b95945050505050565b600033905090565b60008060009054906101000a900473ffffffffffffffffffffffffffffffffffffffff169050816000806101000a81548173ffffffffffffffffffffffffffffffffffffffff021916908373ffffffffffffffffffffffffffffffffffffffff1602179055508173ffffffffffffffffffffffffffffffffffffffff168173ffffffffffffffffffffffffffffffffffffffff167f8be0079c531659141344cd1fd0a4f28419497f9722a3daafe3b4186f6b6457e060405160405180910390a35050565b60006301e13380826124bd9190613cc3565b90506301e13380811015612506576040517f08c379a00000000000000000000000000000000000000000000000000000000081526004016124fd90613aca565b60405180910390fd5b612514858584866001611f24565b341015612556576040517f08c379a000000000000000000000000000000000000000000000000000000000815260040161254d90613a4a565b60405180910390fd5b600085600260009054906101000a900473ffffffffffffffffffffffffffffffffffffffff1673ffffffffffffffffffffffffffffffffffffffff16631a7a98e2876040518263ffffffff1660e01b81526004016125b49190613b4a565b60006040518083038186803b1580156125cc57600080fd5b505afa1580156125e0573d6000803e3d6000fd5b505050506040513d6000823e3d601f19601f8201168201806040525081019061260991906134e0565b60405160200161261a9291906138a6565b60405160208183030381529060405280519060200120905060008160001c90506000600160009054906101000a900473ffffffffffffffffffffffffffffffffffffffff1673ffffffffffffffffffffffffffffffffffffffff1663b3777b79838a600260009054906101000a900473ffffffffffffffffffffffffffffffffffffffff1673ffffffffffffffffffffffffffffffffffffffff16631a7a98e28c6040518263ffffffff1660e01b81526004016126d79190613b4a565b60006040518083038186803b1580156126ef57600080fd5b505afa158015612703573d6000803e3d6000fd5b505050506040513d6000823e3d601f19601f8201168201806040525081019061272c91906134e0565b60405160200161273d9291906138ca565b60405160208183030381529060405289886040518563ffffffff1660e01b815260040161276d9493929190613b65565b602060405180830381600087803b15801561278757600080fd5b505af115801561279b573d6000803e3d6000fd5b505050506040513d601f19601f820116820180604052508101906127bf919061366b565b90508573ffffffffffffffffffffffffffffffffffffffff16837f8213363d2c0ceb13217feef2c13236d099eaf878ad0ee8c7ce587a4196ee760c8a8a61280a8d8d8c8e6001611f24565b8660405161281b94939291906139de565b60405180910390a360018060009054906101000a900473ffffffffffffffffffffffffffffffffffffffff1673ffffffffffffffffffffffffffffffffffffffff166370a08231886040518263ffffffff1660e01b815260040161287f91906138ee565b60206040518083038186803b15801561289757600080fd5b505afa1580156128ab573d6000803e3d6000fd5b505050506040513d601f19601f820116820180604052508101906128cf919061366b565b1415612b7c578573ffffffffffffffffffffffffffffffffffffffff16600160009054906101000a900473ffffffffffffffffffffffffffffffffffffffff1673ffffffffffffffffffffffffffffffffffffffff16636352211e8560001c6040518263ffffffff1660e01b815260040161294a9190613b4a565b60206040518083038186803b15801561296257600080fd5b505afa158015612976573d6000803e3d6000fd5b505050506040513d601f19601f8201168201806040525081019061299a919061338f565b73ffffffffffffffffffffffffffffffffffffffff16146129f0576040517f08c379a00000000000000000000000000000000000000000000000000000000081526004016129e790613b0a565b60405180910390fd5b600088600260009054906101000a900473ffffffffffffffffffffffffffffffffffffffff1673ffffffffffffffffffffffffffffffffffffffff16631a7a98e28a6040518263ffffffff1660e01b8152600401612a4e9190613b4a565b60006040518083038186803b158015612a6657600080fd5b505afa158015612a7a573d6000803e3d6000fd5b505050506040513d6000823e3d601f19601f82011682018060405250810190612aa391906134e0565b604051602001612ab49291906138ca565b6040516020818303038152906040529050600160009054906101000a900473ffffffffffffffffffffffffffffffffffffffff1673ffffffffffffffffffffffffffffffffffffffff1663ec07c2d182896040518363ffffffff1660e01b8152600401612b22929190613924565b600060405180830381600087803b158015612b3c57600080fd5b505af1158015612b50573d6000803e3d6000fd5b505050506040513d6000823e3d601f19601f82011682018060405250810190612b7991906134e0565b50505b600360009054906101000a900473ffffffffffffffffffffffffffffffffffffffff1673ffffffffffffffffffffffffffffffffffffffff1663620ec7ab876040518263ffffffff1660e01b8152600401612bd791906138ee565b60206040518083038186803b158015612bef57600080fd5b505afa158015612c03573d6000803e3d6000fd5b505050506040513d601f19601f82011682018060405250810190612c2791906133b8565b15612cbe57600360009054906101000a900473ffffffffffffffffffffffffffffffffffffffff1673ffffffffffffffffffffffffffffffffffffffff16635bcebb31876040518263ffffffff1660e01b8152600401612c8791906138ee565b600060405180830381600087803b158015612ca157600080fd5b505af1158015612cb5573d6000803e3d6000fd5b50505050612dfd565b600360009054906101000a900473ffffffffffffffffffffffffffffffffffffffff1673ffffffffffffffffffffffffffffffffffffffff166398632ad2876040518263ffffffff1660e01b8152600401612d1991906138ee565b60206040518083038186803b158015612d3157600080fd5b505afa158015612d45573d6000803e3d6000fd5b505050506040513d601f19601f82011682018060405250810190612d6991906133b8565b15612dfc57600360009054906101000a900473ffffffffffffffffffffffffffffffffffffffff1673ffffffffffffffffffffffffffffffffffffffff166309f19ebc876040518263ffffffff1660e01b8152600401612dc991906138ee565b600060405180830381600087803b158015612de357600080fd5b505af1158015612df7573d6000803e3d6000fd5b505050505b5b612e0b888887896001611f24565b341115612e72573373ffffffffffffffffffffffffffffffffffffffff166108fc612e3a8a8a898b6001611f24565b34612e459190613d1d565b9081150290604051600060405180830381858888f19350505050158015612e70573d6000803e3d6000fd5b505b5050505050505050565b60008082905060005b8151811015612fbd576000828281518110612ec9577f4e487b7100000000000000000000000000000000000000000000000000000000600052603260045260246000fd5b602001015160f81c60f81b9050603060f81b817effffffffffffffffffffffffffffffffffffffffffffffffffffffffffffff191610158015612f325750603960f81b817effffffffffffffffffffffffffffffffffffffffffffffffffffffffffffff191611155b158015612f985750606160f81b817effffffffffffffffffffffffffffffffffffffffffffffffffffffffffffff191610158015612f965750607a60f81b817effffffffffffffffffffffffffffffffffffffffffffffffffffffffffffff191611155b155b15612fa95760009350505050612fc4565b508080612fb590613e42565b915050612e85565b5060019150505b919050565b60008060008084519050600092505b8082101561319957600085838151811061301b577f4e487b7100000000000000000000000000000000000000000000000000000000600052603260045260246000fd5b602001015160f81c60f81b9050608060f81b817effffffffffffffffffffffffffffffffffffffffffffffffffffffffffffff1916101561306a576001836130639190613c6d565b9250613185565b60e060f81b817effffffffffffffffffffffffffffffffffffffffffffffffffffffffffffff191610156130ac576002836130a59190613c6d565b9250613184565b60f060f81b817effffffffffffffffffffffffffffffffffffffffffffffffffffffffffffff191610156130ee576003836130e79190613c6d565b9250613183565b60f8801b817effffffffffffffffffffffffffffffffffffffffffffffffffffffffffffff1916101561312f576004836131289190613c6d565b9250613182565b60fc60f81b817effffffffffffffffffffffffffffffffffffffffffffffffffffffffffffff191610156131715760058361316a9190613c6d565b9250613181565b60068361317e9190613c6d565b92505b5b5b5b5b50828061319190613e42565b935050612fd8565b829350505050919050565b60006131b76131b284613bff565b613bda565b9050828152602081018484840111156131cf57600080fd5b6131da848285613dcf565b509392505050565b60006131f56131f084613bff565b613bda565b90508281526020810184848401111561320d57600080fd5b613218848285613dde565b509392505050565b60008135905061322f81614103565b92915050565b60008151905061324481614103565b92915050565b6000813590506132598161411a565b92915050565b60008151905061326e8161411a565b92915050565b60008135905061328381614131565b92915050565b60008135905061329881614148565b92915050565b60008083601f8401126132b057600080fd5b8235905067ffffffffffffffff8111156132c957600080fd5b6020830191508360018202830111156132e157600080fd5b9250929050565b600082601f8301126132f957600080fd5b81356133098482602086016131a4565b91505092915050565b600082601f83011261332357600080fd5b81516133338482602086016131e2565b91505092915050565b60008135905061334b8161415f565b92915050565b6000815190506133608161415f565b92915050565b60006020828403121561337857600080fd5b600061338684828501613220565b91505092915050565b6000602082840312156133a157600080fd5b60006133af84828501613235565b91505092915050565b6000602082840312156133ca57600080fd5b60006133d88482850161325f565b91505092915050565b6000602082840312156133f357600080fd5b600061340184828501613274565b91505092915050565b60006020828403121561341c57600080fd5b600061342a84828501613289565b91505092915050565b6000806000806060858703121561344957600080fd5b600085013567ffffffffffffffff81111561346357600080fd5b61346f8782880161329e565b945094505060206134828782880161333c565b92505060406134938782880161333c565b91505092959194509250565b6000602082840312156134b157600080fd5b600082013567ffffffffffffffff8111156134cb57600080fd5b6134d7848285016132e8565b91505092915050565b6000602082840312156134f257600080fd5b600082015167ffffffffffffffff81111561350c57600080fd5b61351884828501613312565b91505092915050565b6000806040838503121561353457600080fd5b600083013567ffffffffffffffff81111561354e57600080fd5b61355a858286016132e8565b925050602061356b8582860161333c565b9150509250929050565b60008060006060848603121561358a57600080fd5b600084013567ffffffffffffffff8111156135a457600080fd5b6135b0868287016132e8565b93505060206135c18682870161333c565b92505060406135d28682870161333c565b9150509250925092565b600080600080600060a086880312156135f457600080fd5b600086013567ffffffffffffffff81111561360e57600080fd5b61361a888289016132e8565b955050602061362b8882890161333c565b945050604061363c8882890161333c565b935050606061364d88828901613220565b925050608061365e8882890161324a565b9150509295509295909350565b60006020828403121561367d57600080fd5b600061368b84828501613351565b91505092915050565b61369d81613d51565b82525050565b6136ac81613d63565b82525050565b60006136bd82613c30565b6136c78185613c46565b93506136d7818560208601613dde565b80840191505092915050565b6136ec81613dbd565b82525050565b60006136fd82613c3b565b6137078185613c51565b9350613717818560208601613dde565b61372081613ee9565b840191505092915050565b600061373682613c3b565b6137408185613c62565b9350613750818560208601613dde565b80840191505092915050565b6000613769602683613c51565b915061377482613efa565b604082019050919050565b600061378c601c83613c51565b915061379782613f49565b602082019050919050565b60006137af601783613c51565b91506137ba82613f72565b602082019050919050565b60006137d2602083613c51565b91506137dd82613f9b565b602082019050919050565b60006137f5601e83613c51565b915061380082613fc4565b602082019050919050565b6000613818602783613c51565b915061382382613fed565b604082019050919050565b600061383b601b83613c51565b91506138468261403c565b602082019050919050565b600061385e602883613c51565b915061386982614065565b604082019050919050565b6000613881602283613c51565b915061388c826140b4565b604082019050919050565b6138a081613db3565b82525050565b60006138b282856136b2565b91506138be82846136b2565b91508190509392505050565b60006138d6828561372b565b91506138e2828461372b565b91508190509392505050565b60006020820190506139036000830184613694565b92915050565b600060208201905061391e60008301846136a3565b92915050565b6000604082019050818103600083015261393e81856136f2565b905061394d6020830184613694565b9392505050565b6000608082019050818103600083015261396e81876136f2565b905061397d6020830186613897565b61398a60408301856136e3565b6139976060830184613897565b95945050505050565b600060608201905081810360008301526139ba81866136f2565b90506139c96020830185613897565b6139d66040830184613897565b949350505050565b600060808201905081810360008301526139f881876136f2565b9050613a076020830186613897565b613a146040830185613897565b613a216060830184613897565b95945050505050565b60006020820190508181036000830152613a438161375c565b9050919050565b60006020820190508181036000830152613a638161377f565b9050919050565b60006020820190508181036000830152613a83816137a2565b9050919050565b60006020820190508181036000830152613aa3816137c5565b9050919050565b60006020820190508181036000830152613ac3816137e8565b9050919050565b60006020820190508181036000830152613ae38161380b565b9050919050565b60006020820190508181036000830152613b038161382e565b9050919050565b60006020820190508181036000830152613b2381613851565b9050919050565b60006020820190508181036000830152613b4381613874565b9050919050565b6000602082019050613b5f6000830184613897565b92915050565b6000608082019050613b7a6000830187613897565b8181036020830152613b8c81866136f2565b9050613b9b6040830185613694565b613ba86060830184613897565b95945050505050565b6000604082019050613bc66000830185613897565b613bd36020830184613897565b9392505050565b6000613be4613bf5565b9050613bf08282613e11565b919050565b6000604051905090565b600067ffffffffffffffff821115613c1a57613c19613eba565b5b613c2382613ee9565b9050602081019050919050565b600081519050919050565b600081519050919050565b600081905092915050565b600082825260208201905092915050565b600081905092915050565b6000613c7882613db3565b9150613c8383613db3565b9250827fffffffffffffffffffffffffffffffffffffffffffffffffffffffffffffffff03821115613cb857613cb7613e8b565b5b828201905092915050565b6000613cce82613db3565b9150613cd983613db3565b9250817fffffffffffffffffffffffffffffffffffffffffffffffffffffffffffffffff0483118215151615613d1257613d11613e8b565b5b828202905092915050565b6000613d2882613db3565b9150613d3383613db3565b925082821015613d4657613d45613e8b565b5b828203905092915050565b6000613d5c82613d93565b9050919050565b60008115159050919050565b6000613d7a82613d51565b9050919050565b6000613d8c82613d51565b9050919050565b600073ffffffffffffffffffffffffffffffffffffffff82169050919050565b6000819050919050565b6000613dc882613db3565b9050919050565b82818337600083830152505050565b60005b83811015613dfc578082015181840152602081019050613de1565b83811115613e0b576000848401525b50505050565b613e1a82613ee9565b810181811067ffffffffffffffff82111715613e3957613e38613eba565b5b80604052505050565b6000613e4d82613db3565b91507fffffffffffffffffffffffffffffffffffffffffffffffffffffffffffffffff821415613e8057613e7f613e8b565b5b600182019050919050565b7f4e487b7100000000000000000000000000000000000000000000000000000000600052601160045260246000fd5b7f4e487b7100000000000000000000000000000000000000000000000000000000600052604160045260246000fd5b6000601f19601f8301169050919050565b7f4f776e61626c653a206e6577206f776e657220697320746865207a65726f206160008201527f6464726573730000000000000000000000000000000000000000000000000000602082015250565b7f4f4e53433a20594f555f53454e4445445f57524f4e475f56414c554500000000600082015250565b7f4f4e53433a204e414d455f49535f4e4f545f56414c4944000000000000000000600082015250565b7f4f776e61626c653a2063616c6c6572206973206e6f7420746865206f776e6572600082015250565b7f4f4e53433a205448455f4e414d455f4d5553545f42455f454e474c4953480000600082015250565b7f4f4e53433a204d494e5f524547495354524154494f4e5f4455524154494f4e5f60008201527f49535f5945415200000000000000000000000000000000000000000000000000602082015250565b7f4f4e53433a204e414d455f49535f4e4f545f415641494c41424c450000000000600082015250565b7f4f4e53433a20594f555f4152455f4e4f545f5448455f4f574e45525f4f465f5460008201527f4849535f4e414d45000000000000000000000000000000000000000000000000602082015250565b7f4f4e53433a20594f555f53454e4445445f57524f4e475f56414c55455f52454e60008201527f4557000000000000000000000000000000000000000000000000000000000000602082015250565b61410c81613d51565b811461411757600080fd5b50565b61412381613d63565b811461412e57600080fd5b50565b61413a81613d6f565b811461414557600080fd5b50565b61415181613d81565b811461415c57600080fd5b50565b61416881613db3565b811461417357600080fd5b5056fea2646970667358221220a6da8ed2a5e16e9bcb2a7ba5e1a59b2385cfea885f4689ffc7130178018980a864736f6c63430008040033",
  "linkReferences": {},
  "deployedLinkReferences": {}
}