{
  "_format": "hh-sol-artifact-1",
  "contractName": "ONSRegister",
  "sourceName": "contracts/ONSRegister.sol",
  "abi": [
    {
      "inputs": [],
      "stateMutability": "nonpayable",
      "type": "constructor"
    },
    {
      "anonymous": false,
      "inputs": [
        {
          "indexed": true,
          "internalType": "address",
          "name": "owner",
          "type": "address"
        },
        {
          "indexed": true,
          "internalType": "address",
          "name": "approved",
          "type": "address"
        },
        {
          "indexed": true,
          "internalType": "uint256",
          "name": "tokenId",
          "type": "uint256"
        }
      ],
      "name": "Approval",
      "type": "event"
    },
    {
      "anonymous": false,
      "inputs": [
        {
          "indexed": true,
          "internalType": "address",
          "name": "owner",
          "type": "address"
        },
        {
          "indexed": true,
          "internalType": "address",
          "name": "operator",
          "type": "address"
        },
        {
          "indexed": false,
          "internalType": "bool",
          "name": "approved",
          "type": "bool"
        }
      ],
      "name": "ApprovalForAll",
      "type": "event"
    },
    {
      "anonymous": false,
      "inputs": [
        {
          "indexed": false,
          "internalType": "string",
          "name": "_baseURI",
          "type": "string"
        }
      ],
      "name": "ChangeBaseURI",
      "type": "event"
    },
    {
      "anonymous": false,
      "inputs": [
        {
          "indexed": true,
          "internalType": "address",
          "name": "controller",
          "type": "address"
        }
      ],
      "name": "ControllerAdded",
      "type": "event"
    },
    {
      "anonymous": false,
      "inputs": [
        {
          "indexed": true,
          "internalType": "address",
          "name": "controller",
          "type": "address"
        }
      ],
      "name": "ControllerRemoved",
      "type": "event"
    },
    {
      "anonymous": false,
      "inputs": [
        {
          "indexed": true,
          "internalType": "uint256",
          "name": "id",
          "type": "uint256"
        },
        {
          "indexed": true,
          "internalType": "address",
          "name": "owner",
          "type": "address"
        },
        {
          "indexed": false,
          "internalType": "uint256",
          "name": "expires",
          "type": "uint256"
        }
      ],
      "name": "NameMigrated",
      "type": "event"
    },
    {
      "anonymous": false,
      "inputs": [
        {
          "indexed": true,
          "internalType": "uint256",
          "name": "id",
          "type": "uint256"
        },
        {
          "indexed": true,
          "internalType": "address",
          "name": "owner",
          "type": "address"
        },
        {
          "indexed": false,
          "internalType": "uint256",
          "name": "expires",
          "type": "uint256"
        }
      ],
      "name": "NameRegistered",
      "type": "event"
    },
    {
      "anonymous": false,
      "inputs": [
        {
          "indexed": true,
          "internalType": "uint256",
          "name": "id",
          "type": "uint256"
        },
        {
          "indexed": false,
          "internalType": "uint256",
          "name": "expires",
          "type": "uint256"
        }
      ],
      "name": "NameRenewed",
      "type": "event"
    },
    {
      "anonymous": false,
      "inputs": [
        {
          "indexed": true,
          "internalType": "address",
          "name": "previousOwner",
          "type": "address"
        },
        {
          "indexed": true,
          "internalType": "address",
          "name": "newOwner",
          "type": "address"
        }
      ],
      "name": "OwnershipTransferred",
      "type": "event"
    },
    {
      "anonymous": false,
      "inputs": [
        {
          "indexed": true,
          "internalType": "address",
          "name": "from",
          "type": "address"
        },
        {
          "indexed": true,
          "internalType": "address",
          "name": "to",
          "type": "address"
        },
        {
          "indexed": true,
          "internalType": "uint256",
          "name": "tokenId",
          "type": "uint256"
        }
      ],
      "name": "Transfer",
      "type": "event"
    },
    {
      "inputs": [],
      "name": "GRACE_PERIOD",
      "outputs": [
        {
          "internalType": "uint256",
          "name": "",
          "type": "uint256"
        }
      ],
      "stateMutability": "view",
      "type": "function"
    },
    {
      "inputs": [
        {
          "internalType": "address",
          "name": "controller",
          "type": "address"
        }
      ],
      "name": "addController",
      "outputs": [],
      "stateMutability": "nonpayable",
      "type": "function"
    },
    {
      "inputs": [
        {
          "internalType": "address",
          "name": "to",
          "type": "address"
        },
        {
          "internalType": "uint256",
          "name": "tokenId",
          "type": "uint256"
        }
      ],
      "name": "approve",
      "outputs": [],
      "stateMutability": "nonpayable",
      "type": "function"
    },
    {
      "inputs": [
        {
          "internalType": "uint256",
          "name": "id",
          "type": "uint256"
        }
      ],
      "name": "available",
      "outputs": [
        {
          "internalType": "bool",
          "name": "",
          "type": "bool"
        }
      ],
      "stateMutability": "view",
      "type": "function"
    },
    {
      "inputs": [
        {
          "internalType": "address",
          "name": "owner",
          "type": "address"
        }
      ],
      "name": "balanceOf",
      "outputs": [
        {
          "internalType": "uint256",
          "name": "",
          "type": "uint256"
        }
      ],
      "stateMutability": "view",
      "type": "function"
    },
    {
      "inputs": [],
      "name": "baseNode",
      "outputs": [
        {
          "internalType": "bytes32",
          "name": "",
          "type": "bytes32"
        }
      ],
      "stateMutability": "view",
      "type": "function"
    },
    {
      "inputs": [],
      "name": "baseURI",
      "outputs": [
        {
          "internalType": "string",
          "name": "",
          "type": "string"
        }
      ],
      "stateMutability": "view",
      "type": "function"
    },
    {
      "inputs": [
        {
          "internalType": "address",
          "name": "",
          "type": "address"
        }
      ],
      "name": "controllers",
      "outputs": [
        {
          "internalType": "bool",
          "name": "",
          "type": "bool"
        }
      ],
      "stateMutability": "view",
      "type": "function"
    },
    {
      "inputs": [
        {
          "internalType": "uint256",
          "name": "",
          "type": "uint256"
        }
      ],
      "name": "doamins",
      "outputs": [
        {
          "internalType": "string",
          "name": "",
          "type": "string"
        }
      ],
      "stateMutability": "view",
      "type": "function"
    },
    {
      "inputs": [
        {
          "internalType": "uint256",
          "name": "",
          "type": "uint256"
        }
      ],
      "name": "expiries",
      "outputs": [
        {
          "internalType": "uint256",
          "name": "",
          "type": "uint256"
        }
      ],
      "stateMutability": "view",
      "type": "function"
    },
    {
      "inputs": [
        {
          "internalType": "string",
          "name": "_name",
          "type": "string"
        }
      ],
      "name": "getAddress",
      "outputs": [
        {
          "internalType": "address",
          "name": "",
          "type": "address"
        }
      ],
      "stateMutability": "view",
      "type": "function"
    },
    {
      "inputs": [
        {
          "internalType": "uint256",
          "name": "tokenId",
          "type": "uint256"
        }
      ],
      "name": "getApproved",
      "outputs": [
        {
          "internalType": "address",
          "name": "",
          "type": "address"
        }
      ],
      "stateMutability": "view",
      "type": "function"
    },
    {
      "inputs": [
        {
          "internalType": "address",
          "name": "_owner",
          "type": "address"
        }
      ],
      "name": "getName",
      "outputs": [
        {
          "internalType": "string",
          "name": "",
          "type": "string"
        }
      ],
      "stateMutability": "view",
      "type": "function"
    },
    {
      "inputs": [
        {
          "internalType": "uint256",
          "name": "_id",
          "type": "uint256"
        }
      ],
      "name": "getNamebyID",
      "outputs": [
        {
          "internalType": "string",
          "name": "",
          "type": "string"
        }
      ],
      "stateMutability": "view",
      "type": "function"
    },
    {
      "inputs": [
        {
          "internalType": "address",
          "name": "owner",
          "type": "address"
        },
        {
          "internalType": "address",
          "name": "operator",
          "type": "address"
        }
      ],
      "name": "isApprovedForAll",
      "outputs": [
        {
          "internalType": "bool",
          "name": "",
          "type": "bool"
        }
      ],
      "stateMutability": "view",
      "type": "function"
    },
    {
      "inputs": [],
      "name": "name",
      "outputs": [
        {
          "internalType": "string",
          "name": "",
          "type": "string"
        }
      ],
      "stateMutability": "view",
      "type": "function"
    },
    {
      "inputs": [
        {
          "internalType": "uint256",
          "name": "id",
          "type": "uint256"
        }
      ],
      "name": "nameExpires",
      "outputs": [
        {
          "internalType": "uint256",
          "name": "",
          "type": "uint256"
        }
      ],
      "stateMutability": "view",
      "type": "function"
    },
    {
      "inputs": [],
      "name": "owner",
      "outputs": [
        {
          "internalType": "address",
          "name": "",
          "type": "address"
        }
      ],
      "stateMutability": "view",
      "type": "function"
    },
    {
      "inputs": [
        {
          "internalType": "uint256",
          "name": "tokenId",
          "type": "uint256"
        }
      ],
      "name": "ownerOf",
      "outputs": [
        {
          "internalType": "address",
          "name": "",
          "type": "address"
        }
      ],
      "stateMutability": "view",
      "type": "function"
    },
    {
      "inputs": [
        {
          "internalType": "address",
          "name": "",
          "type": "address"
        }
      ],
      "name": "primaryName",
      "outputs": [
        {
          "internalType": "string",
          "name": "",
          "type": "string"
        }
      ],
      "stateMutability": "view",
      "type": "function"
    },
    {
      "inputs": [
        {
          "internalType": "uint256",
          "name": "id",
          "type": "uint256"
        },
        {
          "internalType": "string",
          "name": "name",
          "type": "string"
        },
        {
          "internalType": "address",
          "name": "owner",
          "type": "address"
        },
        {
          "internalType": "uint256",
          "name": "duration",
          "type": "uint256"
        }
      ],
      "name": "register",
      "outputs": [
        {
          "internalType": "uint256",
          "name": "",
          "type": "uint256"
        }
      ],
      "stateMutability": "nonpayable",
      "type": "function"
    },
    {
      "inputs": [
        {
          "internalType": "address",
          "name": "controller",
          "type": "address"
        }
      ],
      "name": "removeController",
      "outputs": [],
      "stateMutability": "nonpayable",
      "type": "function"
    },
    {
      "inputs": [
        {
          "internalType": "uint256",
          "name": "id",
          "type": "uint256"
        },
        {
          "internalType": "uint256",
          "name": "duration",
          "type": "uint256"
        }
      ],
      "name": "renew",
      "outputs": [
        {
          "internalType": "uint256",
          "name": "",
          "type": "uint256"
        }
      ],
      "stateMutability": "nonpayable",
      "type": "function"
    },
    {
      "inputs": [],
      "name": "renounceOwnership",
      "outputs": [],
      "stateMutability": "nonpayable",
      "type": "function"
    },
    {
      "inputs": [
        {
          "internalType": "address",
          "name": "from",
          "type": "address"
        },
        {
          "internalType": "address",
          "name": "to",
          "type": "address"
        },
        {
          "internalType": "uint256",
          "name": "tokenId",
          "type": "uint256"
        }
      ],
      "name": "safeTransferFrom",
      "outputs": [],
      "stateMutability": "nonpayable",
      "type": "function"
    },
    {
      "inputs": [
        {
          "internalType": "address",
          "name": "from",
          "type": "address"
        },
        {
          "internalType": "address",
          "name": "to",
          "type": "address"
        },
        {
          "internalType": "uint256",
          "name": "tokenId",
          "type": "uint256"
        },
        {
          "internalType": "bytes",
          "name": "_data",
          "type": "bytes"
        }
      ],
      "name": "safeTransferFrom",
      "outputs": [],
      "stateMutability": "nonpayable",
      "type": "function"
    },
    {
      "inputs": [
        {
          "internalType": "address",
          "name": "operator",
          "type": "address"
        },
        {
          "internalType": "bool",
          "name": "approved",
          "type": "bool"
        }
      ],
      "name": "setApprovalForAll",
      "outputs": [],
      "stateMutability": "nonpayable",
      "type": "function"
    },
    {
      "inputs": [
        {
          "internalType": "string",
          "name": "_newBaseURI",
          "type": "string"
        }
      ],
      "name": "setBaseURI",
      "outputs": [],
      "stateMutability": "nonpayable",
      "type": "function"
    },
    {
      "inputs": [
        {
          "internalType": "string",
          "name": "_name",
          "type": "string"
        },
        {
          "internalType": "address",
          "name": "_owner",
          "type": "address"
        }
      ],
      "name": "setName",
      "outputs": [
        {
          "internalType": "string",
          "name": "",
          "type": "string"
        }
      ],
      "stateMutability": "nonpayable",
      "type": "function"
    },
    {
      "inputs": [
        {
          "internalType": "bytes4",
          "name": "interfaceId",
          "type": "bytes4"
        }
      ],
      "name": "supportsInterface",
      "outputs": [
        {
          "internalType": "bool",
          "name": "",
          "type": "bool"
        }
      ],
      "stateMutability": "view",
      "type": "function"
    },
    {
      "inputs": [],
      "name": "symbol",
      "outputs": [
        {
          "internalType": "string",
          "name": "",
          "type": "string"
        }
      ],
      "stateMutability": "view",
      "type": "function"
    },
    {
      "inputs": [
        {
          "internalType": "uint256",
          "name": "index",
          "type": "uint256"
        }
      ],
      "name": "tokenByIndex",
      "outputs": [
        {
          "internalType": "uint256",
          "name": "",
          "type": "uint256"
        }
      ],
      "stateMutability": "view",
      "type": "function"
    },
    {
      "inputs": [
        {
          "internalType": "address",
          "name": "owner",
          "type": "address"
        },
        {
          "internalType": "uint256",
          "name": "index",
          "type": "uint256"
        }
      ],
      "name": "tokenOfOwnerByIndex",
      "outputs": [
        {
          "internalType": "uint256",
          "name": "",
          "type": "uint256"
        }
      ],
      "stateMutability": "view",
      "type": "function"
    },
    {
      "inputs": [
        {
          "internalType": "uint256",
          "name": "tokenId",
          "type": "uint256"
        }
      ],
      "name": "tokenURI",
      "outputs": [
        {
          "internalType": "string",
          "name": "",
          "type": "string"
        }
      ],
      "stateMutability": "view",
      "type": "function"
    },
    {
      "inputs": [],
      "name": "totalSupply",
      "outputs": [
        {
          "internalType": "uint256",
          "name": "",
          "type": "uint256"
        }
      ],
      "stateMutability": "view",
      "type": "function"
    },
    {
      "inputs": [
        {
          "internalType": "address",
          "name": "from",
          "type": "address"
        },
        {
          "internalType": "address",
          "name": "to",
          "type": "address"
        },
        {
          "internalType": "uint256",
          "name": "tokenId",
          "type": "uint256"
        }
      ],
      "name": "transferFrom",
      "outputs": [],
      "stateMutability": "nonpayable",
      "type": "function"
    },
    {
      "inputs": [
        {
          "internalType": "address",
          "name": "newOwner",
          "type": "address"
        }
      ],
      "name": "transferOwnership",
      "outputs": [],
      "stateMutability": "nonpayable",
      "type": "function"
    },
    {
      "inputs": [
        {
          "internalType": "address",
          "name": "_owner",
          "type": "address"
        }
      ],
      "name": "unsetName",
      "outputs": [
        {
          "internalType": "bool",
          "name": "",
          "type": "bool"
        }
      ],
      "stateMutability": "nonpayable",
      "type": "function"
    },
    {
      "inputs": [],
      "name": "withdraw",
      "outputs": [],
      "stateMutability": "nonpayable",
      "type": "function"
    }
  ],
  "bytecode": "0x60806040523480156200001157600080fd5b506040518060400160405280601281526020017f4f61736973204e616d65205365727669636500000000000000000000000000008152506040518060400160405280600381526020017f4f4e5300000000000000000000000000000000000000000000000000000000008152506200009e62000092620000d860201b60201c565b620000e060201b60201c565b8160019080519060200190620000b6929190620001a4565b508060029080519060200190620000cf929190620001a4565b505050620002b9565b600033905090565b60008060009054906101000a900473ffffffffffffffffffffffffffffffffffffffff169050816000806101000a81548173ffffffffffffffffffffffffffffffffffffffff021916908373ffffffffffffffffffffffffffffffffffffffff1602179055508173ffffffffffffffffffffffffffffffffffffffff168173ffffffffffffffffffffffffffffffffffffffff167f8be0079c531659141344cd1fd0a4f28419497f9722a3daafe3b4186f6b6457e060405160405180910390a35050565b828054620001b29062000254565b90600052602060002090601f016020900481019282620001d6576000855562000222565b82601f10620001f157805160ff191683800117855562000222565b8280016001018555821562000222579182015b828111156200022157825182559160200191906001019062000204565b5b50905062000231919062000235565b5090565b5b808211156200025057600081600090555060010162000236565b5090565b600060028204905060018216806200026d57607f821691505b602082108114156200028457620002836200028a565b5b50919050565b7f4e487b7100000000000000000000000000000000000000000000000000000000600052602260045260246000fd5b614b1580620002c96000396000f3fe608060405234801561001057600080fd5b506004361061023d5760003560e01c806395d89b411161013b578063c475abff116100b8578063e985e9c51161007c578063e985e9c51461074c578063eba951aa1461077c578063ec07c2d1146107ac578063f2fde38b146107dc578063f6a74ed7146107f85761023d565b8063c475abff1461066e578063c87b56dd1461069e578063d6e4fa86146106ce578063da8c229e146106fe578063ddf7fcb01461072e5761023d565b8063b88d4fde116100ff578063b88d4fde146105a4578063b9cce328146105c0578063bcb82748146105f0578063bf40fac114610620578063c1a287e2146106505761023d565b806395d89b41146104ee57806396e494e81461050c578063a22cb4651461053c578063a7fc7a0714610558578063b3777b79146105745761023d565b80633ccfd60b116101c95780636352211e1161018d5780636352211e146104485780636c0360eb1461047857806370a0823114610496578063715018a6146104c65780638da5cb5b146104d05761023d565b80633ccfd60b146103a657806342842e0e146103b05780634f6ccce7146103cc57806355f804b3146103fc5780635fd4b08a146104185761023d565b8063121f83dc11610210578063121f83dc146102dc57806318160ddd1461030c5780631a34c3251461032a57806323b872dd1461035a5780632f745c59146103765761023d565b806301ffc9a71461024257806306fdde0314610272578063081812fc14610290578063095ea7b3146102c0575b600080fd5b61025c60048036038101906102579190613704565b610814565b6040516102699190613dcd565b60405180910390f35b61027a61088e565b6040516102879190613e03565b60405180910390f35b6102aa60048036038101906102a591906137eb565b610920565b6040516102b79190613d66565b60405180910390f35b6102da60048036038101906102d591906136c8565b6109a5565b005b6102f660048036038101906102f191906137eb565b610abd565b6040516103039190613e03565b60405180910390f35b610314610b62565b60405161032191906140e5565b60405180910390f35b610344600480360381019061033f919061355d565b610b6f565b6040516103519190613dcd565b60405180910390f35b610374600480360381019061036f91906135c2565b610c1b565b005b610390600480360381019061038b91906136c8565b610c7b565b60405161039d91906140e5565b60405180910390f35b6103ae610d20565b005b6103ca60048036038101906103c591906135c2565b610deb565b005b6103e660048036038101906103e191906137eb565b610e0b565b6040516103f391906140e5565b60405180910390f35b61041660048036038101906104119190613756565b610ea2565b005b610432600480360381019061042d919061355d565b610f38565b60405161043f9190613e03565b60405180910390f35b610462600480360381019061045d91906137eb565b611106565b60405161046f9190613d66565b60405180910390f35b610480611137565b60405161048d9190613e03565b60405180910390f35b6104b060048036038101906104ab919061355d565b6111c5565b6040516104bd91906140e5565b60405180910390f35b6104ce61127d565b005b6104d8611305565b6040516104e59190613d66565b60405180910390f35b6104f661132e565b6040516105039190613e03565b60405180910390f35b610526600480360381019061052191906137eb565b6113c0565b6040516105339190613dcd565b60405180910390f35b6105566004803603810190610551919061368c565b6113ed565b005b610572600480360381019061056d919061355d565b611403565b005b61058e60048036038101906105899190613814565b61151d565b60405161059b91906140e5565b60405180910390f35b6105be60048036038101906105b99190613611565b611535565b005b6105da60048036038101906105d591906137eb565b611597565b6040516105e791906140e5565b60405180910390f35b61060a600480360381019061060591906137eb565b6115af565b6040516106179190613e03565b60405180910390f35b61063a60048036038101906106359190613756565b61164f565b6040516106479190613d66565b60405180910390f35b610658611670565b60405161066591906140e5565b60405180910390f35b6106886004803603810190610683919061388f565b611677565b60405161069591906140e5565b60405180910390f35b6106b860048036038101906106b391906137eb565b611840565b6040516106c59190613e03565b60405180910390f35b6106e860048036038101906106e391906137eb565b611922565b6040516106f591906140e5565b60405180910390f35b6107186004803603810190610713919061355d565b61193f565b6040516107259190613dcd565b60405180910390f35b61073661195f565b6040516107439190613de8565b60405180910390f35b61076660048036038101906107619190613586565b611965565b6040516107739190613dcd565b60405180910390f35b6107966004803603810190610791919061355d565b6119f9565b6040516107a39190613e03565b60405180910390f35b6107c660048036038101906107c19190613797565b611a99565b6040516107d39190613e03565b60405180910390f35b6107f660048036038101906107f1919061355d565b611b4e565b005b610812600480360381019061080d919061355d565b611c46565b005b60007f780e9d63000000000000000000000000000000000000000000000000000000007bffffffffffffffffffffffffffffffffffffffffffffffffffffffff1916827bffffffffffffffffffffffffffffffffffffffffffffffffffffffff19161480610887575061088682611d60565b5b9050919050565b60606001805461089d90614365565b80601f01602080910402602001604051908101604052809291908181526020018280546108c990614365565b80156109165780601f106108eb57610100808354040283529160200191610916565b820191906000526020600020905b8154815290600101906020018083116108f957829003601f168201915b5050505050905090565b600061092b82611e42565b61096a576040517f08c379a000000000000000000000000000000000000000000000000000000000815260040161096190613fc5565b60405180910390fd5b6005600083815260200190815260200160002060009054906101000a900473ffffffffffffffffffffffffffffffffffffffff169050919050565b60006109b082611eae565b90508073ffffffffffffffffffffffffffffffffffffffff168373ffffffffffffffffffffffffffffffffffffffff161415610a21576040517f08c379a0000000000000000000000000000000000000000000000000000000008152600401610a1890614025565b60405180910390fd5b8073ffffffffffffffffffffffffffffffffffffffff16610a40611f60565b73ffffffffffffffffffffffffffffffffffffffff161480610a6f5750610a6e81610a69611f60565b611965565b5b610aae576040517f08c379a0000000000000000000000000000000000000000000000000000000008152600401610aa590613f25565b60405180910390fd5b610ab88383611f68565b505050565b6060601060008381526020019081526020016000208054610add90614365565b80601f0160208091040260200160405190810160405280929190818152602001828054610b0990614365565b8015610b565780601f10610b2b57610100808354040283529160200191610b56565b820191906000526020600020905b815481529060010190602001808311610b3957829003601f168201915b50505050509050919050565b6000600980549050905090565b6000600d60003373ffffffffffffffffffffffffffffffffffffffff1673ffffffffffffffffffffffffffffffffffffffff16815260200190815260200160002060009054906101000a900460ff16610bc757600080fd5b600f60008373ffffffffffffffffffffffffffffffffffffffff1673ffffffffffffffffffffffffffffffffffffffff1681526020019081526020016000206000610c129190613341565b60019050919050565b610c2c610c26611f60565b82612021565b610c6b576040517f08c379a0000000000000000000000000000000000000000000000000000000008152600401610c6290614045565b60405180910390fd5b610c768383836120b6565b505050565b6000610c86836111c5565b8210610cc7576040517f08c379a0000000000000000000000000000000000000000000000000000000008152600401610cbe90613e45565b60405180910390fd5b600760008473ffffffffffffffffffffffffffffffffffffffff1673ffffffffffffffffffffffffffffffffffffffff168152602001908152602001600020600083815260200190815260200160002054905092915050565b610d28611f60565b73ffffffffffffffffffffffffffffffffffffffff16610d46611305565b73ffffffffffffffffffffffffffffffffffffffff1614610d9c576040517f08c379a0000000000000000000000000000000000000000000000000000000008152600401610d9390613fe5565b60405180910390fd5b60004790503373ffffffffffffffffffffffffffffffffffffffff166108fc829081150290604051600060405180830381858888f19350505050158015610de7573d6000803e3d6000fd5b5050565b610e0683838360405180602001604052806000815250611535565b505050565b6000610e15610b62565b8210610e56576040517f08c379a0000000000000000000000000000000000000000000000000000000008152600401610e4d90614085565b60405180910390fd5b60098281548110610e90577f4e487b7100000000000000000000000000000000000000000000000000000000600052603260045260246000fd5b90600052602060002001549050919050565b610eaa611f60565b73ffffffffffffffffffffffffffffffffffffffff16610ec8611305565b73ffffffffffffffffffffffffffffffffffffffff1614610f1e576040517f08c379a0000000000000000000000000000000000000000000000000000000008152600401610f1590613fe5565b60405180910390fd5b80600b9080519060200190610f34929190613381565b5050565b60606000600f60008473ffffffffffffffffffffffffffffffffffffffff1673ffffffffffffffffffffffffffffffffffffffff168152602001908152602001600020604051610f889190613d2b565b6040518091039020905042600e60008360001c81526020019081526020016000205411610fea576040517f08c379a0000000000000000000000000000000000000000000000000000000008152600401610fe1906140c5565b60405180910390fd5b610ff7838260001c612021565b611036576040517f08c379a000000000000000000000000000000000000000000000000000000000815260040161102d90614065565b60405180910390fd5b600f60008473ffffffffffffffffffffffffffffffffffffffff1673ffffffffffffffffffffffffffffffffffffffff168152602001908152602001600020805461108090614365565b80601f01602080910402602001604051908101604052809291908181526020018280546110ac90614365565b80156110f95780601f106110ce576101008083540402835291602001916110f9565b820191906000526020600020905b8154815290600101906020018083116110dc57829003601f168201915b5050505050915050919050565b600042600e6000848152602001908152602001600020541161112757600080fd5b61113082611eae565b9050919050565b600b805461114490614365565b80601f016020809104026020016040519081016040528092919081815260200182805461117090614365565b80156111bd5780601f10611192576101008083540402835291602001916111bd565b820191906000526020600020905b8154815290600101906020018083116111a057829003601f168201915b505050505081565b60008073ffffffffffffffffffffffffffffffffffffffff168273ffffffffffffffffffffffffffffffffffffffff161415611236576040517f08c379a000000000000000000000000000000000000000000000000000000000815260040161122d90613f45565b60405180910390fd5b600460008373ffffffffffffffffffffffffffffffffffffffff1673ffffffffffffffffffffffffffffffffffffffff168152602001908152602001600020549050919050565b611285611f60565b73ffffffffffffffffffffffffffffffffffffffff166112a3611305565b73ffffffffffffffffffffffffffffffffffffffff16146112f9576040517f08c379a00000000000000000000000000000000000000000000000000000000081526004016112f090613fe5565b60405180910390fd5b611303600061231d565b565b60008060009054906101000a900473ffffffffffffffffffffffffffffffffffffffff16905090565b60606002805461133d90614365565b80601f016020809104026020016040519081016040528092919081815260200182805461136990614365565b80156113b65780601f1061138b576101008083540402835291602001916113b6565b820191906000526020600020905b81548152906001019060200180831161139957829003601f168201915b5050505050905090565b6000426276a700600e6000858152602001908152602001600020546113e591906141ea565b109050919050565b6113ff6113f8611f60565b83836123e1565b5050565b61140b611f60565b73ffffffffffffffffffffffffffffffffffffffff16611429611305565b73ffffffffffffffffffffffffffffffffffffffff161461147f576040517f08c379a000000000000000000000000000000000000000000000000000000000815260040161147690613fe5565b60405180910390fd5b6001600d60008373ffffffffffffffffffffffffffffffffffffffff1673ffffffffffffffffffffffffffffffffffffffff16815260200190815260200160002060006101000a81548160ff0219169083151502179055508073ffffffffffffffffffffffffffffffffffffffff167f0a8bb31534c0ed46f380cb867bd5c803a189ced9a764e30b3a4991a9901d747460405160405180910390a250565b600061152b8585858561254e565b9050949350505050565b611546611540611f60565b83612021565b611585576040517f08c379a000000000000000000000000000000000000000000000000000000000815260040161157c90614045565b60405180910390fd5b61159184848484612787565b50505050565b600e6020528060005260406000206000915090505481565b601060205280600052604060002060009150905080546115ce90614365565b80601f01602080910402602001604051908101604052809291908181526020018280546115fa90614365565b80156116475780601f1061161c57610100808354040283529160200191611647565b820191906000526020600020905b81548152906001019060200180831161162a57829003601f168201915b505050505081565b600080828051906020012090506116688160001c611106565b915050919050565b6276a70081565b6000600d60003373ffffffffffffffffffffffffffffffffffffffff1673ffffffffffffffffffffffffffffffffffffffff16815260200190815260200160002060009054906101000a900460ff166116cf57600080fd5b426276a700600e6000868152602001908152602001600020546116f291906141ea565b1015611733576040517f08c379a000000000000000000000000000000000000000000000000000000000815260040161172a90613f85565b60405180910390fd5b6276a7008261174291906141ea565b6276a70083600e60008781526020019081526020016000205461176591906141ea565b61176f91906141ea565b116117af576040517f08c379a00000000000000000000000000000000000000000000000000000000081526004016117a690614005565b60405180910390fd5b81600e600085815260200190815260200160002060008282546117d291906141ea565b92505081905550827f9b87a00e30f1ac65d898f070f8a3488fe60517182d0a2098e1b4b93a54aa9bd6600e60008681526020019081526020016000205460405161181c91906140e5565b60405180910390a2600e600084815260200190815260200160002054905092915050565b60606000600b805461185190614365565b80601f016020809104026020016040519081016040528092919081815260200182805461187d90614365565b80156118ca5780601f1061189f576101008083540402835291602001916118ca565b820191906000526020600020905b8154815290600101906020018083116118ad57829003601f168201915b5050505050905060008151116118ef576040518060200160405280600081525061191a565b806118f9846127e3565b60405160200161190a929190613d42565b6040516020818303038152906040525b915050919050565b6000600e6000838152602001908152602001600020549050919050565b600d6020528060005260406000206000915054906101000a900460ff1681565b600c5481565b6000600660008473ffffffffffffffffffffffffffffffffffffffff1673ffffffffffffffffffffffffffffffffffffffff16815260200190815260200160002060008373ffffffffffffffffffffffffffffffffffffffff1673ffffffffffffffffffffffffffffffffffffffff16815260200190815260200160002060009054906101000a900460ff16905092915050565b600f6020528060005260406000206000915090508054611a1890614365565b80601f0160208091040260200160405190810160405280929190818152602001828054611a4490614365565b8015611a915780601f10611a6657610100808354040283529160200191611a91565b820191906000526020600020905b815481529060010190602001808311611a7457829003601f168201915b505050505081565b6060600d60003373ffffffffffffffffffffffffffffffffffffffff1673ffffffffffffffffffffffffffffffffffffffff16815260200190815260200160002060009054906101000a900460ff16611af157600080fd5b82600f60008473ffffffffffffffffffffffffffffffffffffffff1673ffffffffffffffffffffffffffffffffffffffff1681526020019081526020016000209080519060200190611b44929190613381565b5082905092915050565b611b56611f60565b73ffffffffffffffffffffffffffffffffffffffff16611b74611305565b73ffffffffffffffffffffffffffffffffffffffff1614611bca576040517f08c379a0000000000000000000000000000000000000000000000000000000008152600401611bc190613fe5565b60405180910390fd5b600073ffffffffffffffffffffffffffffffffffffffff168173ffffffffffffffffffffffffffffffffffffffff161415611c3a576040517f08c379a0000000000000000000000000000000000000000000000000000000008152600401611c3190613e85565b60405180910390fd5b611c438161231d565b50565b611c4e611f60565b73ffffffffffffffffffffffffffffffffffffffff16611c6c611305565b73ffffffffffffffffffffffffffffffffffffffff1614611cc2576040517f08c379a0000000000000000000000000000000000000000000000000000000008152600401611cb990613fe5565b60405180910390fd5b6000600d60008373ffffffffffffffffffffffffffffffffffffffff1673ffffffffffffffffffffffffffffffffffffffff16815260200190815260200160002060006101000a81548160ff0219169083151502179055508073ffffffffffffffffffffffffffffffffffffffff167f33d83959be2573f5453b12eb9d43b3499bc57d96bd2f067ba44803c859e8111360405160405180910390a250565b60007f80ac58cd000000000000000000000000000000000000000000000000000000007bffffffffffffffffffffffffffffffffffffffffffffffffffffffff1916827bffffffffffffffffffffffffffffffffffffffffffffffffffffffff19161480611e2b57507f5b5e139f000000000000000000000000000000000000000000000000000000007bffffffffffffffffffffffffffffffffffffffffffffffffffffffff1916827bffffffffffffffffffffffffffffffffffffffffffffffffffffffff1916145b80611e3b5750611e3a82612990565b5b9050919050565b60008073ffffffffffffffffffffffffffffffffffffffff166003600084815260200190815260200160002060009054906101000a900473ffffffffffffffffffffffffffffffffffffffff1673ffffffffffffffffffffffffffffffffffffffff1614159050919050565b6000806003600084815260200190815260200160002060009054906101000a900473ffffffffffffffffffffffffffffffffffffffff169050600073ffffffffffffffffffffffffffffffffffffffff168173ffffffffffffffffffffffffffffffffffffffff161415611f57576040517f08c379a0000000000000000000000000000000000000000000000000000000008152600401611f4e90613f65565b60405180910390fd5b80915050919050565b600033905090565b816005600083815260200190815260200160002060006101000a81548173ffffffffffffffffffffffffffffffffffffffff021916908373ffffffffffffffffffffffffffffffffffffffff160217905550808273ffffffffffffffffffffffffffffffffffffffff16611fdb83611eae565b73ffffffffffffffffffffffffffffffffffffffff167f8c5be1e5ebec7d5bd14f71427d1e84f3dd0314c0f7b2291e5b200ac8c7c3b92560405160405180910390a45050565b60008061202d83611106565b90508073ffffffffffffffffffffffffffffffffffffffff168473ffffffffffffffffffffffffffffffffffffffff16148061209c57508373ffffffffffffffffffffffffffffffffffffffff1661208484610920565b73ffffffffffffffffffffffffffffffffffffffff16145b806120ad57506120ac8185611965565b5b91505092915050565b8273ffffffffffffffffffffffffffffffffffffffff166120d682611eae565b73ffffffffffffffffffffffffffffffffffffffff161461212c576040517f08c379a000000000000000000000000000000000000000000000000000000000815260040161212390613ea5565b60405180910390fd5b600073ffffffffffffffffffffffffffffffffffffffff168273ffffffffffffffffffffffffffffffffffffffff16141561219c576040517f08c379a000000000000000000000000000000000000000000000000000000000815260040161219390613ee5565b60405180910390fd5b6121a78383836129fa565b6121b2600082611f68565b6001600460008573ffffffffffffffffffffffffffffffffffffffff1673ffffffffffffffffffffffffffffffffffffffff16815260200190815260200160002060008282546122029190614271565b925050819055506001600460008473ffffffffffffffffffffffffffffffffffffffff1673ffffffffffffffffffffffffffffffffffffffff168152602001908152602001600020600082825461225991906141ea565b92505081905550816003600083815260200190815260200160002060006101000a81548173ffffffffffffffffffffffffffffffffffffffff021916908373ffffffffffffffffffffffffffffffffffffffff160217905550808273ffffffffffffffffffffffffffffffffffffffff168473ffffffffffffffffffffffffffffffffffffffff167fddf252ad1be2c89b69c2b068fc378daa952ba7f163c4a11628f55a4df523b3ef60405160405180910390a4612318838383612b0e565b505050565b60008060009054906101000a900473ffffffffffffffffffffffffffffffffffffffff169050816000806101000a81548173ffffffffffffffffffffffffffffffffffffffff021916908373ffffffffffffffffffffffffffffffffffffffff1602179055508173ffffffffffffffffffffffffffffffffffffffff168173ffffffffffffffffffffffffffffffffffffffff167f8be0079c531659141344cd1fd0a4f28419497f9722a3daafe3b4186f6b6457e060405160405180910390a35050565b8173ffffffffffffffffffffffffffffffffffffffff168373ffffffffffffffffffffffffffffffffffffffff161415612450576040517f08c379a000000000000000000000000000000000000000000000000000000000815260040161244790613f05565b60405180910390fd5b80600660008573ffffffffffffffffffffffffffffffffffffffff1673ffffffffffffffffffffffffffffffffffffffff16815260200190815260200160002060008473ffffffffffffffffffffffffffffffffffffffff1673ffffffffffffffffffffffffffffffffffffffff16815260200190815260200160002060006101000a81548160ff0219169083151502179055508173ffffffffffffffffffffffffffffffffffffffff168373ffffffffffffffffffffffffffffffffffffffff167f17307eab39ab6107e8899845ad3d59bd9653f200f220920489ca2b5937696c31836040516125419190613dcd565b60405180910390a3505050565b6000600d60003373ffffffffffffffffffffffffffffffffffffffff1673ffffffffffffffffffffffffffffffffffffffff16815260200190815260200160002060009054906101000a900460ff166125a657600080fd5b6125af856113c0565b6125ee576040517f08c379a00000000000000000000000000000000000000000000000000000000081526004016125e590613e25565b60405180910390fd5b6276a700426125fd91906141ea565b6276a700834261260d91906141ea565b61261791906141ea565b11612657576040517f08c379a000000000000000000000000000000000000000000000000000000000815260040161264e906140a5565b60405180910390fd5b814261266391906141ea565b600e60008781526020019081526020016000208190555061268385611e42565b156126e557600f600061269587611eae565b73ffffffffffffffffffffffffffffffffffffffff1673ffffffffffffffffffffffffffffffffffffffff16815260200190815260200160002060006126db9190613341565b6126e485612b13565b5b6126ef8386612c30565b83601060008781526020019081526020016000209080519060200190612716929190613381565b508273ffffffffffffffffffffffffffffffffffffffff16857fb3d987963d01b2f68493b4bdb130988f157ea43070d4ad840fee0466ed9370d9844261275c91906141ea565b60405161276991906140e5565b60405180910390a3814261277d91906141ea565b9050949350505050565b6127928484846120b6565b61279e84848484612e0a565b6127dd576040517f08c379a00000000000000000000000000000000000000000000000000000000081526004016127d490613e65565b60405180910390fd5b50505050565b6060600082141561282b576040518060400160405280600181526020017f3000000000000000000000000000000000000000000000000000000000000000815250905061298b565b600082905060005b6000821461285d578080612846906143c8565b915050600a826128569190614240565b9150612833565b60008167ffffffffffffffff81111561289f577f4e487b7100000000000000000000000000000000000000000000000000000000600052604160045260246000fd5b6040519080825280601f01601f1916602001820160405280156128d15781602001600182028036833780820191505090505b5090505b60008514612984576001826128ea9190614271565b9150600a856128f99190614411565b603061290591906141ea565b60f81b818381518110612941577f4e487b7100000000000000000000000000000000000000000000000000000000600052603260045260246000fd5b60200101907effffffffffffffffffffffffffffffffffffffffffffffffffffffffffffff1916908160001a905350600a8561297d9190614240565b94506128d5565b8093505050505b919050565b60007f01ffc9a7000000000000000000000000000000000000000000000000000000007bffffffffffffffffffffffffffffffffffffffffffffffffffffffff1916827bffffffffffffffffffffffffffffffffffffffffffffffffffffffff1916149050919050565b612a05838383612fa1565b600073ffffffffffffffffffffffffffffffffffffffff168373ffffffffffffffffffffffffffffffffffffffff161415612a4857612a4381612fa6565b612a87565b8173ffffffffffffffffffffffffffffffffffffffff168373ffffffffffffffffffffffffffffffffffffffff1614612a8657612a858382612fef565b5b5b600073ffffffffffffffffffffffffffffffffffffffff168273ffffffffffffffffffffffffffffffffffffffff161415612aca57612ac58161315c565b612b09565b8273ffffffffffffffffffffffffffffffffffffffff168273ffffffffffffffffffffffffffffffffffffffff1614612b0857612b07828261329f565b5b5b505050565b505050565b6000612b1e82611eae565b9050612b2c816000846129fa565b612b37600083611f68565b6001600460008373ffffffffffffffffffffffffffffffffffffffff1673ffffffffffffffffffffffffffffffffffffffff1681526020019081526020016000206000828254612b879190614271565b925050819055506003600083815260200190815260200160002060006101000a81549073ffffffffffffffffffffffffffffffffffffffff021916905581600073ffffffffffffffffffffffffffffffffffffffff168273ffffffffffffffffffffffffffffffffffffffff167fddf252ad1be2c89b69c2b068fc378daa952ba7f163c4a11628f55a4df523b3ef60405160405180910390a4612c2c81600084612b0e565b5050565b600073ffffffffffffffffffffffffffffffffffffffff168273ffffffffffffffffffffffffffffffffffffffff161415612ca0576040517f08c379a0000000000000000000000000000000000000000000000000000000008152600401612c9790613fa5565b60405180910390fd5b612ca981611e42565b15612ce9576040517f08c379a0000000000000000000000000000000000000000000000000000000008152600401612ce090613ec5565b60405180910390fd5b612cf5600083836129fa565b6001600460008473ffffffffffffffffffffffffffffffffffffffff1673ffffffffffffffffffffffffffffffffffffffff1681526020019081526020016000206000828254612d4591906141ea565b92505081905550816003600083815260200190815260200160002060006101000a81548173ffffffffffffffffffffffffffffffffffffffff021916908373ffffffffffffffffffffffffffffffffffffffff160217905550808273ffffffffffffffffffffffffffffffffffffffff16600073ffffffffffffffffffffffffffffffffffffffff167fddf252ad1be2c89b69c2b068fc378daa952ba7f163c4a11628f55a4df523b3ef60405160405180910390a4612e0660008383612b0e565b5050565b6000612e2b8473ffffffffffffffffffffffffffffffffffffffff1661331e565b15612f94578373ffffffffffffffffffffffffffffffffffffffff1663150b7a02612e54611f60565b8786866040518563ffffffff1660e01b8152600401612e769493929190613d81565b602060405180830381600087803b158015612e9057600080fd5b505af1925050508015612ec157506040513d601f19601f82011682018060405250810190612ebe919061372d565b60015b612f44573d8060008114612ef1576040519150601f19603f3d011682016040523d82523d6000602084013e612ef6565b606091505b50600081511415612f3c576040517f08c379a0000000000000000000000000000000000000000000000000000000008152600401612f3390613e65565b60405180910390fd5b805181602001fd5b63150b7a0260e01b7bffffffffffffffffffffffffffffffffffffffffffffffffffffffff1916817bffffffffffffffffffffffffffffffffffffffffffffffffffffffff191614915050612f99565b600190505b949350505050565b505050565b600980549050600a600083815260200190815260200160002081905550600981908060018154018082558091505060019003906000526020600020016000909190919091505550565b60006001612ffc846111c5565b6130069190614271565b90506000600860008481526020019081526020016000205490508181146130eb576000600760008673ffffffffffffffffffffffffffffffffffffffff1673ffffffffffffffffffffffffffffffffffffffff168152602001908152602001600020600084815260200190815260200160002054905080600760008773ffffffffffffffffffffffffffffffffffffffff1673ffffffffffffffffffffffffffffffffffffffff168152602001908152602001600020600084815260200190815260200160002081905550816008600083815260200190815260200160002081905550505b6008600084815260200190815260200160002060009055600760008573ffffffffffffffffffffffffffffffffffffffff1673ffffffffffffffffffffffffffffffffffffffff16815260200190815260200160002060008381526020019081526020016000206000905550505050565b600060016009805490506131709190614271565b90506000600a60008481526020019081526020016000205490506000600983815481106131c6577f4e487b7100000000000000000000000000000000000000000000000000000000600052603260045260246000fd5b90600052602060002001549050806009838154811061320e577f4e487b7100000000000000000000000000000000000000000000000000000000600052603260045260246000fd5b906000526020600020018190555081600a600083815260200190815260200160002081905550600a6000858152602001908152602001600020600090556009805480613283577f4e487b7100000000000000000000000000000000000000000000000000000000600052603160045260246000fd5b6001900381819060005260206000200160009055905550505050565b60006132aa836111c5565b905081600760008573ffffffffffffffffffffffffffffffffffffffff1673ffffffffffffffffffffffffffffffffffffffff168152602001908152602001600020600083815260200190815260200160002081905550806008600084815260200190815260200160002081905550505050565b6000808273ffffffffffffffffffffffffffffffffffffffff163b119050919050565b50805461334d90614365565b6000825580601f1061335f575061337e565b601f01602090049060005260206000209081019061337d9190613407565b5b50565b82805461338d90614365565b90600052602060002090601f0160209004810192826133af57600085556133f6565b82601f106133c857805160ff19168380011785556133f6565b828001600101855582156133f6579182015b828111156133f55782518255916020019190600101906133da565b5b5090506134039190613407565b5090565b5b80821115613420576000816000905550600101613408565b5090565b600061343761343284614125565b614100565b90508281526020810184848401111561344f57600080fd5b61345a848285614323565b509392505050565b600061347561347084614156565b614100565b90508281526020810184848401111561348d57600080fd5b613498848285614323565b509392505050565b6000813590506134af81614a83565b92915050565b6000813590506134c481614a9a565b92915050565b6000813590506134d981614ab1565b92915050565b6000815190506134ee81614ab1565b92915050565b600082601f83011261350557600080fd5b8135613515848260208601613424565b91505092915050565b600082601f83011261352f57600080fd5b813561353f848260208601613462565b91505092915050565b60008135905061355781614ac8565b92915050565b60006020828403121561356f57600080fd5b600061357d848285016134a0565b91505092915050565b6000806040838503121561359957600080fd5b60006135a7858286016134a0565b92505060206135b8858286016134a0565b9150509250929050565b6000806000606084860312156135d757600080fd5b60006135e5868287016134a0565b93505060206135f6868287016134a0565b925050604061360786828701613548565b9150509250925092565b6000806000806080858703121561362757600080fd5b6000613635878288016134a0565b9450506020613646878288016134a0565b935050604061365787828801613548565b925050606085013567ffffffffffffffff81111561367457600080fd5b613680878288016134f4565b91505092959194509250565b6000806040838503121561369f57600080fd5b60006136ad858286016134a0565b92505060206136be858286016134b5565b9150509250929050565b600080604083850312156136db57600080fd5b60006136e9858286016134a0565b92505060206136fa85828601613548565b9150509250929050565b60006020828403121561371657600080fd5b6000613724848285016134ca565b91505092915050565b60006020828403121561373f57600080fd5b600061374d848285016134df565b91505092915050565b60006020828403121561376857600080fd5b600082013567ffffffffffffffff81111561378257600080fd5b61378e8482850161351e565b91505092915050565b600080604083850312156137aa57600080fd5b600083013567ffffffffffffffff8111156137c457600080fd5b6137d08582860161351e565b92505060206137e1858286016134a0565b9150509250929050565b6000602082840312156137fd57600080fd5b600061380b84828501613548565b91505092915050565b6000806000806080858703121561382a57600080fd5b600061383887828801613548565b945050602085013567ffffffffffffffff81111561385557600080fd5b6138618782880161351e565b9350506040613872878288016134a0565b925050606061388387828801613548565b91505092959194509250565b600080604083850312156138a257600080fd5b60006138b085828601613548565b92505060206138c185828601613548565b9150509250929050565b6138d4816142a5565b82525050565b6138e3816142b7565b82525050565b6138f2816142c3565b82525050565b60006139038261419c565b61390d81856141b2565b935061391d818560208601614332565b613926816144fe565b840191505092915050565b6000815461393e81614365565b61394881866141c3565b945060018216600081146139635760018114613974576139a7565b60ff198316865281860193506139a7565b61397d85614187565b60005b8381101561399f57815481890152600182019150602081019050613980565b838801955050505b50505092915050565b60006139bb826141a7565b6139c581856141ce565b93506139d5818560208601614332565b6139de816144fe565b840191505092915050565b60006139f4826141a7565b6139fe81856141df565b9350613a0e818560208601614332565b80840191505092915050565b6000613a276015836141ce565b9150613a328261450f565b602082019050919050565b6000613a4a602b836141ce565b9150613a5582614538565b604082019050919050565b6000613a6d6032836141ce565b9150613a7882614587565b604082019050919050565b6000613a906026836141ce565b9150613a9b826145d6565b604082019050919050565b6000613ab36025836141ce565b9150613abe82614625565b604082019050919050565b6000613ad6601c836141ce565b9150613ae182614674565b602082019050919050565b6000613af96024836141ce565b9150613b048261469d565b604082019050919050565b6000613b1c6019836141ce565b9150613b27826146ec565b602082019050919050565b6000613b3f6038836141ce565b9150613b4a82614715565b604082019050919050565b6000613b62602a836141ce565b9150613b6d82614764565b604082019050919050565b6000613b856029836141ce565b9150613b90826147b3565b604082019050919050565b6000613ba8601c836141ce565b9150613bb382614802565b602082019050919050565b6000613bcb6020836141ce565b9150613bd68261482b565b602082019050919050565b6000613bee602c836141ce565b9150613bf982614854565b604082019050919050565b6000613c116020836141ce565b9150613c1c826148a3565b602082019050919050565b6000613c346018836141ce565b9150613c3f826148cc565b602082019050919050565b6000613c576021836141ce565b9150613c62826148f5565b604082019050919050565b6000613c7a6031836141ce565b9150613c8582614944565b604082019050919050565b6000613c9d6026836141ce565b9150613ca882614993565b604082019050919050565b6000613cc0602c836141ce565b9150613ccb826149e2565b604082019050919050565b6000613ce36012836141ce565b9150613cee82614a31565b602082019050919050565b6000613d066012836141ce565b9150613d1182614a5a565b602082019050919050565b613d2581614319565b82525050565b6000613d378284613931565b915081905092915050565b6000613d4e82856139e9565b9150613d5a82846139e9565b91508190509392505050565b6000602082019050613d7b60008301846138cb565b92915050565b6000608082019050613d9660008301876138cb565b613da360208301866138cb565b613db06040830185613d1c565b8181036060830152613dc281846138f8565b905095945050505050565b6000602082019050613de260008301846138da565b92915050565b6000602082019050613dfd60008301846138e9565b92915050565b60006020820190508181036000830152613e1d81846139b0565b905092915050565b60006020820190508181036000830152613e3e81613a1a565b9050919050565b60006020820190508181036000830152613e5e81613a3d565b9050919050565b60006020820190508181036000830152613e7e81613a60565b9050919050565b60006020820190508181036000830152613e9e81613a83565b9050919050565b60006020820190508181036000830152613ebe81613aa6565b9050919050565b60006020820190508181036000830152613ede81613ac9565b9050919050565b60006020820190508181036000830152613efe81613aec565b9050919050565b60006020820190508181036000830152613f1e81613b0f565b9050919050565b60006020820190508181036000830152613f3e81613b32565b9050919050565b60006020820190508181036000830152613f5e81613b55565b9050919050565b60006020820190508181036000830152613f7e81613b78565b9050919050565b60006020820190508181036000830152613f9e81613b9b565b9050919050565b60006020820190508181036000830152613fbe81613bbe565b9050919050565b60006020820190508181036000830152613fde81613be1565b9050919050565b60006020820190508181036000830152613ffe81613c04565b9050919050565b6000602082019050818103600083015261401e81613c27565b9050919050565b6000602082019050818103600083015261403e81613c4a565b9050919050565b6000602082019050818103600083015261405e81613c6d565b9050919050565b6000602082019050818103600083015261407e81613c90565b9050919050565b6000602082019050818103600083015261409e81613cb3565b9050919050565b600060208201905081810360008301526140be81613cd6565b9050919050565b600060208201905081810360008301526140de81613cf9565b9050919050565b60006020820190506140fa6000830184613d1c565b92915050565b600061410a61411b565b90506141168282614397565b919050565b6000604051905090565b600067ffffffffffffffff8211156141405761413f6144cf565b5b614149826144fe565b9050602081019050919050565b600067ffffffffffffffff821115614171576141706144cf565b5b61417a826144fe565b9050602081019050919050565b60008190508160005260206000209050919050565b600081519050919050565b600081519050919050565b600082825260208201905092915050565b600081905092915050565b600082825260208201905092915050565b600081905092915050565b60006141f582614319565b915061420083614319565b9250827fffffffffffffffffffffffffffffffffffffffffffffffffffffffffffffffff0382111561423557614234614442565b5b828201905092915050565b600061424b82614319565b915061425683614319565b92508261426657614265614471565b5b828204905092915050565b600061427c82614319565b915061428783614319565b92508282101561429a57614299614442565b5b828203905092915050565b60006142b0826142f9565b9050919050565b60008115159050919050565b6000819050919050565b60007fffffffff0000000000000000000000000000000000000000000000000000000082169050919050565b600073ffffffffffffffffffffffffffffffffffffffff82169050919050565b6000819050919050565b82818337600083830152505050565b60005b83811015614350578082015181840152602081019050614335565b8381111561435f576000848401525b50505050565b6000600282049050600182168061437d57607f821691505b60208210811415614391576143906144a0565b5b50919050565b6143a0826144fe565b810181811067ffffffffffffffff821117156143bf576143be6144cf565b5b80604052505050565b60006143d382614319565b91507fffffffffffffffffffffffffffffffffffffffffffffffffffffffffffffffff82141561440657614405614442565b5b600182019050919050565b600061441c82614319565b915061442783614319565b92508261443757614436614471565b5b828206905092915050565b7f4e487b7100000000000000000000000000000000000000000000000000000000600052601160045260246000fd5b7f4e487b7100000000000000000000000000000000000000000000000000000000600052601260045260246000fd5b7f4e487b7100000000000000000000000000000000000000000000000000000000600052602260045260246000fd5b7f4e487b7100000000000000000000000000000000000000000000000000000000600052604160045260246000fd5b6000601f19601f8301169050919050565b7f4f4e533a2049445f4e4f545f415641494c41424c450000000000000000000000600082015250565b7f455243373231456e756d657261626c653a206f776e657220696e646578206f7560008201527f74206f6620626f756e6473000000000000000000000000000000000000000000602082015250565b7f4552433732313a207472616e7366657220746f206e6f6e20455243373231526560008201527f63656976657220696d706c656d656e7465720000000000000000000000000000602082015250565b7f4f776e61626c653a206e6577206f776e657220697320746865207a65726f206160008201527f6464726573730000000000000000000000000000000000000000000000000000602082015250565b7f4552433732313a207472616e736665722066726f6d20696e636f72726563742060008201527f6f776e6572000000000000000000000000000000000000000000000000000000602082015250565b7f4552433732313a20746f6b656e20616c7265616479206d696e74656400000000600082015250565b7f4552433732313a207472616e7366657220746f20746865207a65726f2061646460008201527f7265737300000000000000000000000000000000000000000000000000000000602082015250565b7f4552433732313a20617070726f766520746f2063616c6c657200000000000000600082015250565b7f4552433732313a20617070726f76652063616c6c6572206973206e6f74206f7760008201527f6e6572206e6f7220617070726f76656420666f7220616c6c0000000000000000602082015250565b7f4552433732313a2062616c616e636520717565727920666f7220746865207a6560008201527f726f206164647265737300000000000000000000000000000000000000000000602082015250565b7f4552433732313a206f776e657220717565727920666f72206e6f6e657869737460008201527f656e7420746f6b656e0000000000000000000000000000000000000000000000602082015250565b7f4f4e533a2054494d455f49535f4c4f5745525f5448414e5f4e4f572000000000600082015250565b7f4552433732313a206d696e7420746f20746865207a65726f2061646472657373600082015250565b7f4552433732313a20617070726f76656420717565727920666f72206e6f6e657860008201527f697374656e7420746f6b656e0000000000000000000000000000000000000000602082015250565b7f4f776e61626c653a2063616c6c6572206973206e6f7420746865206f776e6572600082015250565b7f4f4e533a2054494d455f50524f424c454d5f4c4f574552210000000000000000600082015250565b7f4552433732313a20617070726f76616c20746f2063757272656e74206f776e6560008201527f7200000000000000000000000000000000000000000000000000000000000000602082015250565b7f4552433732313a207472616e736665722063616c6c6572206973206e6f74206f60008201527f776e6572206e6f7220617070726f766564000000000000000000000000000000602082015250565b7f4f4e533a20544849535f414444524553535f49535f4e4f545f4f574e45525f4160008201527f4e594d4f52450000000000000000000000000000000000000000000000000000602082015250565b7f455243373231456e756d657261626c653a20676c6f62616c20696e646578206f60008201527f7574206f6620626f756e64730000000000000000000000000000000000000000602082015250565b7f4f4e533a2054494d455f50524f424c454d210000000000000000000000000000600082015250565b7f4f4e533a204e414d455f45585049524945530000000000000000000000000000600082015250565b614a8c816142a5565b8114614a9757600080fd5b50565b614aa3816142b7565b8114614aae57600080fd5b50565b614aba816142cd565b8114614ac557600080fd5b50565b614ad181614319565b8114614adc57600080fd5b5056fea2646970667358221220b38fc548644933591e589d829b5bb3849fd4d2950a50492b550c6db0cede813364736f6c63430008040033",
  "linkReferences": {},
  "deployedLinkReferences": {}
}